{
	"contracts/FundMe.sol": {
		"FundMe": {
			"abi": [
				{
					"inputs": [
						{
							"internalType": "address",
							"name": "",
							"type": "address"
						}
					],
					"name": "addressToAmountFunded",
					"outputs": [
						{
							"internalType": "uint256",
							"name": "",
							"type": "uint256"
						}
					],
					"stateMutability": "view",
					"type": "function"
				},
				{
					"inputs": [],
					"name": "fund",
					"outputs": [],
					"stateMutability": "payable",
					"type": "function"
				},
				{
					"inputs": [
						{
							"internalType": "uint256",
							"name": "",
							"type": "uint256"
						}
					],
					"name": "funders",
					"outputs": [
						{
							"internalType": "address",
							"name": "",
							"type": "address"
						}
					],
					"stateMutability": "view",
					"type": "function"
				},
				{
					"inputs": [
						{
							"internalType": "uint256",
							"name": "ethAmount",
							"type": "uint256"
						}
					],
					"name": "getConversionRate",
					"outputs": [
						{
							"internalType": "uint256",
							"name": "",
							"type": "uint256"
						}
					],
					"stateMutability": "view",
					"type": "function"
				},
				{
					"inputs": [],
					"name": "getPrice",
					"outputs": [
						{
							"internalType": "uint256",
							"name": "",
							"type": "uint256"
						}
					],
					"stateMutability": "view",
					"type": "function"
				},
				{
					"inputs": [],
					"name": "minimumUsd",
					"outputs": [
						{
							"internalType": "uint256",
							"name": "",
							"type": "uint256"
						}
					],
					"stateMutability": "view",
					"type": "function"
				}
			],
			"devdoc": {
				"kind": "dev",
				"methods": {},
				"version": 1
			},
			"evm": {
				"assembly": "    /* \"contracts/FundMe.sol\":140:1042  contract FundMe {... */\n  mstore(0x40, 0x80)\n    /* \"contracts/FundMe.sol\":285:294  50 * 1e18 */\n  0x02b5e3af16b1880000\n    /* \"contracts/FundMe.sol\":257:294  uint256 public minimumUsd = 50 * 1e18 */\n  0x02\n  sstore\n    /* \"contracts/FundMe.sol\":140:1042  contract FundMe {... */\n  callvalue\n  dup1\n  iszero\n  tag_1\n  jumpi\n  0x00\n  dup1\n  revert\ntag_1:\n  pop\n  dataSize(sub_0)\n  dup1\n  dataOffset(sub_0)\n  0x00\n  codecopy\n  0x00\n  return\nstop\n\nsub_0: assembly {\n        /* \"contracts/FundMe.sol\":140:1042  contract FundMe {... */\n      mstore(0x40, 0x80)\n      jumpi(tag_1, lt(calldatasize, 0x04))\n      shr(0xe0, calldataload(0x00))\n      dup1\n      0x098de820\n      eq\n      tag_2\n      jumpi\n      dup1\n      0x3e47d6f3\n      eq\n      tag_3\n      jumpi\n      dup1\n      0x6e5b6b28\n      eq\n      tag_4\n      jumpi\n      dup1\n      0x98d5fdca\n      eq\n      tag_5\n      jumpi\n      dup1\n      0xb60d4288\n      eq\n      tag_6\n      jumpi\n      dup1\n      0xdc0d3dff\n      eq\n      tag_7\n      jumpi\n    tag_1:\n      0x00\n      dup1\n      revert\n        /* \"contracts/FundMe.sol\":257:294  uint256 public minimumUsd = 50 * 1e18 */\n    tag_2:\n      callvalue\n      dup1\n      iszero\n      tag_8\n      jumpi\n      0x00\n      dup1\n      revert\n    tag_8:\n      pop\n      tag_9\n      tag_10\n      jump\t// in\n    tag_9:\n      mload(0x40)\n      tag_11\n      swap2\n      swap1\n      tag_12\n      jump\t// in\n    tag_11:\n      mload(0x40)\n      dup1\n      swap2\n      sub\n      swap1\n      return\n        /* \"contracts/FundMe.sol\":194:250  mapping(address => uint256) public addressToAmountFunded */\n    tag_3:\n      callvalue\n      dup1\n      iszero\n      tag_13\n      jumpi\n      0x00\n      dup1\n      revert\n    tag_13:\n      pop\n      tag_14\n      0x04\n      dup1\n      calldatasize\n      sub\n      dup2\n      add\n      swap1\n      tag_15\n      swap2\n      swap1\n      tag_16\n      jump\t// in\n    tag_15:\n      tag_17\n      jump\t// in\n    tag_14:\n      mload(0x40)\n      tag_18\n      swap2\n      swap1\n      tag_12\n      jump\t// in\n    tag_18:\n      mload(0x40)\n      dup1\n      swap2\n      sub\n      swap1\n      return\n        /* \"contracts/FundMe.sol\":822:1039  function getConversionRate(uint256 ethAmount) public view returns (uint256) {... */\n    tag_4:\n      callvalue\n      dup1\n      iszero\n      tag_19\n      jumpi\n      0x00\n      dup1\n      revert\n    tag_19:\n      pop\n      tag_20\n      0x04\n      dup1\n      calldatasize\n      sub\n      dup2\n      add\n      swap1\n      tag_21\n      swap2\n      swap1\n      tag_22\n      jump\t// in\n    tag_21:\n      tag_23\n      jump\t// in\n    tag_20:\n      mload(0x40)\n      tag_24\n      swap2\n      swap1\n      tag_12\n      jump\t// in\n    tag_24:\n      mload(0x40)\n      dup1\n      swap2\n      sub\n      swap1\n      return\n        /* \"contracts/FundMe.sol\":544:814  function getPrice() public view returns (uint256) {... */\n    tag_5:\n      callvalue\n      dup1\n      iszero\n      tag_25\n      jumpi\n      0x00\n      dup1\n      revert\n    tag_25:\n      pop\n      tag_26\n      tag_27\n      jump\t// in\n    tag_26:\n      mload(0x40)\n      tag_28\n      swap2\n      swap1\n      tag_12\n      jump\t// in\n    tag_28:\n      mload(0x40)\n      dup1\n      swap2\n      sub\n      swap1\n      return\n        /* \"contracts/FundMe.sol\":303:536  function fund() public payable {... */\n    tag_6:\n      tag_29\n      tag_30\n      jump\t// in\n    tag_29:\n      stop\n        /* \"contracts/FundMe.sol\":163:187  address[] public funders */\n    tag_7:\n      callvalue\n      dup1\n      iszero\n      tag_31\n      jumpi\n      0x00\n      dup1\n      revert\n    tag_31:\n      pop\n      tag_32\n      0x04\n      dup1\n      calldatasize\n      sub\n      dup2\n      add\n      swap1\n      tag_33\n      swap2\n      swap1\n      tag_22\n      jump\t// in\n    tag_33:\n      tag_34\n      jump\t// in\n    tag_32:\n      mload(0x40)\n      tag_35\n      swap2\n      swap1\n      tag_36\n      jump\t// in\n    tag_35:\n      mload(0x40)\n      dup1\n      swap2\n      sub\n      swap1\n      return\n        /* \"contracts/FundMe.sol\":257:294  uint256 public minimumUsd = 50 * 1e18 */\n    tag_10:\n      sload(0x02)\n      dup2\n      jump\t// out\n        /* \"contracts/FundMe.sol\":194:250  mapping(address => uint256) public addressToAmountFunded */\n    tag_17:\n      mstore(0x20, 0x01)\n      dup1\n      0x00\n      mstore\n      keccak256(0x00, 0x40)\n      0x00\n      swap2\n      pop\n      swap1\n      pop\n      sload\n      dup2\n      jump\t// out\n        /* \"contracts/FundMe.sol\":822:1039  function getConversionRate(uint256 ethAmount) public view returns (uint256) {... */\n    tag_23:\n        /* \"contracts/FundMe.sol\":889:896  uint256 */\n      0x00\n        /* \"contracts/FundMe.sol\":909:925  uint256 ethPrice */\n      dup1\n        /* \"contracts/FundMe.sol\":928:938  getPrice() */\n      tag_38\n        /* \"contracts/FundMe.sol\":928:936  getPrice */\n      tag_27\n        /* \"contracts/FundMe.sol\":928:938  getPrice() */\n      jump\t// in\n    tag_38:\n        /* \"contracts/FundMe.sol\":909:938  uint256 ethPrice = getPrice() */\n      swap1\n      pop\n        /* \"contracts/FundMe.sol\":949:969  uint256 ethAmountUsd */\n      0x00\n        /* \"contracts/FundMe.sol\":997:1001  1e18 */\n      0x0de0b6b3a7640000\n        /* \"contracts/FundMe.sol\":984:993  ethAmount */\n      dup5\n        /* \"contracts/FundMe.sol\":973:981  ethPrice */\n      dup4\n        /* \"contracts/FundMe.sol\":973:993  ethPrice * ethAmount */\n      tag_39\n      swap2\n      swap1\n      tag_40\n      jump\t// in\n    tag_39:\n        /* \"contracts/FundMe.sol\":972:1001  (ethPrice * ethAmount) / 1e18 */\n      tag_41\n      swap2\n      swap1\n      tag_42\n      jump\t// in\n    tag_41:\n        /* \"contracts/FundMe.sol\":949:1001  uint256 ethAmountUsd = (ethPrice * ethAmount) / 1e18 */\n      swap1\n      pop\n        /* \"contracts/FundMe.sol\":1019:1031  ethAmountUsd */\n      dup1\n        /* \"contracts/FundMe.sol\":1012:1031  return ethAmountUsd */\n      swap3\n      pop\n      pop\n      pop\n        /* \"contracts/FundMe.sol\":822:1039  function getConversionRate(uint256 ethAmount) public view returns (uint256) {... */\n      swap2\n      swap1\n      pop\n      jump\t// out\n        /* \"contracts/FundMe.sol\":544:814  function getPrice() public view returns (uint256) {... */\n    tag_27:\n        /* \"contracts/FundMe.sol\":585:592  uint256 */\n      0x00\n        /* \"contracts/FundMe.sol\":605:636  AggregatorV3Interface priceFeed */\n      dup1\n        /* \"contracts/FundMe.sol\":661:703  0x694AA1769357215DE4FAC081bf1f309aDC325306 */\n      0x694aa1769357215de4fac081bf1f309adc325306\n        /* \"contracts/FundMe.sol\":605:704  AggregatorV3Interface priceFeed = AggregatorV3Interface(0x694AA1769357215DE4FAC081bf1f309aDC325306) */\n      swap1\n      pop\n        /* \"contracts/FundMe.sol\":718:730  int256 price */\n      0x00\n        /* \"contracts/FundMe.sol\":740:749  priceFeed */\n      dup2\n        /* \"contracts/FundMe.sol\":740:765  priceFeed.latestRoundData */\n      0xffffffffffffffffffffffffffffffffffffffff\n      and\n      0xfeaf968c\n        /* \"contracts/FundMe.sol\":740:767  priceFeed.latestRoundData() */\n      mload(0x40)\n      dup2\n      0xffffffff\n      and\n      0xe0\n      shl\n      dup2\n      mstore\n      0x04\n      add\n      0xa0\n      mload(0x40)\n      dup1\n      dup4\n      sub\n      dup2\n      dup7\n      gas\n      staticcall\n      iszero\n      dup1\n      iszero\n      tag_45\n      jumpi\n      returndatasize\n      0x00\n      dup1\n      returndatacopy\n      revert(0x00, returndatasize)\n    tag_45:\n      pop\n      pop\n      pop\n      pop\n      mload(0x40)\n      returndatasize\n      not(0x1f)\n      0x1f\n      dup3\n      add\n      and\n      dup3\n      add\n      dup1\n      0x40\n      mstore\n      pop\n      dup2\n      add\n      swap1\n      tag_46\n      swap2\n      swap1\n      tag_47\n      jump\t// in\n    tag_46:\n        /* \"contracts/FundMe.sol\":715:767  (, int256 price, , , ) = priceFeed.latestRoundData() */\n      pop\n      pop\n      pop\n      swap2\n      pop\n      pop\n        /* \"contracts/FundMe.sol\":801:805  1e10 */\n      0x02540be400\n        /* \"contracts/FundMe.sol\":793:798  price */\n      dup2\n        /* \"contracts/FundMe.sol\":793:805  price * 1e10 */\n      tag_48\n      swap2\n      swap1\n      tag_49\n      jump\t// in\n    tag_48:\n        /* \"contracts/FundMe.sol\":778:806  return uint256(price * 1e10) */\n      swap3\n      pop\n      pop\n      pop\n        /* \"contracts/FundMe.sol\":544:814  function getPrice() public view returns (uint256) {... */\n      swap1\n      jump\t// out\n        /* \"contracts/FundMe.sol\":303:536  function fund() public payable {... */\n    tag_30:\n        /* \"contracts/FundMe.sol\":392:396  1e18 */\n      0x0de0b6b3a7640000\n        /* \"contracts/FundMe.sol\":379:388  msg.value */\n      callvalue\n        /* \"contracts/FundMe.sol\":379:396  msg.value >= 1e18 */\n      lt\n      iszero\n        /* \"contracts/FundMe.sol\":371:435  require(msg.value >= 1e18, \"Maaf, nilai yang anda input kurang\") */\n      tag_51\n      jumpi\n      mload(0x40)\n      0x08c379a000000000000000000000000000000000000000000000000000000000\n      dup2\n      mstore\n      0x04\n      add\n      tag_52\n      swap1\n      tag_53\n      jump\t// in\n    tag_52:\n      mload(0x40)\n      dup1\n      swap2\n      sub\n      swap1\n      revert\n    tag_51:\n        /* \"contracts/FundMe.sol\":448:455  funders */\n      0x00\n        /* \"contracts/FundMe.sol\":461:471  msg.sender */\n      caller\n        /* \"contracts/FundMe.sol\":448:472  funders.push(msg.sender) */\n      swap1\n      dup1\n      0x01\n      dup2\n      sload\n      add\n      dup1\n      dup3\n      sstore\n      dup1\n      swap2\n      pop\n      pop\n      0x01\n      swap1\n      sub\n      swap1\n      0x00\n      mstore\n      keccak256(0x00, 0x20)\n      add\n      0x00\n      swap1\n      swap2\n      swap1\n      swap2\n      swap1\n      swap2\n      0x0100\n      exp\n      dup2\n      sload\n      dup2\n      0xffffffffffffffffffffffffffffffffffffffff\n      mul\n      not\n      and\n      swap1\n      dup4\n      0xffffffffffffffffffffffffffffffffffffffff\n      and\n      mul\n      or\n      swap1\n      sstore\n      pop\n        /* \"contracts/FundMe.sol\":519:528  msg.value */\n      callvalue\n        /* \"contracts/FundMe.sol\":483:504  addressToAmountFunded */\n      0x01\n        /* \"contracts/FundMe.sol\":483:516  addressToAmountFunded[msg.sender] */\n      0x00\n        /* \"contracts/FundMe.sol\":505:515  msg.sender */\n      caller\n        /* \"contracts/FundMe.sol\":483:516  addressToAmountFunded[msg.sender] */\n      0xffffffffffffffffffffffffffffffffffffffff\n      and\n      0xffffffffffffffffffffffffffffffffffffffff\n      and\n      dup2\n      mstore\n      0x20\n      add\n      swap1\n      dup2\n      mstore\n      0x20\n      add\n      0x00\n      keccak256\n        /* \"contracts/FundMe.sol\":483:528  addressToAmountFunded[msg.sender] = msg.value */\n      dup2\n      swap1\n      sstore\n      pop\n        /* \"contracts/FundMe.sol\":303:536  function fund() public payable {... */\n      jump\t// out\n        /* \"contracts/FundMe.sol\":163:187  address[] public funders */\n    tag_34:\n      0x00\n      dup2\n      dup2\n      sload\n      dup2\n      lt\n      tag_55\n      jumpi\n      0x00\n      dup1\n      revert\n    tag_55:\n      swap1\n      0x00\n      mstore\n      keccak256(0x00, 0x20)\n      add\n      0x00\n      swap2\n      pop\n      sload\n      swap1\n      0x0100\n      exp\n      swap1\n      div\n      0xffffffffffffffffffffffffffffffffffffffff\n      and\n      dup2\n      jump\t// out\n        /* \"#utility.yul\":7:84   */\n    tag_57:\n        /* \"#utility.yul\":44:51   */\n      0x00\n        /* \"#utility.yul\":73:78   */\n      dup2\n        /* \"#utility.yul\":62:78   */\n      swap1\n      pop\n        /* \"#utility.yul\":7:84   */\n      swap2\n      swap1\n      pop\n      jump\t// out\n        /* \"#utility.yul\":90:208   */\n    tag_58:\n        /* \"#utility.yul\":177:201   */\n      tag_84\n        /* \"#utility.yul\":195:200   */\n      dup2\n        /* \"#utility.yul\":177:201   */\n      tag_57\n      jump\t// in\n    tag_84:\n        /* \"#utility.yul\":172:175   */\n      dup3\n        /* \"#utility.yul\":165:202   */\n      mstore\n        /* \"#utility.yul\":90:208   */\n      pop\n      pop\n      jump\t// out\n        /* \"#utility.yul\":214:436   */\n    tag_12:\n        /* \"#utility.yul\":307:311   */\n      0x00\n        /* \"#utility.yul\":345:347   */\n      0x20\n        /* \"#utility.yul\":334:343   */\n      dup3\n        /* \"#utility.yul\":330:348   */\n      add\n        /* \"#utility.yul\":322:348   */\n      swap1\n      pop\n        /* \"#utility.yul\":358:429   */\n      tag_86\n        /* \"#utility.yul\":426:427   */\n      0x00\n        /* \"#utility.yul\":415:424   */\n      dup4\n        /* \"#utility.yul\":411:428   */\n      add\n        /* \"#utility.yul\":402:408   */\n      dup5\n        /* \"#utility.yul\":358:429   */\n      tag_58\n      jump\t// in\n    tag_86:\n        /* \"#utility.yul\":214:436   */\n      swap3\n      swap2\n      pop\n      pop\n      jump\t// out\n        /* \"#utility.yul\":523:640   */\n    tag_60:\n        /* \"#utility.yul\":632:633   */\n      0x00\n        /* \"#utility.yul\":629:630   */\n      dup1\n        /* \"#utility.yul\":622:634   */\n      revert\n        /* \"#utility.yul\":769:895   */\n    tag_62:\n        /* \"#utility.yul\":806:813   */\n      0x00\n        /* \"#utility.yul\":846:888   */\n      0xffffffffffffffffffffffffffffffffffffffff\n        /* \"#utility.yul\":839:844   */\n      dup3\n        /* \"#utility.yul\":835:889   */\n      and\n        /* \"#utility.yul\":824:889   */\n      swap1\n      pop\n        /* \"#utility.yul\":769:895   */\n      swap2\n      swap1\n      pop\n      jump\t// out\n        /* \"#utility.yul\":901:997   */\n    tag_63:\n        /* \"#utility.yul\":938:945   */\n      0x00\n        /* \"#utility.yul\":967:991   */\n      tag_92\n        /* \"#utility.yul\":985:990   */\n      dup3\n        /* \"#utility.yul\":967:991   */\n      tag_62\n      jump\t// in\n    tag_92:\n        /* \"#utility.yul\":956:991   */\n      swap1\n      pop\n        /* \"#utility.yul\":901:997   */\n      swap2\n      swap1\n      pop\n      jump\t// out\n        /* \"#utility.yul\":1003:1125   */\n    tag_64:\n        /* \"#utility.yul\":1076:1100   */\n      tag_94\n        /* \"#utility.yul\":1094:1099   */\n      dup2\n        /* \"#utility.yul\":1076:1100   */\n      tag_63\n      jump\t// in\n    tag_94:\n        /* \"#utility.yul\":1069:1074   */\n      dup2\n        /* \"#utility.yul\":1066:1101   */\n      eq\n        /* \"#utility.yul\":1056:1119   */\n      tag_95\n      jumpi\n        /* \"#utility.yul\":1115:1116   */\n      0x00\n        /* \"#utility.yul\":1112:1113   */\n      dup1\n        /* \"#utility.yul\":1105:1117   */\n      revert\n        /* \"#utility.yul\":1056:1119   */\n    tag_95:\n        /* \"#utility.yul\":1003:1125   */\n      pop\n      jump\t// out\n        /* \"#utility.yul\":1131:1270   */\n    tag_65:\n        /* \"#utility.yul\":1177:1182   */\n      0x00\n        /* \"#utility.yul\":1215:1221   */\n      dup2\n        /* \"#utility.yul\":1202:1222   */\n      calldataload\n        /* \"#utility.yul\":1193:1222   */\n      swap1\n      pop\n        /* \"#utility.yul\":1231:1264   */\n      tag_97\n        /* \"#utility.yul\":1258:1263   */\n      dup2\n        /* \"#utility.yul\":1231:1264   */\n      tag_64\n      jump\t// in\n    tag_97:\n        /* \"#utility.yul\":1131:1270   */\n      swap3\n      swap2\n      pop\n      pop\n      jump\t// out\n        /* \"#utility.yul\":1276:1605   */\n    tag_16:\n        /* \"#utility.yul\":1335:1341   */\n      0x00\n        /* \"#utility.yul\":1384:1386   */\n      0x20\n        /* \"#utility.yul\":1372:1381   */\n      dup3\n        /* \"#utility.yul\":1363:1370   */\n      dup5\n        /* \"#utility.yul\":1359:1382   */\n      sub\n        /* \"#utility.yul\":1355:1387   */\n      slt\n        /* \"#utility.yul\":1352:1471   */\n      iszero\n      tag_99\n      jumpi\n        /* \"#utility.yul\":1390:1469   */\n      tag_100\n      tag_60\n      jump\t// in\n    tag_100:\n        /* \"#utility.yul\":1352:1471   */\n    tag_99:\n        /* \"#utility.yul\":1510:1511   */\n      0x00\n        /* \"#utility.yul\":1535:1588   */\n      tag_101\n        /* \"#utility.yul\":1580:1587   */\n      dup5\n        /* \"#utility.yul\":1571:1577   */\n      dup3\n        /* \"#utility.yul\":1560:1569   */\n      dup6\n        /* \"#utility.yul\":1556:1578   */\n      add\n        /* \"#utility.yul\":1535:1588   */\n      tag_65\n      jump\t// in\n    tag_101:\n        /* \"#utility.yul\":1525:1588   */\n      swap2\n      pop\n        /* \"#utility.yul\":1481:1598   */\n      pop\n        /* \"#utility.yul\":1276:1605   */\n      swap3\n      swap2\n      pop\n      pop\n      jump\t// out\n        /* \"#utility.yul\":1611:1733   */\n    tag_66:\n        /* \"#utility.yul\":1684:1708   */\n      tag_103\n        /* \"#utility.yul\":1702:1707   */\n      dup2\n        /* \"#utility.yul\":1684:1708   */\n      tag_57\n      jump\t// in\n    tag_103:\n        /* \"#utility.yul\":1677:1682   */\n      dup2\n        /* \"#utility.yul\":1674:1709   */\n      eq\n        /* \"#utility.yul\":1664:1727   */\n      tag_104\n      jumpi\n        /* \"#utility.yul\":1723:1724   */\n      0x00\n        /* \"#utility.yul\":1720:1721   */\n      dup1\n        /* \"#utility.yul\":1713:1725   */\n      revert\n        /* \"#utility.yul\":1664:1727   */\n    tag_104:\n        /* \"#utility.yul\":1611:1733   */\n      pop\n      jump\t// out\n        /* \"#utility.yul\":1739:1878   */\n    tag_67:\n        /* \"#utility.yul\":1785:1790   */\n      0x00\n        /* \"#utility.yul\":1823:1829   */\n      dup2\n        /* \"#utility.yul\":1810:1830   */\n      calldataload\n        /* \"#utility.yul\":1801:1830   */\n      swap1\n      pop\n        /* \"#utility.yul\":1839:1872   */\n      tag_106\n        /* \"#utility.yul\":1866:1871   */\n      dup2\n        /* \"#utility.yul\":1839:1872   */\n      tag_66\n      jump\t// in\n    tag_106:\n        /* \"#utility.yul\":1739:1878   */\n      swap3\n      swap2\n      pop\n      pop\n      jump\t// out\n        /* \"#utility.yul\":1884:2213   */\n    tag_22:\n        /* \"#utility.yul\":1943:1949   */\n      0x00\n        /* \"#utility.yul\":1992:1994   */\n      0x20\n        /* \"#utility.yul\":1980:1989   */\n      dup3\n        /* \"#utility.yul\":1971:1978   */\n      dup5\n        /* \"#utility.yul\":1967:1990   */\n      sub\n        /* \"#utility.yul\":1963:1995   */\n      slt\n        /* \"#utility.yul\":1960:2079   */\n      iszero\n      tag_108\n      jumpi\n        /* \"#utility.yul\":1998:2077   */\n      tag_109\n      tag_60\n      jump\t// in\n    tag_109:\n        /* \"#utility.yul\":1960:2079   */\n    tag_108:\n        /* \"#utility.yul\":2118:2119   */\n      0x00\n        /* \"#utility.yul\":2143:2196   */\n      tag_110\n        /* \"#utility.yul\":2188:2195   */\n      dup5\n        /* \"#utility.yul\":2179:2185   */\n      dup3\n        /* \"#utility.yul\":2168:2177   */\n      dup6\n        /* \"#utility.yul\":2164:2186   */\n      add\n        /* \"#utility.yul\":2143:2196   */\n      tag_67\n      jump\t// in\n    tag_110:\n        /* \"#utility.yul\":2133:2196   */\n      swap2\n      pop\n        /* \"#utility.yul\":2089:2206   */\n      pop\n        /* \"#utility.yul\":1884:2213   */\n      swap3\n      swap2\n      pop\n      pop\n      jump\t// out\n        /* \"#utility.yul\":2219:2337   */\n    tag_68:\n        /* \"#utility.yul\":2306:2330   */\n      tag_112\n        /* \"#utility.yul\":2324:2329   */\n      dup2\n        /* \"#utility.yul\":2306:2330   */\n      tag_63\n      jump\t// in\n    tag_112:\n        /* \"#utility.yul\":2301:2304   */\n      dup3\n        /* \"#utility.yul\":2294:2331   */\n      mstore\n        /* \"#utility.yul\":2219:2337   */\n      pop\n      pop\n      jump\t// out\n        /* \"#utility.yul\":2343:2565   */\n    tag_36:\n        /* \"#utility.yul\":2436:2440   */\n      0x00\n        /* \"#utility.yul\":2474:2476   */\n      0x20\n        /* \"#utility.yul\":2463:2472   */\n      dup3\n        /* \"#utility.yul\":2459:2477   */\n      add\n        /* \"#utility.yul\":2451:2477   */\n      swap1\n      pop\n        /* \"#utility.yul\":2487:2558   */\n      tag_114\n        /* \"#utility.yul\":2555:2556   */\n      0x00\n        /* \"#utility.yul\":2544:2553   */\n      dup4\n        /* \"#utility.yul\":2540:2557   */\n      add\n        /* \"#utility.yul\":2531:2537   */\n      dup5\n        /* \"#utility.yul\":2487:2558   */\n      tag_68\n      jump\t// in\n    tag_114:\n        /* \"#utility.yul\":2343:2565   */\n      swap3\n      swap2\n      pop\n      pop\n      jump\t// out\n        /* \"#utility.yul\":2571:2751   */\n    tag_69:\n        /* \"#utility.yul\":2619:2696   */\n      0x4e487b7100000000000000000000000000000000000000000000000000000000\n        /* \"#utility.yul\":2616:2617   */\n      0x00\n        /* \"#utility.yul\":2609:2697   */\n      mstore\n        /* \"#utility.yul\":2716:2720   */\n      0x11\n        /* \"#utility.yul\":2713:2714   */\n      0x04\n        /* \"#utility.yul\":2706:2721   */\n      mstore\n        /* \"#utility.yul\":2740:2744   */\n      0x24\n        /* \"#utility.yul\":2737:2738   */\n      0x00\n        /* \"#utility.yul\":2730:2745   */\n      revert\n        /* \"#utility.yul\":2757:3167   */\n    tag_40:\n        /* \"#utility.yul\":2797:2804   */\n      0x00\n        /* \"#utility.yul\":2820:2840   */\n      tag_117\n        /* \"#utility.yul\":2838:2839   */\n      dup3\n        /* \"#utility.yul\":2820:2840   */\n      tag_57\n      jump\t// in\n    tag_117:\n        /* \"#utility.yul\":2815:2840   */\n      swap2\n      pop\n        /* \"#utility.yul\":2854:2874   */\n      tag_118\n        /* \"#utility.yul\":2872:2873   */\n      dup4\n        /* \"#utility.yul\":2854:2874   */\n      tag_57\n      jump\t// in\n    tag_118:\n        /* \"#utility.yul\":2849:2874   */\n      swap3\n      pop\n        /* \"#utility.yul\":2909:2910   */\n      dup3\n        /* \"#utility.yul\":2906:2907   */\n      dup3\n        /* \"#utility.yul\":2902:2911   */\n      mul\n        /* \"#utility.yul\":2931:2961   */\n      tag_119\n        /* \"#utility.yul\":2949:2960   */\n      dup2\n        /* \"#utility.yul\":2931:2961   */\n      tag_57\n      jump\t// in\n    tag_119:\n        /* \"#utility.yul\":2920:2961   */\n      swap2\n      pop\n        /* \"#utility.yul\":3110:3111   */\n      dup3\n        /* \"#utility.yul\":3101:3108   */\n      dup3\n        /* \"#utility.yul\":3097:3112   */\n      div\n        /* \"#utility.yul\":3094:3095   */\n      dup5\n        /* \"#utility.yul\":3091:3113   */\n      eq\n        /* \"#utility.yul\":3071:3072   */\n      dup4\n        /* \"#utility.yul\":3064:3073   */\n      iszero\n        /* \"#utility.yul\":3044:3127   */\n      or\n        /* \"#utility.yul\":3021:3160   */\n      tag_120\n      jumpi\n        /* \"#utility.yul\":3140:3158   */\n      tag_121\n      tag_69\n      jump\t// in\n    tag_121:\n        /* \"#utility.yul\":3021:3160   */\n    tag_120:\n        /* \"#utility.yul\":2805:3167   */\n      pop\n        /* \"#utility.yul\":2757:3167   */\n      swap3\n      swap2\n      pop\n      pop\n      jump\t// out\n        /* \"#utility.yul\":3173:3353   */\n    tag_70:\n        /* \"#utility.yul\":3221:3298   */\n      0x4e487b7100000000000000000000000000000000000000000000000000000000\n        /* \"#utility.yul\":3218:3219   */\n      0x00\n        /* \"#utility.yul\":3211:3299   */\n      mstore\n        /* \"#utility.yul\":3318:3322   */\n      0x12\n        /* \"#utility.yul\":3315:3316   */\n      0x04\n        /* \"#utility.yul\":3308:3323   */\n      mstore\n        /* \"#utility.yul\":3342:3346   */\n      0x24\n        /* \"#utility.yul\":3339:3340   */\n      0x00\n        /* \"#utility.yul\":3332:3347   */\n      revert\n        /* \"#utility.yul\":3359:3544   */\n    tag_42:\n        /* \"#utility.yul\":3399:3400   */\n      0x00\n        /* \"#utility.yul\":3416:3436   */\n      tag_124\n        /* \"#utility.yul\":3434:3435   */\n      dup3\n        /* \"#utility.yul\":3416:3436   */\n      tag_57\n      jump\t// in\n    tag_124:\n        /* \"#utility.yul\":3411:3436   */\n      swap2\n      pop\n        /* \"#utility.yul\":3450:3470   */\n      tag_125\n        /* \"#utility.yul\":3468:3469   */\n      dup4\n        /* \"#utility.yul\":3450:3470   */\n      tag_57\n      jump\t// in\n    tag_125:\n        /* \"#utility.yul\":3445:3470   */\n      swap3\n      pop\n        /* \"#utility.yul\":3489:3490   */\n      dup3\n        /* \"#utility.yul\":3479:3514   */\n      tag_126\n      jumpi\n        /* \"#utility.yul\":3494:3512   */\n      tag_127\n      tag_70\n      jump\t// in\n    tag_127:\n        /* \"#utility.yul\":3479:3514   */\n    tag_126:\n        /* \"#utility.yul\":3536:3537   */\n      dup3\n        /* \"#utility.yul\":3533:3534   */\n      dup3\n        /* \"#utility.yul\":3529:3538   */\n      div\n        /* \"#utility.yul\":3524:3538   */\n      swap1\n      pop\n        /* \"#utility.yul\":3359:3544   */\n      swap3\n      swap2\n      pop\n      pop\n      jump\t// out\n        /* \"#utility.yul\":3550:3655   */\n    tag_71:\n        /* \"#utility.yul\":3586:3593   */\n      0x00\n        /* \"#utility.yul\":3626:3648   */\n      0xffffffffffffffffffff\n        /* \"#utility.yul\":3619:3624   */\n      dup3\n        /* \"#utility.yul\":3615:3649   */\n      and\n        /* \"#utility.yul\":3604:3649   */\n      swap1\n      pop\n        /* \"#utility.yul\":3550:3655   */\n      swap2\n      swap1\n      pop\n      jump\t// out\n        /* \"#utility.yul\":3661:3781   */\n    tag_72:\n        /* \"#utility.yul\":3733:3756   */\n      tag_130\n        /* \"#utility.yul\":3750:3755   */\n      dup2\n        /* \"#utility.yul\":3733:3756   */\n      tag_71\n      jump\t// in\n    tag_130:\n        /* \"#utility.yul\":3726:3731   */\n      dup2\n        /* \"#utility.yul\":3723:3757   */\n      eq\n        /* \"#utility.yul\":3713:3775   */\n      tag_131\n      jumpi\n        /* \"#utility.yul\":3771:3772   */\n      0x00\n        /* \"#utility.yul\":3768:3769   */\n      dup1\n        /* \"#utility.yul\":3761:3773   */\n      revert\n        /* \"#utility.yul\":3713:3775   */\n    tag_131:\n        /* \"#utility.yul\":3661:3781   */\n      pop\n      jump\t// out\n        /* \"#utility.yul\":3787:3928   */\n    tag_73:\n        /* \"#utility.yul\":3843:3848   */\n      0x00\n        /* \"#utility.yul\":3874:3880   */\n      dup2\n        /* \"#utility.yul\":3868:3881   */\n      mload\n        /* \"#utility.yul\":3859:3881   */\n      swap1\n      pop\n        /* \"#utility.yul\":3890:3922   */\n      tag_133\n        /* \"#utility.yul\":3916:3921   */\n      dup2\n        /* \"#utility.yul\":3890:3922   */\n      tag_72\n      jump\t// in\n    tag_133:\n        /* \"#utility.yul\":3787:3928   */\n      swap3\n      swap2\n      pop\n      pop\n      jump\t// out\n        /* \"#utility.yul\":3934:4010   */\n    tag_74:\n        /* \"#utility.yul\":3970:3977   */\n      0x00\n        /* \"#utility.yul\":3999:4004   */\n      dup2\n        /* \"#utility.yul\":3988:4004   */\n      swap1\n      pop\n        /* \"#utility.yul\":3934:4010   */\n      swap2\n      swap1\n      pop\n      jump\t// out\n        /* \"#utility.yul\":4016:4136   */\n    tag_75:\n        /* \"#utility.yul\":4088:4111   */\n      tag_136\n        /* \"#utility.yul\":4105:4110   */\n      dup2\n        /* \"#utility.yul\":4088:4111   */\n      tag_74\n      jump\t// in\n    tag_136:\n        /* \"#utility.yul\":4081:4086   */\n      dup2\n        /* \"#utility.yul\":4078:4112   */\n      eq\n        /* \"#utility.yul\":4068:4130   */\n      tag_137\n      jumpi\n        /* \"#utility.yul\":4126:4127   */\n      0x00\n        /* \"#utility.yul\":4123:4124   */\n      dup1\n        /* \"#utility.yul\":4116:4128   */\n      revert\n        /* \"#utility.yul\":4068:4130   */\n    tag_137:\n        /* \"#utility.yul\":4016:4136   */\n      pop\n      jump\t// out\n        /* \"#utility.yul\":4142:4283   */\n    tag_76:\n        /* \"#utility.yul\":4198:4203   */\n      0x00\n        /* \"#utility.yul\":4229:4235   */\n      dup2\n        /* \"#utility.yul\":4223:4236   */\n      mload\n        /* \"#utility.yul\":4214:4236   */\n      swap1\n      pop\n        /* \"#utility.yul\":4245:4277   */\n      tag_139\n        /* \"#utility.yul\":4271:4276   */\n      dup2\n        /* \"#utility.yul\":4245:4277   */\n      tag_75\n      jump\t// in\n    tag_139:\n        /* \"#utility.yul\":4142:4283   */\n      swap3\n      swap2\n      pop\n      pop\n      jump\t// out\n        /* \"#utility.yul\":4289:4432   */\n    tag_77:\n        /* \"#utility.yul\":4346:4351   */\n      0x00\n        /* \"#utility.yul\":4377:4383   */\n      dup2\n        /* \"#utility.yul\":4371:4384   */\n      mload\n        /* \"#utility.yul\":4362:4384   */\n      swap1\n      pop\n        /* \"#utility.yul\":4393:4426   */\n      tag_141\n        /* \"#utility.yul\":4420:4425   */\n      dup2\n        /* \"#utility.yul\":4393:4426   */\n      tag_66\n      jump\t// in\n    tag_141:\n        /* \"#utility.yul\":4289:4432   */\n      swap3\n      swap2\n      pop\n      pop\n      jump\t// out\n        /* \"#utility.yul\":4438:5409   */\n    tag_47:\n        /* \"#utility.yul\":4541:4547   */\n      0x00\n        /* \"#utility.yul\":4549:4555   */\n      dup1\n        /* \"#utility.yul\":4557:4563   */\n      0x00\n        /* \"#utility.yul\":4565:4571   */\n      dup1\n        /* \"#utility.yul\":4573:4579   */\n      0x00\n        /* \"#utility.yul\":4622:4625   */\n      0xa0\n        /* \"#utility.yul\":4610:4619   */\n      dup7\n        /* \"#utility.yul\":4601:4608   */\n      dup9\n        /* \"#utility.yul\":4597:4620   */\n      sub\n        /* \"#utility.yul\":4593:4626   */\n      slt\n        /* \"#utility.yul\":4590:4710   */\n      iszero\n      tag_143\n      jumpi\n        /* \"#utility.yul\":4629:4708   */\n      tag_144\n      tag_60\n      jump\t// in\n    tag_144:\n        /* \"#utility.yul\":4590:4710   */\n    tag_143:\n        /* \"#utility.yul\":4749:4750   */\n      0x00\n        /* \"#utility.yul\":4774:4837   */\n      tag_145\n        /* \"#utility.yul\":4829:4836   */\n      dup9\n        /* \"#utility.yul\":4820:4826   */\n      dup3\n        /* \"#utility.yul\":4809:4818   */\n      dup10\n        /* \"#utility.yul\":4805:4827   */\n      add\n        /* \"#utility.yul\":4774:4837   */\n      tag_73\n      jump\t// in\n    tag_145:\n        /* \"#utility.yul\":4764:4837   */\n      swap6\n      pop\n        /* \"#utility.yul\":4720:4847   */\n      pop\n        /* \"#utility.yul\":4886:4888   */\n      0x20\n        /* \"#utility.yul\":4912:4975   */\n      tag_146\n        /* \"#utility.yul\":4967:4974   */\n      dup9\n        /* \"#utility.yul\":4958:4964   */\n      dup3\n        /* \"#utility.yul\":4947:4956   */\n      dup10\n        /* \"#utility.yul\":4943:4965   */\n      add\n        /* \"#utility.yul\":4912:4975   */\n      tag_76\n      jump\t// in\n    tag_146:\n        /* \"#utility.yul\":4902:4975   */\n      swap5\n      pop\n        /* \"#utility.yul\":4857:4985   */\n      pop\n        /* \"#utility.yul\":5024:5026   */\n      0x40\n        /* \"#utility.yul\":5050:5114   */\n      tag_147\n        /* \"#utility.yul\":5106:5113   */\n      dup9\n        /* \"#utility.yul\":5097:5103   */\n      dup3\n        /* \"#utility.yul\":5086:5095   */\n      dup10\n        /* \"#utility.yul\":5082:5104   */\n      add\n        /* \"#utility.yul\":5050:5114   */\n      tag_77\n      jump\t// in\n    tag_147:\n        /* \"#utility.yul\":5040:5114   */\n      swap4\n      pop\n        /* \"#utility.yul\":4995:5124   */\n      pop\n        /* \"#utility.yul\":5163:5165   */\n      0x60\n        /* \"#utility.yul\":5189:5253   */\n      tag_148\n        /* \"#utility.yul\":5245:5252   */\n      dup9\n        /* \"#utility.yul\":5236:5242   */\n      dup3\n        /* \"#utility.yul\":5225:5234   */\n      dup10\n        /* \"#utility.yul\":5221:5243   */\n      add\n        /* \"#utility.yul\":5189:5253   */\n      tag_77\n      jump\t// in\n    tag_148:\n        /* \"#utility.yul\":5179:5253   */\n      swap3\n      pop\n        /* \"#utility.yul\":5134:5263   */\n      pop\n        /* \"#utility.yul\":5302:5305   */\n      0x80\n        /* \"#utility.yul\":5329:5392   */\n      tag_149\n        /* \"#utility.yul\":5384:5391   */\n      dup9\n        /* \"#utility.yul\":5375:5381   */\n      dup3\n        /* \"#utility.yul\":5364:5373   */\n      dup10\n        /* \"#utility.yul\":5360:5382   */\n      add\n        /* \"#utility.yul\":5329:5392   */\n      tag_73\n      jump\t// in\n    tag_149:\n        /* \"#utility.yul\":5319:5392   */\n      swap2\n      pop\n        /* \"#utility.yul\":5273:5402   */\n      pop\n        /* \"#utility.yul\":4438:5409   */\n      swap3\n      swap6\n      pop\n      swap3\n      swap6\n      swap1\n      swap4\n      pop\n      jump\t// out\n        /* \"#utility.yul\":5415:5971   */\n    tag_49:\n        /* \"#utility.yul\":5454:5461   */\n      0x00\n        /* \"#utility.yul\":5477:5496   */\n      tag_151\n        /* \"#utility.yul\":5494:5495   */\n      dup3\n        /* \"#utility.yul\":5477:5496   */\n      tag_74\n      jump\t// in\n    tag_151:\n        /* \"#utility.yul\":5472:5496   */\n      swap2\n      pop\n        /* \"#utility.yul\":5510:5529   */\n      tag_152\n        /* \"#utility.yul\":5527:5528   */\n      dup4\n        /* \"#utility.yul\":5510:5529   */\n      tag_74\n      jump\t// in\n    tag_152:\n        /* \"#utility.yul\":5505:5529   */\n      swap3\n      pop\n        /* \"#utility.yul\":5564:5565   */\n      dup3\n        /* \"#utility.yul\":5561:5562   */\n      dup3\n        /* \"#utility.yul\":5557:5566   */\n      mul\n        /* \"#utility.yul\":5586:5615   */\n      tag_153\n        /* \"#utility.yul\":5603:5614   */\n      dup2\n        /* \"#utility.yul\":5586:5615   */\n      tag_74\n      jump\t// in\n    tag_153:\n        /* \"#utility.yul\":5575:5615   */\n      swap2\n      pop\n        /* \"#utility.yul\":5673:5739   */\n      0x8000000000000000000000000000000000000000000000000000000000000000\n        /* \"#utility.yul\":5670:5671   */\n      dup5\n        /* \"#utility.yul\":5667:5740   */\n      eq\n        /* \"#utility.yul\":5663:5664   */\n      0x00\n        /* \"#utility.yul\":5660:5661   */\n      dup5\n        /* \"#utility.yul\":5656:5665   */\n      slt\n        /* \"#utility.yul\":5652:5741   */\n      and\n        /* \"#utility.yul\":5649:5764   */\n      iszero\n      tag_154\n      jumpi\n        /* \"#utility.yul\":5744:5762   */\n      tag_155\n      tag_69\n      jump\t// in\n    tag_155:\n        /* \"#utility.yul\":5649:5764   */\n    tag_154:\n        /* \"#utility.yul\":5914:5915   */\n      dup3\n        /* \"#utility.yul\":5905:5912   */\n      dup3\n        /* \"#utility.yul\":5900:5916   */\n      sdiv\n        /* \"#utility.yul\":5897:5898   */\n      dup5\n        /* \"#utility.yul\":5894:5917   */\n      eq\n        /* \"#utility.yul\":5874:5875   */\n      dup4\n        /* \"#utility.yul\":5867:5876   */\n      iszero\n        /* \"#utility.yul\":5847:5931   */\n      or\n        /* \"#utility.yul\":5824:5964   */\n      tag_156\n      jumpi\n        /* \"#utility.yul\":5944:5962   */\n      tag_157\n      tag_69\n      jump\t// in\n    tag_157:\n        /* \"#utility.yul\":5824:5964   */\n    tag_156:\n        /* \"#utility.yul\":5462:5971   */\n      pop\n        /* \"#utility.yul\":5415:5971   */\n      swap3\n      swap2\n      pop\n      pop\n      jump\t// out\n        /* \"#utility.yul\":5977:6146   */\n    tag_78:\n        /* \"#utility.yul\":6061:6072   */\n      0x00\n        /* \"#utility.yul\":6095:6101   */\n      dup3\n        /* \"#utility.yul\":6090:6093   */\n      dup3\n        /* \"#utility.yul\":6083:6102   */\n      mstore\n        /* \"#utility.yul\":6135:6139   */\n      0x20\n        /* \"#utility.yul\":6130:6133   */\n      dup3\n        /* \"#utility.yul\":6126:6140   */\n      add\n        /* \"#utility.yul\":6111:6140   */\n      swap1\n      pop\n        /* \"#utility.yul\":5977:6146   */\n      swap3\n      swap2\n      pop\n      pop\n      jump\t// out\n        /* \"#utility.yul\":6152:6373   */\n    tag_79:\n        /* \"#utility.yul\":6292:6326   */\n      0x4d6161662c206e696c61692079616e6720616e646120696e707574206b757261\n        /* \"#utility.yul\":6288:6289   */\n      0x00\n        /* \"#utility.yul\":6280:6286   */\n      dup3\n        /* \"#utility.yul\":6276:6290   */\n      add\n        /* \"#utility.yul\":6269:6327   */\n      mstore\n        /* \"#utility.yul\":6361:6365   */\n      0x6e67000000000000000000000000000000000000000000000000000000000000\n        /* \"#utility.yul\":6356:6358   */\n      0x20\n        /* \"#utility.yul\":6348:6354   */\n      dup3\n        /* \"#utility.yul\":6344:6359   */\n      add\n        /* \"#utility.yul\":6337:6366   */\n      mstore\n        /* \"#utility.yul\":6152:6373   */\n      pop\n      jump\t// out\n        /* \"#utility.yul\":6379:6745   */\n    tag_80:\n        /* \"#utility.yul\":6521:6524   */\n      0x00\n        /* \"#utility.yul\":6542:6609   */\n      tag_161\n        /* \"#utility.yul\":6606:6608   */\n      0x22\n        /* \"#utility.yul\":6601:6604   */\n      dup4\n        /* \"#utility.yul\":6542:6609   */\n      tag_78\n      jump\t// in\n    tag_161:\n        /* \"#utility.yul\":6535:6609   */\n      swap2\n      pop\n        /* \"#utility.yul\":6618:6711   */\n      tag_162\n        /* \"#utility.yul\":6707:6710   */\n      dup3\n        /* \"#utility.yul\":6618:6711   */\n      tag_79\n      jump\t// in\n    tag_162:\n        /* \"#utility.yul\":6736:6738   */\n      0x40\n        /* \"#utility.yul\":6731:6734   */\n      dup3\n        /* \"#utility.yul\":6727:6739   */\n      add\n        /* \"#utility.yul\":6720:6739   */\n      swap1\n      pop\n        /* \"#utility.yul\":6379:6745   */\n      swap2\n      swap1\n      pop\n      jump\t// out\n        /* \"#utility.yul\":6751:7170   */\n    tag_53:\n        /* \"#utility.yul\":6917:6921   */\n      0x00\n        /* \"#utility.yul\":6955:6957   */\n      0x20\n        /* \"#utility.yul\":6944:6953   */\n      dup3\n        /* \"#utility.yul\":6940:6958   */\n      add\n        /* \"#utility.yul\":6932:6958   */\n      swap1\n      pop\n        /* \"#utility.yul\":7004:7013   */\n      dup2\n        /* \"#utility.yul\":6998:7002   */\n      dup2\n        /* \"#utility.yul\":6994:7014   */\n      sub\n        /* \"#utility.yul\":6990:6991   */\n      0x00\n        /* \"#utility.yul\":6979:6988   */\n      dup4\n        /* \"#utility.yul\":6975:6992   */\n      add\n        /* \"#utility.yul\":6968:7015   */\n      mstore\n        /* \"#utility.yul\":7032:7163   */\n      tag_164\n        /* \"#utility.yul\":7158:7162   */\n      dup2\n        /* \"#utility.yul\":7032:7163   */\n      tag_80\n      jump\t// in\n    tag_164:\n        /* \"#utility.yul\":7024:7163   */\n      swap1\n      pop\n        /* \"#utility.yul\":6751:7170   */\n      swap2\n      swap1\n      pop\n      jump\t// out\n\n    auxdata: 0xa2646970667358221220cb956e27cc619b33bd590fb5129086a6971bab08e8c6b23f579d073ebc386a7764736f6c634300081a0033\n}\n",
				"bytecode": {
					"linkReferences": {},
					"object": "60806040526802b5e3af16b1880000600255348015601b575f80fd5b506107d3806100295f395ff3fe608060405260043610610054575f3560e01c8063098de820146100585780633e47d6f3146100825780636e5b6b28146100be57806398d5fdca146100fa578063b60d428814610124578063dc0d3dff1461012e575b5f80fd5b348015610063575f80fd5b5061006c61016a565b60405161007991906103a2565b60405180910390f35b34801561008d575f80fd5b506100a860048036038101906100a39190610419565b610170565b6040516100b591906103a2565b60405180910390f35b3480156100c9575f80fd5b506100e460048036038101906100df919061046e565b610185565b6040516100f191906103a2565b60405180910390f35b348015610105575f80fd5b5061010e6101bd565b60405161011b91906103a2565b60405180910390f35b61012c610262565b005b348015610139575f80fd5b50610154600480360381019061014f919061046e565b610350565b60405161016191906104a8565b60405180910390f35b60025481565b6001602052805f5260405f205f915090505481565b5f8061018f6101bd565b90505f670de0b6b3a764000084836101a791906104ee565b6101b1919061055c565b90508092505050919050565b5f8073694aa1769357215de4fac081bf1f309adc32530690505f8173ffffffffffffffffffffffffffffffffffffffff1663feaf968c6040518163ffffffff1660e01b815260040160a060405180830381865afa158015610220573d5f803e3d5ffd5b505050506040513d601f19601f820116820180604052508101906102449190610612565b5050509150506402540be4008161025b9190610689565b9250505090565b670de0b6b3a76400003410156102ad576040517f08c379a00000000000000000000000000000000000000000000000000000000081526004016102a49061077f565b60405180910390fd5b5f33908060018154018082558091505060019003905f5260205f20015f9091909190916101000a81548173ffffffffffffffffffffffffffffffffffffffff021916908373ffffffffffffffffffffffffffffffffffffffff1602179055503460015f3373ffffffffffffffffffffffffffffffffffffffff1673ffffffffffffffffffffffffffffffffffffffff1681526020019081526020015f2081905550565b5f818154811061035e575f80fd5b905f5260205f20015f915054906101000a900473ffffffffffffffffffffffffffffffffffffffff1681565b5f819050919050565b61039c8161038a565b82525050565b5f6020820190506103b55f830184610393565b92915050565b5f80fd5b5f73ffffffffffffffffffffffffffffffffffffffff82169050919050565b5f6103e8826103bf565b9050919050565b6103f8816103de565b8114610402575f80fd5b50565b5f81359050610413816103ef565b92915050565b5f6020828403121561042e5761042d6103bb565b5b5f61043b84828501610405565b91505092915050565b61044d8161038a565b8114610457575f80fd5b50565b5f8135905061046881610444565b92915050565b5f60208284031215610483576104826103bb565b5b5f6104908482850161045a565b91505092915050565b6104a2816103de565b82525050565b5f6020820190506104bb5f830184610499565b92915050565b7f4e487b71000000000000000000000000000000000000000000000000000000005f52601160045260245ffd5b5f6104f88261038a565b91506105038361038a565b92508282026105118161038a565b91508282048414831517610528576105276104c1565b5b5092915050565b7f4e487b71000000000000000000000000000000000000000000000000000000005f52601260045260245ffd5b5f6105668261038a565b91506105718361038a565b9250826105815761058061052f565b5b828204905092915050565b5f69ffffffffffffffffffff82169050919050565b6105aa8161058c565b81146105b4575f80fd5b50565b5f815190506105c5816105a1565b92915050565b5f819050919050565b6105dd816105cb565b81146105e7575f80fd5b50565b5f815190506105f8816105d4565b92915050565b5f8151905061060c81610444565b92915050565b5f805f805f60a0868803121561062b5761062a6103bb565b5b5f610638888289016105b7565b9550506020610649888289016105ea565b945050604061065a888289016105fe565b935050606061066b888289016105fe565b925050608061067c888289016105b7565b9150509295509295909350565b5f610693826105cb565b915061069e836105cb565b92508282026106ac816105cb565b91507f800000000000000000000000000000000000000000000000000000000000000084145f841216156106e3576106e26104c1565b5b82820584148315176106f8576106f76104c1565b5b5092915050565b5f82825260208201905092915050565b7f4d6161662c206e696c61692079616e6720616e646120696e707574206b7572615f8201527f6e67000000000000000000000000000000000000000000000000000000000000602082015250565b5f6107696022836106ff565b91506107748261070f565b604082019050919050565b5f6020820190508181035f8301526107968161075d565b905091905056fea2646970667358221220cb956e27cc619b33bd590fb5129086a6971bab08e8c6b23f579d073ebc386a7764736f6c634300081a0033",
					"opcodes": "PUSH1 0x80 PUSH1 0x40 MSTORE PUSH9 0x2B5E3AF16B1880000 PUSH1 0x2 SSTORE CALLVALUE DUP1 ISZERO PUSH1 0x1B JUMPI PUSH0 DUP1 REVERT JUMPDEST POP PUSH2 0x7D3 DUP1 PUSH2 0x29 PUSH0 CODECOPY PUSH0 RETURN INVALID PUSH1 0x80 PUSH1 0x40 MSTORE PUSH1 0x4 CALLDATASIZE LT PUSH2 0x54 JUMPI PUSH0 CALLDATALOAD PUSH1 0xE0 SHR DUP1 PUSH4 0x98DE820 EQ PUSH2 0x58 JUMPI DUP1 PUSH4 0x3E47D6F3 EQ PUSH2 0x82 JUMPI DUP1 PUSH4 0x6E5B6B28 EQ PUSH2 0xBE JUMPI DUP1 PUSH4 0x98D5FDCA EQ PUSH2 0xFA JUMPI DUP1 PUSH4 0xB60D4288 EQ PUSH2 0x124 JUMPI DUP1 PUSH4 0xDC0D3DFF EQ PUSH2 0x12E JUMPI JUMPDEST PUSH0 DUP1 REVERT JUMPDEST CALLVALUE DUP1 ISZERO PUSH2 0x63 JUMPI PUSH0 DUP1 REVERT JUMPDEST POP PUSH2 0x6C PUSH2 0x16A JUMP JUMPDEST PUSH1 0x40 MLOAD PUSH2 0x79 SWAP2 SWAP1 PUSH2 0x3A2 JUMP JUMPDEST PUSH1 0x40 MLOAD DUP1 SWAP2 SUB SWAP1 RETURN JUMPDEST CALLVALUE DUP1 ISZERO PUSH2 0x8D JUMPI PUSH0 DUP1 REVERT JUMPDEST POP PUSH2 0xA8 PUSH1 0x4 DUP1 CALLDATASIZE SUB DUP2 ADD SWAP1 PUSH2 0xA3 SWAP2 SWAP1 PUSH2 0x419 JUMP JUMPDEST PUSH2 0x170 JUMP JUMPDEST PUSH1 0x40 MLOAD PUSH2 0xB5 SWAP2 SWAP1 PUSH2 0x3A2 JUMP JUMPDEST PUSH1 0x40 MLOAD DUP1 SWAP2 SUB SWAP1 RETURN JUMPDEST CALLVALUE DUP1 ISZERO PUSH2 0xC9 JUMPI PUSH0 DUP1 REVERT JUMPDEST POP PUSH2 0xE4 PUSH1 0x4 DUP1 CALLDATASIZE SUB DUP2 ADD SWAP1 PUSH2 0xDF SWAP2 SWAP1 PUSH2 0x46E JUMP JUMPDEST PUSH2 0x185 JUMP JUMPDEST PUSH1 0x40 MLOAD PUSH2 0xF1 SWAP2 SWAP1 PUSH2 0x3A2 JUMP JUMPDEST PUSH1 0x40 MLOAD DUP1 SWAP2 SUB SWAP1 RETURN JUMPDEST CALLVALUE DUP1 ISZERO PUSH2 0x105 JUMPI PUSH0 DUP1 REVERT JUMPDEST POP PUSH2 0x10E PUSH2 0x1BD JUMP JUMPDEST PUSH1 0x40 MLOAD PUSH2 0x11B SWAP2 SWAP1 PUSH2 0x3A2 JUMP JUMPDEST PUSH1 0x40 MLOAD DUP1 SWAP2 SUB SWAP1 RETURN JUMPDEST PUSH2 0x12C PUSH2 0x262 JUMP JUMPDEST STOP JUMPDEST CALLVALUE DUP1 ISZERO PUSH2 0x139 JUMPI PUSH0 DUP1 REVERT JUMPDEST POP PUSH2 0x154 PUSH1 0x4 DUP1 CALLDATASIZE SUB DUP2 ADD SWAP1 PUSH2 0x14F SWAP2 SWAP1 PUSH2 0x46E JUMP JUMPDEST PUSH2 0x350 JUMP JUMPDEST PUSH1 0x40 MLOAD PUSH2 0x161 SWAP2 SWAP1 PUSH2 0x4A8 JUMP JUMPDEST PUSH1 0x40 MLOAD DUP1 SWAP2 SUB SWAP1 RETURN JUMPDEST PUSH1 0x2 SLOAD DUP2 JUMP JUMPDEST PUSH1 0x1 PUSH1 0x20 MSTORE DUP1 PUSH0 MSTORE PUSH1 0x40 PUSH0 KECCAK256 PUSH0 SWAP2 POP SWAP1 POP SLOAD DUP2 JUMP JUMPDEST PUSH0 DUP1 PUSH2 0x18F PUSH2 0x1BD JUMP JUMPDEST SWAP1 POP PUSH0 PUSH8 0xDE0B6B3A7640000 DUP5 DUP4 PUSH2 0x1A7 SWAP2 SWAP1 PUSH2 0x4EE JUMP JUMPDEST PUSH2 0x1B1 SWAP2 SWAP1 PUSH2 0x55C JUMP JUMPDEST SWAP1 POP DUP1 SWAP3 POP POP POP SWAP2 SWAP1 POP JUMP JUMPDEST PUSH0 DUP1 PUSH20 0x694AA1769357215DE4FAC081BF1F309ADC325306 SWAP1 POP PUSH0 DUP2 PUSH20 0xFFFFFFFFFFFFFFFFFFFFFFFFFFFFFFFFFFFFFFFF AND PUSH4 0xFEAF968C PUSH1 0x40 MLOAD DUP2 PUSH4 0xFFFFFFFF AND PUSH1 0xE0 SHL DUP2 MSTORE PUSH1 0x4 ADD PUSH1 0xA0 PUSH1 0x40 MLOAD DUP1 DUP4 SUB DUP2 DUP7 GAS STATICCALL ISZERO DUP1 ISZERO PUSH2 0x220 JUMPI RETURNDATASIZE PUSH0 DUP1 RETURNDATACOPY RETURNDATASIZE PUSH0 REVERT JUMPDEST POP POP POP POP PUSH1 0x40 MLOAD RETURNDATASIZE PUSH1 0x1F NOT PUSH1 0x1F DUP3 ADD AND DUP3 ADD DUP1 PUSH1 0x40 MSTORE POP DUP2 ADD SWAP1 PUSH2 0x244 SWAP2 SWAP1 PUSH2 0x612 JUMP JUMPDEST POP POP POP SWAP2 POP POP PUSH5 0x2540BE400 DUP2 PUSH2 0x25B SWAP2 SWAP1 PUSH2 0x689 JUMP JUMPDEST SWAP3 POP POP POP SWAP1 JUMP JUMPDEST PUSH8 0xDE0B6B3A7640000 CALLVALUE LT ISZERO PUSH2 0x2AD JUMPI PUSH1 0x40 MLOAD PUSH32 0x8C379A000000000000000000000000000000000000000000000000000000000 DUP2 MSTORE PUSH1 0x4 ADD PUSH2 0x2A4 SWAP1 PUSH2 0x77F JUMP JUMPDEST PUSH1 0x40 MLOAD DUP1 SWAP2 SUB SWAP1 REVERT JUMPDEST PUSH0 CALLER SWAP1 DUP1 PUSH1 0x1 DUP2 SLOAD ADD DUP1 DUP3 SSTORE DUP1 SWAP2 POP POP PUSH1 0x1 SWAP1 SUB SWAP1 PUSH0 MSTORE PUSH1 0x20 PUSH0 KECCAK256 ADD PUSH0 SWAP1 SWAP2 SWAP1 SWAP2 SWAP1 SWAP2 PUSH2 0x100 EXP DUP2 SLOAD DUP2 PUSH20 0xFFFFFFFFFFFFFFFFFFFFFFFFFFFFFFFFFFFFFFFF MUL NOT AND SWAP1 DUP4 PUSH20 0xFFFFFFFFFFFFFFFFFFFFFFFFFFFFFFFFFFFFFFFF AND MUL OR SWAP1 SSTORE POP CALLVALUE PUSH1 0x1 PUSH0 CALLER PUSH20 0xFFFFFFFFFFFFFFFFFFFFFFFFFFFFFFFFFFFFFFFF AND PUSH20 0xFFFFFFFFFFFFFFFFFFFFFFFFFFFFFFFFFFFFFFFF AND DUP2 MSTORE PUSH1 0x20 ADD SWAP1 DUP2 MSTORE PUSH1 0x20 ADD PUSH0 KECCAK256 DUP2 SWAP1 SSTORE POP JUMP JUMPDEST PUSH0 DUP2 DUP2 SLOAD DUP2 LT PUSH2 0x35E JUMPI PUSH0 DUP1 REVERT JUMPDEST SWAP1 PUSH0 MSTORE PUSH1 0x20 PUSH0 KECCAK256 ADD PUSH0 SWAP2 POP SLOAD SWAP1 PUSH2 0x100 EXP SWAP1 DIV PUSH20 0xFFFFFFFFFFFFFFFFFFFFFFFFFFFFFFFFFFFFFFFF AND DUP2 JUMP JUMPDEST PUSH0 DUP2 SWAP1 POP SWAP2 SWAP1 POP JUMP JUMPDEST PUSH2 0x39C DUP2 PUSH2 0x38A JUMP JUMPDEST DUP3 MSTORE POP POP JUMP JUMPDEST PUSH0 PUSH1 0x20 DUP3 ADD SWAP1 POP PUSH2 0x3B5 PUSH0 DUP4 ADD DUP5 PUSH2 0x393 JUMP JUMPDEST SWAP3 SWAP2 POP POP JUMP JUMPDEST PUSH0 DUP1 REVERT JUMPDEST PUSH0 PUSH20 0xFFFFFFFFFFFFFFFFFFFFFFFFFFFFFFFFFFFFFFFF DUP3 AND SWAP1 POP SWAP2 SWAP1 POP JUMP JUMPDEST PUSH0 PUSH2 0x3E8 DUP3 PUSH2 0x3BF JUMP JUMPDEST SWAP1 POP SWAP2 SWAP1 POP JUMP JUMPDEST PUSH2 0x3F8 DUP2 PUSH2 0x3DE JUMP JUMPDEST DUP2 EQ PUSH2 0x402 JUMPI PUSH0 DUP1 REVERT JUMPDEST POP JUMP JUMPDEST PUSH0 DUP2 CALLDATALOAD SWAP1 POP PUSH2 0x413 DUP2 PUSH2 0x3EF JUMP JUMPDEST SWAP3 SWAP2 POP POP JUMP JUMPDEST PUSH0 PUSH1 0x20 DUP3 DUP5 SUB SLT ISZERO PUSH2 0x42E JUMPI PUSH2 0x42D PUSH2 0x3BB JUMP JUMPDEST JUMPDEST PUSH0 PUSH2 0x43B DUP5 DUP3 DUP6 ADD PUSH2 0x405 JUMP JUMPDEST SWAP2 POP POP SWAP3 SWAP2 POP POP JUMP JUMPDEST PUSH2 0x44D DUP2 PUSH2 0x38A JUMP JUMPDEST DUP2 EQ PUSH2 0x457 JUMPI PUSH0 DUP1 REVERT JUMPDEST POP JUMP JUMPDEST PUSH0 DUP2 CALLDATALOAD SWAP1 POP PUSH2 0x468 DUP2 PUSH2 0x444 JUMP JUMPDEST SWAP3 SWAP2 POP POP JUMP JUMPDEST PUSH0 PUSH1 0x20 DUP3 DUP5 SUB SLT ISZERO PUSH2 0x483 JUMPI PUSH2 0x482 PUSH2 0x3BB JUMP JUMPDEST JUMPDEST PUSH0 PUSH2 0x490 DUP5 DUP3 DUP6 ADD PUSH2 0x45A JUMP JUMPDEST SWAP2 POP POP SWAP3 SWAP2 POP POP JUMP JUMPDEST PUSH2 0x4A2 DUP2 PUSH2 0x3DE JUMP JUMPDEST DUP3 MSTORE POP POP JUMP JUMPDEST PUSH0 PUSH1 0x20 DUP3 ADD SWAP1 POP PUSH2 0x4BB PUSH0 DUP4 ADD DUP5 PUSH2 0x499 JUMP JUMPDEST SWAP3 SWAP2 POP POP JUMP JUMPDEST PUSH32 0x4E487B7100000000000000000000000000000000000000000000000000000000 PUSH0 MSTORE PUSH1 0x11 PUSH1 0x4 MSTORE PUSH1 0x24 PUSH0 REVERT JUMPDEST PUSH0 PUSH2 0x4F8 DUP3 PUSH2 0x38A JUMP JUMPDEST SWAP2 POP PUSH2 0x503 DUP4 PUSH2 0x38A JUMP JUMPDEST SWAP3 POP DUP3 DUP3 MUL PUSH2 0x511 DUP2 PUSH2 0x38A JUMP JUMPDEST SWAP2 POP DUP3 DUP3 DIV DUP5 EQ DUP4 ISZERO OR PUSH2 0x528 JUMPI PUSH2 0x527 PUSH2 0x4C1 JUMP JUMPDEST JUMPDEST POP SWAP3 SWAP2 POP POP JUMP JUMPDEST PUSH32 0x4E487B7100000000000000000000000000000000000000000000000000000000 PUSH0 MSTORE PUSH1 0x12 PUSH1 0x4 MSTORE PUSH1 0x24 PUSH0 REVERT JUMPDEST PUSH0 PUSH2 0x566 DUP3 PUSH2 0x38A JUMP JUMPDEST SWAP2 POP PUSH2 0x571 DUP4 PUSH2 0x38A JUMP JUMPDEST SWAP3 POP DUP3 PUSH2 0x581 JUMPI PUSH2 0x580 PUSH2 0x52F JUMP JUMPDEST JUMPDEST DUP3 DUP3 DIV SWAP1 POP SWAP3 SWAP2 POP POP JUMP JUMPDEST PUSH0 PUSH10 0xFFFFFFFFFFFFFFFFFFFF DUP3 AND SWAP1 POP SWAP2 SWAP1 POP JUMP JUMPDEST PUSH2 0x5AA DUP2 PUSH2 0x58C JUMP JUMPDEST DUP2 EQ PUSH2 0x5B4 JUMPI PUSH0 DUP1 REVERT JUMPDEST POP JUMP JUMPDEST PUSH0 DUP2 MLOAD SWAP1 POP PUSH2 0x5C5 DUP2 PUSH2 0x5A1 JUMP JUMPDEST SWAP3 SWAP2 POP POP JUMP JUMPDEST PUSH0 DUP2 SWAP1 POP SWAP2 SWAP1 POP JUMP JUMPDEST PUSH2 0x5DD DUP2 PUSH2 0x5CB JUMP JUMPDEST DUP2 EQ PUSH2 0x5E7 JUMPI PUSH0 DUP1 REVERT JUMPDEST POP JUMP JUMPDEST PUSH0 DUP2 MLOAD SWAP1 POP PUSH2 0x5F8 DUP2 PUSH2 0x5D4 JUMP JUMPDEST SWAP3 SWAP2 POP POP JUMP JUMPDEST PUSH0 DUP2 MLOAD SWAP1 POP PUSH2 0x60C DUP2 PUSH2 0x444 JUMP JUMPDEST SWAP3 SWAP2 POP POP JUMP JUMPDEST PUSH0 DUP1 PUSH0 DUP1 PUSH0 PUSH1 0xA0 DUP7 DUP9 SUB SLT ISZERO PUSH2 0x62B JUMPI PUSH2 0x62A PUSH2 0x3BB JUMP JUMPDEST JUMPDEST PUSH0 PUSH2 0x638 DUP9 DUP3 DUP10 ADD PUSH2 0x5B7 JUMP JUMPDEST SWAP6 POP POP PUSH1 0x20 PUSH2 0x649 DUP9 DUP3 DUP10 ADD PUSH2 0x5EA JUMP JUMPDEST SWAP5 POP POP PUSH1 0x40 PUSH2 0x65A DUP9 DUP3 DUP10 ADD PUSH2 0x5FE JUMP JUMPDEST SWAP4 POP POP PUSH1 0x60 PUSH2 0x66B DUP9 DUP3 DUP10 ADD PUSH2 0x5FE JUMP JUMPDEST SWAP3 POP POP PUSH1 0x80 PUSH2 0x67C DUP9 DUP3 DUP10 ADD PUSH2 0x5B7 JUMP JUMPDEST SWAP2 POP POP SWAP3 SWAP6 POP SWAP3 SWAP6 SWAP1 SWAP4 POP JUMP JUMPDEST PUSH0 PUSH2 0x693 DUP3 PUSH2 0x5CB JUMP JUMPDEST SWAP2 POP PUSH2 0x69E DUP4 PUSH2 0x5CB JUMP JUMPDEST SWAP3 POP DUP3 DUP3 MUL PUSH2 0x6AC DUP2 PUSH2 0x5CB JUMP JUMPDEST SWAP2 POP PUSH32 0x8000000000000000000000000000000000000000000000000000000000000000 DUP5 EQ PUSH0 DUP5 SLT AND ISZERO PUSH2 0x6E3 JUMPI PUSH2 0x6E2 PUSH2 0x4C1 JUMP JUMPDEST JUMPDEST DUP3 DUP3 SDIV DUP5 EQ DUP4 ISZERO OR PUSH2 0x6F8 JUMPI PUSH2 0x6F7 PUSH2 0x4C1 JUMP JUMPDEST JUMPDEST POP SWAP3 SWAP2 POP POP JUMP JUMPDEST PUSH0 DUP3 DUP3 MSTORE PUSH1 0x20 DUP3 ADD SWAP1 POP SWAP3 SWAP2 POP POP JUMP JUMPDEST PUSH32 0x4D6161662C206E696C61692079616E6720616E646120696E707574206B757261 PUSH0 DUP3 ADD MSTORE PUSH32 0x6E67000000000000000000000000000000000000000000000000000000000000 PUSH1 0x20 DUP3 ADD MSTORE POP JUMP JUMPDEST PUSH0 PUSH2 0x769 PUSH1 0x22 DUP4 PUSH2 0x6FF JUMP JUMPDEST SWAP2 POP PUSH2 0x774 DUP3 PUSH2 0x70F JUMP JUMPDEST PUSH1 0x40 DUP3 ADD SWAP1 POP SWAP2 SWAP1 POP JUMP JUMPDEST PUSH0 PUSH1 0x20 DUP3 ADD SWAP1 POP DUP2 DUP2 SUB PUSH0 DUP4 ADD MSTORE PUSH2 0x796 DUP2 PUSH2 0x75D JUMP JUMPDEST SWAP1 POP SWAP2 SWAP1 POP JUMP INVALID LOG2 PUSH5 0x6970667358 0x22 SLT KECCAK256 0xCB SWAP6 PUSH15 0x27CC619B33BD590FB5129086A6971B 0xAB ADDMOD 0xE8 0xC6 0xB2 EXTCODEHASH JUMPI SWAP14 SMOD RETURNDATACOPY 0xBC CODESIZE PUSH11 0x7764736F6C634300081A00 CALLER "
				},
				"gasEstimates": {
					"creation": {
						"codeDepositCost": "400600",
						"executionCost": "22540",
						"totalCost": "423140"
					},
					"external": {
						"addressToAmountFunded(address)": "2802",
						"fund()": "70984",
						"funders(uint256)": "5031",
						"getConversionRate(uint256)": "infinite",
						"getPrice()": "infinite",
						"minimumUsd()": "2403"
					}
				},
				"methodIdentifiers": {
					"addressToAmountFunded(address)": "3e47d6f3",
					"fund()": "b60d4288",
					"funders(uint256)": "dc0d3dff",
					"getConversionRate(uint256)": "6e5b6b28",
					"getPrice()": "98d5fdca",
					"minimumUsd()": "098de820"
				}
			},
			"storageLayout": {
				"storage": [
					{
						"astId": 51,
						"contract": "contracts/FundMe.sol:FundMe",
						"label": "funders",
						"offset": 0,
						"slot": "0",
						"type": "t_array(t_address)dyn_storage"
					},
					{
						"astId": 55,
						"contract": "contracts/FundMe.sol:FundMe",
						"label": "addressToAmountFunded",
						"offset": 0,
						"slot": "1",
						"type": "t_mapping(t_address,t_uint256)"
					},
					{
						"astId": 60,
						"contract": "contracts/FundMe.sol:FundMe",
						"label": "minimumUsd",
						"offset": 0,
						"slot": "2",
						"type": "t_uint256"
					}
				],
				"types": {
					"t_address": {
						"encoding": "inplace",
						"label": "address",
						"numberOfBytes": "20"
					},
					"t_array(t_address)dyn_storage": {
						"base": "t_address",
						"encoding": "dynamic_array",
						"label": "address[]",
						"numberOfBytes": "32"
					},
					"t_mapping(t_address,t_uint256)": {
						"encoding": "mapping",
						"key": "t_address",
						"label": "mapping(address => uint256)",
						"numberOfBytes": "32",
						"value": "t_uint256"
					},
					"t_uint256": {
						"encoding": "inplace",
						"label": "uint256",
						"numberOfBytes": "32"
					}
				}
			},
			"userdoc": {
				"kind": "user",
				"methods": {},
				"version": 1
			}
		}
	}
}