{
	"contracts/DataStore2.sol": {
		"DataStore2": {
			"abi": [
				{
					"inputs": [],
					"name": "doSomething",
					"outputs": [
						{
							"internalType": "string",
							"name": "",
							"type": "string"
						}
					],
					"stateMutability": "pure",
					"type": "function"
				},
				{
					"inputs": [],
					"name": "getData",
					"outputs": [
						{
							"internalType": "uint256",
							"name": "",
							"type": "uint256"
						}
					],
					"stateMutability": "view",
					"type": "function"
				},
				{
					"inputs": [],
					"name": "readData",
					"outputs": [
						{
							"internalType": "uint256",
							"name": "",
							"type": "uint256"
						}
					],
					"stateMutability": "view",
					"type": "function"
				},
				{
					"inputs": [
						{
							"internalType": "uint256",
							"name": "_data",
							"type": "uint256"
						}
					],
					"name": "storeData",
					"outputs": [],
					"stateMutability": "nonpayable",
					"type": "function"
				}
			],
			"devdoc": {
				"kind": "dev",
				"methods": {},
				"version": 1
			},
			"evm": {
				"assembly": "    /* \"contracts/DataStore2.sol\":139:545  contract DataStore2 is DataStore1 {... */\n  mstore(0x40, 0x80)\n  callvalue\n  dup1\n  iszero\n  tag_1\n  jumpi\n  0x00\n  dup1\n  revert\ntag_1:\n  pop\n  dataSize(sub_0)\n  dup1\n  dataOffset(sub_0)\n  0x00\n  codecopy\n  0x00\n  return\nstop\n\nsub_0: assembly {\n        /* \"contracts/DataStore2.sol\":139:545  contract DataStore2 is DataStore1 {... */\n      mstore(0x40, 0x80)\n      callvalue\n      dup1\n      iszero\n      tag_1\n      jumpi\n      0x00\n      dup1\n      revert\n    tag_1:\n      pop\n      jumpi(tag_2, lt(calldatasize, 0x04))\n      shr(0xe0, calldataload(0x00))\n      dup1\n      0x16b95176\n      eq\n      tag_3\n      jumpi\n      dup1\n      0x3bc5de30\n      eq\n      tag_4\n      jumpi\n      dup1\n      0x82692679\n      eq\n      tag_5\n      jumpi\n      dup1\n      0xbef55ef3\n      eq\n      tag_6\n      jumpi\n    tag_2:\n      0x00\n      dup1\n      revert\n        /* \"contracts/DataStore1.sol\":216:288  function storeData(uint256 _data) public {... */\n    tag_3:\n      tag_7\n      0x04\n      dup1\n      calldatasize\n      sub\n      dup2\n      add\n      swap1\n      tag_8\n      swap2\n      swap1\n      tag_9\n      jump\t// in\n    tag_8:\n      tag_10\n      jump\t// in\n    tag_7:\n      stop\n        /* \"contracts/DataStore1.sol\":346:425  function getData() public view returns (uint256) {... */\n    tag_4:\n      tag_11\n      tag_12\n      jump\t// in\n    tag_11:\n      mload(0x40)\n      tag_13\n      swap2\n      swap1\n      tag_14\n      jump\t// in\n    tag_13:\n      mload(0x40)\n      dup1\n      swap2\n      sub\n      swap1\n      return\n        /* \"contracts/DataStore2.sol\":407:542  function doSomething() public override pure returns (string memory) {... */\n    tag_5:\n      tag_15\n      tag_16\n      jump\t// in\n    tag_15:\n      mload(0x40)\n      tag_17\n      swap2\n      swap1\n      tag_18\n      jump\t// in\n    tag_17:\n      mload(0x40)\n      dup1\n      swap2\n      sub\n      swap1\n      return\n        /* \"contracts/DataStore2.sol\":241:363  function readData() public view returns (uint256) {... */\n    tag_6:\n      tag_19\n      tag_20\n      jump\t// in\n    tag_19:\n      mload(0x40)\n      tag_21\n      swap2\n      swap1\n      tag_14\n      jump\t// in\n    tag_21:\n      mload(0x40)\n      dup1\n      swap2\n      sub\n      swap1\n      return\n        /* \"contracts/DataStore1.sol\":216:288  function storeData(uint256 _data) public {... */\n    tag_10:\n        /* \"contracts/DataStore1.sol\":275:280  _data */\n      dup1\n        /* \"contracts/DataStore1.sol\":268:272  data */\n      0x00\n        /* \"contracts/DataStore1.sol\":268:280  data = _data */\n      dup2\n      swap1\n      sstore\n      pop\n        /* \"contracts/DataStore1.sol\":216:288  function storeData(uint256 _data) public {... */\n      pop\n      jump\t// out\n        /* \"contracts/DataStore1.sol\":346:425  function getData() public view returns (uint256) {... */\n    tag_12:\n        /* \"contracts/DataStore1.sol\":386:393  uint256 */\n      0x00\n        /* \"contracts/DataStore1.sol\":413:417  data */\n      dup1\n      sload\n        /* \"contracts/DataStore1.sol\":406:417  return data */\n      swap1\n      pop\n        /* \"contracts/DataStore1.sol\":346:425  function getData() public view returns (uint256) {... */\n      swap1\n      jump\t// out\n        /* \"contracts/DataStore2.sol\":407:542  function doSomething() public override pure returns (string memory) {... */\n    tag_16:\n        /* \"contracts/DataStore2.sol\":460:473  string memory */\n      0x60\n        /* \"contracts/DataStore2.sol\":486:534  return \"Doing something different in DataStore2\" */\n      mload(0x40)\n      dup1\n      0x60\n      add\n      0x40\n      mstore\n      dup1\n      0x27\n      dup2\n      mstore\n      0x20\n      add\n      data_01d7ac7b051ebe9256c13f5dff374b2dda9e76d230806d81efdb958d4e8db25e\n      0x27\n      swap2\n      codecopy\n      swap1\n      pop\n        /* \"contracts/DataStore2.sol\":407:542  function doSomething() public override pure returns (string memory) {... */\n      swap1\n      jump\t// out\n        /* \"contracts/DataStore2.sol\":241:363  function readData() public view returns (uint256) {... */\n    tag_20:\n        /* \"contracts/DataStore2.sol\":282:289  uint256 */\n      0x00\n        /* \"contracts/DataStore2.sol\":309:318  getData() */\n      tag_26\n        /* \"contracts/DataStore2.sol\":309:316  getData */\n      tag_12\n        /* \"contracts/DataStore2.sol\":309:318  getData() */\n      jump\t// in\n    tag_26:\n        /* \"contracts/DataStore2.sol\":302:318  return getData() */\n      swap1\n      pop\n        /* \"contracts/DataStore2.sol\":241:363  function readData() public view returns (uint256) {... */\n      swap1\n      jump\t// out\n        /* \"#utility.yul\":88:205   */\n    tag_28:\n        /* \"#utility.yul\":197:198   */\n      0x00\n        /* \"#utility.yul\":194:195   */\n      dup1\n        /* \"#utility.yul\":187:199   */\n      revert\n        /* \"#utility.yul\":334:411   */\n    tag_30:\n        /* \"#utility.yul\":371:378   */\n      0x00\n        /* \"#utility.yul\":400:405   */\n      dup2\n        /* \"#utility.yul\":389:405   */\n      swap1\n      pop\n        /* \"#utility.yul\":334:411   */\n      swap2\n      swap1\n      pop\n      jump\t// out\n        /* \"#utility.yul\":417:539   */\n    tag_31:\n        /* \"#utility.yul\":490:514   */\n      tag_45\n        /* \"#utility.yul\":508:513   */\n      dup2\n        /* \"#utility.yul\":490:514   */\n      tag_30\n      jump\t// in\n    tag_45:\n        /* \"#utility.yul\":483:488   */\n      dup2\n        /* \"#utility.yul\":480:515   */\n      eq\n        /* \"#utility.yul\":470:533   */\n      tag_46\n      jumpi\n        /* \"#utility.yul\":529:530   */\n      0x00\n        /* \"#utility.yul\":526:527   */\n      dup1\n        /* \"#utility.yul\":519:531   */\n      revert\n        /* \"#utility.yul\":470:533   */\n    tag_46:\n        /* \"#utility.yul\":417:539   */\n      pop\n      jump\t// out\n        /* \"#utility.yul\":545:684   */\n    tag_32:\n        /* \"#utility.yul\":591:596   */\n      0x00\n        /* \"#utility.yul\":629:635   */\n      dup2\n        /* \"#utility.yul\":616:636   */\n      calldataload\n        /* \"#utility.yul\":607:636   */\n      swap1\n      pop\n        /* \"#utility.yul\":645:678   */\n      tag_48\n        /* \"#utility.yul\":672:677   */\n      dup2\n        /* \"#utility.yul\":645:678   */\n      tag_31\n      jump\t// in\n    tag_48:\n        /* \"#utility.yul\":545:684   */\n      swap3\n      swap2\n      pop\n      pop\n      jump\t// out\n        /* \"#utility.yul\":690:1019   */\n    tag_9:\n        /* \"#utility.yul\":749:755   */\n      0x00\n        /* \"#utility.yul\":798:800   */\n      0x20\n        /* \"#utility.yul\":786:795   */\n      dup3\n        /* \"#utility.yul\":777:784   */\n      dup5\n        /* \"#utility.yul\":773:796   */\n      sub\n        /* \"#utility.yul\":769:801   */\n      slt\n        /* \"#utility.yul\":766:885   */\n      iszero\n      tag_50\n      jumpi\n        /* \"#utility.yul\":804:883   */\n      tag_51\n      tag_28\n      jump\t// in\n    tag_51:\n        /* \"#utility.yul\":766:885   */\n    tag_50:\n        /* \"#utility.yul\":924:925   */\n      0x00\n        /* \"#utility.yul\":949:1002   */\n      tag_52\n        /* \"#utility.yul\":994:1001   */\n      dup5\n        /* \"#utility.yul\":985:991   */\n      dup3\n        /* \"#utility.yul\":974:983   */\n      dup6\n        /* \"#utility.yul\":970:992   */\n      add\n        /* \"#utility.yul\":949:1002   */\n      tag_32\n      jump\t// in\n    tag_52:\n        /* \"#utility.yul\":939:1002   */\n      swap2\n      pop\n        /* \"#utility.yul\":895:1012   */\n      pop\n        /* \"#utility.yul\":690:1019   */\n      swap3\n      swap2\n      pop\n      pop\n      jump\t// out\n        /* \"#utility.yul\":1025:1143   */\n    tag_33:\n        /* \"#utility.yul\":1112:1136   */\n      tag_54\n        /* \"#utility.yul\":1130:1135   */\n      dup2\n        /* \"#utility.yul\":1112:1136   */\n      tag_30\n      jump\t// in\n    tag_54:\n        /* \"#utility.yul\":1107:1110   */\n      dup3\n        /* \"#utility.yul\":1100:1137   */\n      mstore\n        /* \"#utility.yul\":1025:1143   */\n      pop\n      pop\n      jump\t// out\n        /* \"#utility.yul\":1149:1371   */\n    tag_14:\n        /* \"#utility.yul\":1242:1246   */\n      0x00\n        /* \"#utility.yul\":1280:1282   */\n      0x20\n        /* \"#utility.yul\":1269:1278   */\n      dup3\n        /* \"#utility.yul\":1265:1283   */\n      add\n        /* \"#utility.yul\":1257:1283   */\n      swap1\n      pop\n        /* \"#utility.yul\":1293:1364   */\n      tag_56\n        /* \"#utility.yul\":1361:1362   */\n      0x00\n        /* \"#utility.yul\":1350:1359   */\n      dup4\n        /* \"#utility.yul\":1346:1363   */\n      add\n        /* \"#utility.yul\":1337:1343   */\n      dup5\n        /* \"#utility.yul\":1293:1364   */\n      tag_33\n      jump\t// in\n    tag_56:\n        /* \"#utility.yul\":1149:1371   */\n      swap3\n      swap2\n      pop\n      pop\n      jump\t// out\n        /* \"#utility.yul\":1377:1476   */\n    tag_34:\n        /* \"#utility.yul\":1429:1435   */\n      0x00\n        /* \"#utility.yul\":1463:1468   */\n      dup2\n        /* \"#utility.yul\":1457:1469   */\n      mload\n        /* \"#utility.yul\":1447:1469   */\n      swap1\n      pop\n        /* \"#utility.yul\":1377:1476   */\n      swap2\n      swap1\n      pop\n      jump\t// out\n        /* \"#utility.yul\":1482:1651   */\n    tag_35:\n        /* \"#utility.yul\":1566:1577   */\n      0x00\n        /* \"#utility.yul\":1600:1606   */\n      dup3\n        /* \"#utility.yul\":1595:1598   */\n      dup3\n        /* \"#utility.yul\":1588:1607   */\n      mstore\n        /* \"#utility.yul\":1640:1644   */\n      0x20\n        /* \"#utility.yul\":1635:1638   */\n      dup3\n        /* \"#utility.yul\":1631:1645   */\n      add\n        /* \"#utility.yul\":1616:1645   */\n      swap1\n      pop\n        /* \"#utility.yul\":1482:1651   */\n      swap3\n      swap2\n      pop\n      pop\n      jump\t// out\n        /* \"#utility.yul\":1657:1796   */\n    tag_36:\n        /* \"#utility.yul\":1746:1752   */\n      dup3\n        /* \"#utility.yul\":1741:1744   */\n      dup2\n        /* \"#utility.yul\":1736:1739   */\n      dup4\n        /* \"#utility.yul\":1730:1753   */\n      mcopy\n        /* \"#utility.yul\":1787:1788   */\n      0x00\n        /* \"#utility.yul\":1778:1784   */\n      dup4\n        /* \"#utility.yul\":1773:1776   */\n      dup4\n        /* \"#utility.yul\":1769:1785   */\n      add\n        /* \"#utility.yul\":1762:1789   */\n      mstore\n        /* \"#utility.yul\":1657:1796   */\n      pop\n      pop\n      pop\n      jump\t// out\n        /* \"#utility.yul\":1802:1904   */\n    tag_37:\n        /* \"#utility.yul\":1843:1849   */\n      0x00\n        /* \"#utility.yul\":1894:1896   */\n      0x1f\n        /* \"#utility.yul\":1890:1897   */\n      not\n        /* \"#utility.yul\":1885:1887   */\n      0x1f\n        /* \"#utility.yul\":1878:1883   */\n      dup4\n        /* \"#utility.yul\":1874:1888   */\n      add\n        /* \"#utility.yul\":1870:1898   */\n      and\n        /* \"#utility.yul\":1860:1898   */\n      swap1\n      pop\n        /* \"#utility.yul\":1802:1904   */\n      swap2\n      swap1\n      pop\n      jump\t// out\n        /* \"#utility.yul\":1910:2287   */\n    tag_38:\n        /* \"#utility.yul\":1998:2001   */\n      0x00\n        /* \"#utility.yul\":2026:2065   */\n      tag_62\n        /* \"#utility.yul\":2059:2064   */\n      dup3\n        /* \"#utility.yul\":2026:2065   */\n      tag_34\n      jump\t// in\n    tag_62:\n        /* \"#utility.yul\":2081:2152   */\n      tag_63\n        /* \"#utility.yul\":2145:2151   */\n      dup2\n        /* \"#utility.yul\":2140:2143   */\n      dup6\n        /* \"#utility.yul\":2081:2152   */\n      tag_35\n      jump\t// in\n    tag_63:\n        /* \"#utility.yul\":2074:2152   */\n      swap4\n      pop\n        /* \"#utility.yul\":2161:2226   */\n      tag_64\n        /* \"#utility.yul\":2219:2225   */\n      dup2\n        /* \"#utility.yul\":2214:2217   */\n      dup6\n        /* \"#utility.yul\":2207:2211   */\n      0x20\n        /* \"#utility.yul\":2200:2205   */\n      dup7\n        /* \"#utility.yul\":2196:2212   */\n      add\n        /* \"#utility.yul\":2161:2226   */\n      tag_36\n      jump\t// in\n    tag_64:\n        /* \"#utility.yul\":2251:2280   */\n      tag_65\n        /* \"#utility.yul\":2273:2279   */\n      dup2\n        /* \"#utility.yul\":2251:2280   */\n      tag_37\n      jump\t// in\n    tag_65:\n        /* \"#utility.yul\":2246:2249   */\n      dup5\n        /* \"#utility.yul\":2242:2281   */\n      add\n        /* \"#utility.yul\":2235:2281   */\n      swap2\n      pop\n        /* \"#utility.yul\":2002:2287   */\n      pop\n        /* \"#utility.yul\":1910:2287   */\n      swap3\n      swap2\n      pop\n      pop\n      jump\t// out\n        /* \"#utility.yul\":2293:2606   */\n    tag_18:\n        /* \"#utility.yul\":2406:2410   */\n      0x00\n        /* \"#utility.yul\":2444:2446   */\n      0x20\n        /* \"#utility.yul\":2433:2442   */\n      dup3\n        /* \"#utility.yul\":2429:2447   */\n      add\n        /* \"#utility.yul\":2421:2447   */\n      swap1\n      pop\n        /* \"#utility.yul\":2493:2502   */\n      dup2\n        /* \"#utility.yul\":2487:2491   */\n      dup2\n        /* \"#utility.yul\":2483:2503   */\n      sub\n        /* \"#utility.yul\":2479:2480   */\n      0x00\n        /* \"#utility.yul\":2468:2477   */\n      dup4\n        /* \"#utility.yul\":2464:2481   */\n      add\n        /* \"#utility.yul\":2457:2504   */\n      mstore\n        /* \"#utility.yul\":2521:2599   */\n      tag_67\n        /* \"#utility.yul\":2594:2598   */\n      dup2\n        /* \"#utility.yul\":2585:2591   */\n      dup5\n        /* \"#utility.yul\":2521:2599   */\n      tag_38\n      jump\t// in\n    tag_67:\n        /* \"#utility.yul\":2513:2599   */\n      swap1\n      pop\n        /* \"#utility.yul\":2293:2606   */\n      swap3\n      swap2\n      pop\n      pop\n      jump\t// out\n    stop\n    data_01d7ac7b051ebe9256c13f5dff374b2dda9e76d230806d81efdb958d4e8db25e 446f696e6720736f6d657468696e6720646966666572656e7420696e204461746153746f726532\n\n    auxdata: 0xa2646970667358221220f43309c7f53c14af6e0c6b0938c59cc814d7eb2f0a6ba2247d4b549f1ca0760e64736f6c634300081a0033\n}\n",
				"bytecode": {
					"linkReferences": {},
					"object": "6080604052348015600e575f80fd5b5061027a8061001c5f395ff3fe608060405234801561000f575f80fd5b506004361061004a575f3560e01c806316b951761461004e5780633bc5de301461006a5780638269267914610088578063bef55ef3146100a6575b5f80fd5b6100686004803603810190610063919061013a565b6100c4565b005b6100726100cd565b60405161007f9190610174565b60405180910390f35b6100906100d5565b60405161009d91906101fd565b60405180910390f35b6100ae6100f5565b6040516100bb9190610174565b60405180910390f35b805f8190555050565b5f8054905090565b606060405180606001604052806027815260200161021e60279139905090565b5f6100fe6100cd565b905090565b5f80fd5b5f819050919050565b61011981610107565b8114610123575f80fd5b50565b5f8135905061013481610110565b92915050565b5f6020828403121561014f5761014e610103565b5b5f61015c84828501610126565b91505092915050565b61016e81610107565b82525050565b5f6020820190506101875f830184610165565b92915050565b5f81519050919050565b5f82825260208201905092915050565b8281835e5f83830152505050565b5f601f19601f8301169050919050565b5f6101cf8261018d565b6101d98185610197565b93506101e98185602086016101a7565b6101f2816101b5565b840191505092915050565b5f6020820190508181035f83015261021581846101c5565b90509291505056fe446f696e6720736f6d657468696e6720646966666572656e7420696e204461746153746f726532a2646970667358221220f43309c7f53c14af6e0c6b0938c59cc814d7eb2f0a6ba2247d4b549f1ca0760e64736f6c634300081a0033",
					"opcodes": "PUSH1 0x80 PUSH1 0x40 MSTORE CALLVALUE DUP1 ISZERO PUSH1 0xE JUMPI PUSH0 DUP1 REVERT JUMPDEST POP PUSH2 0x27A DUP1 PUSH2 0x1C PUSH0 CODECOPY PUSH0 RETURN INVALID PUSH1 0x80 PUSH1 0x40 MSTORE CALLVALUE DUP1 ISZERO PUSH2 0xF JUMPI PUSH0 DUP1 REVERT JUMPDEST POP PUSH1 0x4 CALLDATASIZE LT PUSH2 0x4A JUMPI PUSH0 CALLDATALOAD PUSH1 0xE0 SHR DUP1 PUSH4 0x16B95176 EQ PUSH2 0x4E JUMPI DUP1 PUSH4 0x3BC5DE30 EQ PUSH2 0x6A JUMPI DUP1 PUSH4 0x82692679 EQ PUSH2 0x88 JUMPI DUP1 PUSH4 0xBEF55EF3 EQ PUSH2 0xA6 JUMPI JUMPDEST PUSH0 DUP1 REVERT JUMPDEST PUSH2 0x68 PUSH1 0x4 DUP1 CALLDATASIZE SUB DUP2 ADD SWAP1 PUSH2 0x63 SWAP2 SWAP1 PUSH2 0x13A JUMP JUMPDEST PUSH2 0xC4 JUMP JUMPDEST STOP JUMPDEST PUSH2 0x72 PUSH2 0xCD JUMP JUMPDEST PUSH1 0x40 MLOAD PUSH2 0x7F SWAP2 SWAP1 PUSH2 0x174 JUMP JUMPDEST PUSH1 0x40 MLOAD DUP1 SWAP2 SUB SWAP1 RETURN JUMPDEST PUSH2 0x90 PUSH2 0xD5 JUMP JUMPDEST PUSH1 0x40 MLOAD PUSH2 0x9D SWAP2 SWAP1 PUSH2 0x1FD JUMP JUMPDEST PUSH1 0x40 MLOAD DUP1 SWAP2 SUB SWAP1 RETURN JUMPDEST PUSH2 0xAE PUSH2 0xF5 JUMP JUMPDEST PUSH1 0x40 MLOAD PUSH2 0xBB SWAP2 SWAP1 PUSH2 0x174 JUMP JUMPDEST PUSH1 0x40 MLOAD DUP1 SWAP2 SUB SWAP1 RETURN JUMPDEST DUP1 PUSH0 DUP2 SWAP1 SSTORE POP POP JUMP JUMPDEST PUSH0 DUP1 SLOAD SWAP1 POP SWAP1 JUMP JUMPDEST PUSH1 0x60 PUSH1 0x40 MLOAD DUP1 PUSH1 0x60 ADD PUSH1 0x40 MSTORE DUP1 PUSH1 0x27 DUP2 MSTORE PUSH1 0x20 ADD PUSH2 0x21E PUSH1 0x27 SWAP2 CODECOPY SWAP1 POP SWAP1 JUMP JUMPDEST PUSH0 PUSH2 0xFE PUSH2 0xCD JUMP JUMPDEST SWAP1 POP SWAP1 JUMP JUMPDEST PUSH0 DUP1 REVERT JUMPDEST PUSH0 DUP2 SWAP1 POP SWAP2 SWAP1 POP JUMP JUMPDEST PUSH2 0x119 DUP2 PUSH2 0x107 JUMP JUMPDEST DUP2 EQ PUSH2 0x123 JUMPI PUSH0 DUP1 REVERT JUMPDEST POP JUMP JUMPDEST PUSH0 DUP2 CALLDATALOAD SWAP1 POP PUSH2 0x134 DUP2 PUSH2 0x110 JUMP JUMPDEST SWAP3 SWAP2 POP POP JUMP JUMPDEST PUSH0 PUSH1 0x20 DUP3 DUP5 SUB SLT ISZERO PUSH2 0x14F JUMPI PUSH2 0x14E PUSH2 0x103 JUMP JUMPDEST JUMPDEST PUSH0 PUSH2 0x15C DUP5 DUP3 DUP6 ADD PUSH2 0x126 JUMP JUMPDEST SWAP2 POP POP SWAP3 SWAP2 POP POP JUMP JUMPDEST PUSH2 0x16E DUP2 PUSH2 0x107 JUMP JUMPDEST DUP3 MSTORE POP POP JUMP JUMPDEST PUSH0 PUSH1 0x20 DUP3 ADD SWAP1 POP PUSH2 0x187 PUSH0 DUP4 ADD DUP5 PUSH2 0x165 JUMP JUMPDEST SWAP3 SWAP2 POP POP JUMP JUMPDEST PUSH0 DUP2 MLOAD SWAP1 POP SWAP2 SWAP1 POP JUMP JUMPDEST PUSH0 DUP3 DUP3 MSTORE PUSH1 0x20 DUP3 ADD SWAP1 POP SWAP3 SWAP2 POP POP JUMP JUMPDEST DUP3 DUP2 DUP4 MCOPY PUSH0 DUP4 DUP4 ADD MSTORE POP POP POP JUMP JUMPDEST PUSH0 PUSH1 0x1F NOT PUSH1 0x1F DUP4 ADD AND SWAP1 POP SWAP2 SWAP1 POP JUMP JUMPDEST PUSH0 PUSH2 0x1CF DUP3 PUSH2 0x18D JUMP JUMPDEST PUSH2 0x1D9 DUP2 DUP6 PUSH2 0x197 JUMP JUMPDEST SWAP4 POP PUSH2 0x1E9 DUP2 DUP6 PUSH1 0x20 DUP7 ADD PUSH2 0x1A7 JUMP JUMPDEST PUSH2 0x1F2 DUP2 PUSH2 0x1B5 JUMP JUMPDEST DUP5 ADD SWAP2 POP POP SWAP3 SWAP2 POP POP JUMP JUMPDEST PUSH0 PUSH1 0x20 DUP3 ADD SWAP1 POP DUP2 DUP2 SUB PUSH0 DUP4 ADD MSTORE PUSH2 0x215 DUP2 DUP5 PUSH2 0x1C5 JUMP JUMPDEST SWAP1 POP SWAP3 SWAP2 POP POP JUMP INVALID PREVRANDAO PUSH16 0x696E6720736F6D657468696E67206469 PUSH7 0x666572656E7420 PUSH10 0x6E204461746153746F72 PUSH6 0x32A264697066 PUSH20 0x58221220F43309C7F53C14AF6E0C6B0938C59CC8 EQ 0xD7 0xEB 0x2F EXP PUSH12 0xA2247D4B549F1CA0760E6473 PUSH16 0x6C634300081A00330000000000000000 "
				},
				"gasEstimates": {
					"creation": {
						"codeDepositCost": "126800",
						"executionCost": "169",
						"totalCost": "126969"
					},
					"external": {
						"doSomething()": "infinite",
						"getData()": "2432",
						"readData()": "2510",
						"storeData(uint256)": "22492"
					}
				},
				"methodIdentifiers": {
					"doSomething()": "82692679",
					"getData()": "3bc5de30",
					"readData()": "bef55ef3",
					"storeData(uint256)": "16b95176"
				}
			},
			"storageLayout": {
				"storage": [
					{
						"astId": 3,
						"contract": "contracts/DataStore2.sol:DataStore2",
						"label": "data",
						"offset": 0,
						"slot": "0",
						"type": "t_uint256"
					}
				],
				"types": {
					"t_uint256": {
						"encoding": "inplace",
						"label": "uint256",
						"numberOfBytes": "32"
					}
				}
			},
			"userdoc": {
				"kind": "user",
				"methods": {},
				"version": 1
			}
		}
	}
}