{
	"contracts/DataStore.sol": {
		"DataStore": {
			"abi": [
				{
					"inputs": [
						{
							"internalType": "uint256",
							"name": "",
							"type": "uint256"
						}
					],
					"name": "arrayPerson",
					"outputs": [
						{
							"internalType": "string",
							"name": "name",
							"type": "string"
						},
						{
							"internalType": "string",
							"name": "homeAddress",
							"type": "string"
						},
						{
							"internalType": "string",
							"name": "birthDate",
							"type": "string"
						},
						{
							"internalType": "string",
							"name": "gender",
							"type": "string"
						}
					],
					"stateMutability": "view",
					"type": "function"
				},
				{
					"inputs": [
						{
							"internalType": "string",
							"name": "name_",
							"type": "string"
						},
						{
							"internalType": "string",
							"name": "homeAddress_",
							"type": "string"
						},
						{
							"internalType": "string",
							"name": "birthDate_",
							"type": "string"
						},
						{
							"internalType": "string",
							"name": "gender_",
							"type": "string"
						}
					],
					"name": "storeData",
					"outputs": [],
					"stateMutability": "nonpayable",
					"type": "function"
				}
			],
			"devdoc": {
				"kind": "dev",
				"methods": {},
				"version": 1
			},
			"evm": {
				"assembly": "    /* \"contracts/DataStore.sol\":60:684  contract DataStore {... */\n  mstore(0x40, 0x80)\n  callvalue\n  dup1\n  iszero\n  tag_1\n  jumpi\n  0x00\n  dup1\n  revert\ntag_1:\n  pop\n  dataSize(sub_0)\n  dup1\n  dataOffset(sub_0)\n  0x00\n  codecopy\n  0x00\n  return\nstop\n\nsub_0: assembly {\n        /* \"contracts/DataStore.sol\":60:684  contract DataStore {... */\n      mstore(0x40, 0x80)\n      callvalue\n      dup1\n      iszero\n      tag_1\n      jumpi\n      0x00\n      dup1\n      revert\n    tag_1:\n      pop\n      jumpi(tag_2, lt(calldatasize, 0x04))\n      shr(0xe0, calldataload(0x00))\n      dup1\n      0x324e0ce5\n      eq\n      tag_3\n      jumpi\n      dup1\n      0x908959ed\n      eq\n      tag_4\n      jumpi\n    tag_2:\n      0x00\n      dup1\n      revert\n        /* \"contracts/DataStore.sol\":346:681  function storeData(... */\n    tag_3:\n      tag_5\n      0x04\n      dup1\n      calldatasize\n      sub\n      dup2\n      add\n      swap1\n      tag_6\n      swap2\n      swap1\n      tag_7\n      jump\t// in\n    tag_6:\n      tag_8\n      jump\t// in\n    tag_5:\n      stop\n        /* \"contracts/DataStore.sol\":270:297  Person[] public arrayPerson */\n    tag_4:\n      tag_9\n      0x04\n      dup1\n      calldatasize\n      sub\n      dup2\n      add\n      swap1\n      tag_10\n      swap2\n      swap1\n      tag_11\n      jump\t// in\n    tag_10:\n      tag_12\n      jump\t// in\n    tag_9:\n      mload(0x40)\n      tag_13\n      swap5\n      swap4\n      swap3\n      swap2\n      swap1\n      tag_14\n      jump\t// in\n    tag_13:\n      mload(0x40)\n      dup1\n      swap2\n      sub\n      swap1\n      return\n        /* \"contracts/DataStore.sol\":346:681  function storeData(... */\n    tag_8:\n        /* \"contracts/DataStore.sol\":607:618  arrayPerson */\n      0x00\n        /* \"contracts/DataStore.sol\":624:672  Person(name_, homeAddress_, birthDate_, gender_) */\n      mload(0x40)\n      dup1\n      0x80\n      add\n      0x40\n      mstore\n      dup1\n        /* \"contracts/DataStore.sol\":631:636  name_ */\n      dup7\n        /* \"contracts/DataStore.sol\":624:672  Person(name_, homeAddress_, birthDate_, gender_) */\n      dup2\n      mstore\n      0x20\n      add\n        /* \"contracts/DataStore.sol\":638:650  homeAddress_ */\n      dup6\n        /* \"contracts/DataStore.sol\":624:672  Person(name_, homeAddress_, birthDate_, gender_) */\n      dup2\n      mstore\n      0x20\n      add\n        /* \"contracts/DataStore.sol\":652:662  birthDate_ */\n      dup5\n        /* \"contracts/DataStore.sol\":624:672  Person(name_, homeAddress_, birthDate_, gender_) */\n      dup2\n      mstore\n      0x20\n      add\n        /* \"contracts/DataStore.sol\":664:671  gender_ */\n      dup4\n        /* \"contracts/DataStore.sol\":624:672  Person(name_, homeAddress_, birthDate_, gender_) */\n      dup2\n      mstore\n      pop\n        /* \"contracts/DataStore.sol\":607:673  arrayPerson.push(Person(name_, homeAddress_, birthDate_, gender_)) */\n      swap1\n      dup1\n      0x01\n      dup2\n      sload\n      add\n      dup1\n      dup3\n      sstore\n      dup1\n      swap2\n      pop\n      pop\n      0x01\n      swap1\n      sub\n      swap1\n      0x00\n      mstore\n      keccak256(0x00, 0x20)\n      swap1\n      0x04\n      mul\n      add\n      0x00\n      swap1\n      swap2\n      swap1\n      swap2\n      swap1\n      swap2\n      pop\n      0x00\n      dup3\n      add\n      mload\n      dup2\n      0x00\n      add\n      swap1\n      dup2\n      tag_17\n      swap2\n      swap1\n      tag_18\n      jump\t// in\n    tag_17:\n      pop\n      0x20\n      dup3\n      add\n      mload\n      dup2\n      0x01\n      add\n      swap1\n      dup2\n      tag_19\n      swap2\n      swap1\n      tag_18\n      jump\t// in\n    tag_19:\n      pop\n      0x40\n      dup3\n      add\n      mload\n      dup2\n      0x02\n      add\n      swap1\n      dup2\n      tag_20\n      swap2\n      swap1\n      tag_18\n      jump\t// in\n    tag_20:\n      pop\n      0x60\n      dup3\n      add\n      mload\n      dup2\n      0x03\n      add\n      swap1\n      dup2\n      tag_21\n      swap2\n      swap1\n      tag_18\n      jump\t// in\n    tag_21:\n      pop\n      pop\n      pop\n        /* \"contracts/DataStore.sol\":346:681  function storeData(... */\n      pop\n      pop\n      pop\n      pop\n      jump\t// out\n        /* \"contracts/DataStore.sol\":270:297  Person[] public arrayPerson */\n    tag_12:\n      0x00\n      dup2\n      dup2\n      sload\n      dup2\n      lt\n      tag_22\n      jumpi\n      0x00\n      dup1\n      revert\n    tag_22:\n      swap1\n      0x00\n      mstore\n      keccak256(0x00, 0x20)\n      swap1\n      0x04\n      mul\n      add\n      0x00\n      swap2\n      pop\n      swap1\n      pop\n      dup1\n      0x00\n      add\n      dup1\n      sload\n      tag_24\n      swap1\n      tag_25\n      jump\t// in\n    tag_24:\n      dup1\n      0x1f\n      add\n      0x20\n      dup1\n      swap2\n      div\n      mul\n      0x20\n      add\n      mload(0x40)\n      swap1\n      dup2\n      add\n      0x40\n      mstore\n      dup1\n      swap3\n      swap2\n      swap1\n      dup2\n      dup2\n      mstore\n      0x20\n      add\n      dup3\n      dup1\n      sload\n      tag_26\n      swap1\n      tag_25\n      jump\t// in\n    tag_26:\n      dup1\n      iszero\n      tag_27\n      jumpi\n      dup1\n      0x1f\n      lt\n      tag_28\n      jumpi\n      0x0100\n      dup1\n      dup4\n      sload\n      div\n      mul\n      dup4\n      mstore\n      swap2\n      0x20\n      add\n      swap2\n      jump(tag_27)\n    tag_28:\n      dup3\n      add\n      swap2\n      swap1\n      0x00\n      mstore\n      keccak256(0x00, 0x20)\n      swap1\n    tag_29:\n      dup2\n      sload\n      dup2\n      mstore\n      swap1\n      0x01\n      add\n      swap1\n      0x20\n      add\n      dup1\n      dup4\n      gt\n      tag_29\n      jumpi\n      dup3\n      swap1\n      sub\n      0x1f\n      and\n      dup3\n      add\n      swap2\n    tag_27:\n      pop\n      pop\n      pop\n      pop\n      pop\n      swap1\n      dup1\n      0x01\n      add\n      dup1\n      sload\n      tag_30\n      swap1\n      tag_25\n      jump\t// in\n    tag_30:\n      dup1\n      0x1f\n      add\n      0x20\n      dup1\n      swap2\n      div\n      mul\n      0x20\n      add\n      mload(0x40)\n      swap1\n      dup2\n      add\n      0x40\n      mstore\n      dup1\n      swap3\n      swap2\n      swap1\n      dup2\n      dup2\n      mstore\n      0x20\n      add\n      dup3\n      dup1\n      sload\n      tag_31\n      swap1\n      tag_25\n      jump\t// in\n    tag_31:\n      dup1\n      iszero\n      tag_32\n      jumpi\n      dup1\n      0x1f\n      lt\n      tag_33\n      jumpi\n      0x0100\n      dup1\n      dup4\n      sload\n      div\n      mul\n      dup4\n      mstore\n      swap2\n      0x20\n      add\n      swap2\n      jump(tag_32)\n    tag_33:\n      dup3\n      add\n      swap2\n      swap1\n      0x00\n      mstore\n      keccak256(0x00, 0x20)\n      swap1\n    tag_34:\n      dup2\n      sload\n      dup2\n      mstore\n      swap1\n      0x01\n      add\n      swap1\n      0x20\n      add\n      dup1\n      dup4\n      gt\n      tag_34\n      jumpi\n      dup3\n      swap1\n      sub\n      0x1f\n      and\n      dup3\n      add\n      swap2\n    tag_32:\n      pop\n      pop\n      pop\n      pop\n      pop\n      swap1\n      dup1\n      0x02\n      add\n      dup1\n      sload\n      tag_35\n      swap1\n      tag_25\n      jump\t// in\n    tag_35:\n      dup1\n      0x1f\n      add\n      0x20\n      dup1\n      swap2\n      div\n      mul\n      0x20\n      add\n      mload(0x40)\n      swap1\n      dup2\n      add\n      0x40\n      mstore\n      dup1\n      swap3\n      swap2\n      swap1\n      dup2\n      dup2\n      mstore\n      0x20\n      add\n      dup3\n      dup1\n      sload\n      tag_36\n      swap1\n      tag_25\n      jump\t// in\n    tag_36:\n      dup1\n      iszero\n      tag_37\n      jumpi\n      dup1\n      0x1f\n      lt\n      tag_38\n      jumpi\n      0x0100\n      dup1\n      dup4\n      sload\n      div\n      mul\n      dup4\n      mstore\n      swap2\n      0x20\n      add\n      swap2\n      jump(tag_37)\n    tag_38:\n      dup3\n      add\n      swap2\n      swap1\n      0x00\n      mstore\n      keccak256(0x00, 0x20)\n      swap1\n    tag_39:\n      dup2\n      sload\n      dup2\n      mstore\n      swap1\n      0x01\n      add\n      swap1\n      0x20\n      add\n      dup1\n      dup4\n      gt\n      tag_39\n      jumpi\n      dup3\n      swap1\n      sub\n      0x1f\n      and\n      dup3\n      add\n      swap2\n    tag_37:\n      pop\n      pop\n      pop\n      pop\n      pop\n      swap1\n      dup1\n      0x03\n      add\n      dup1\n      sload\n      tag_40\n      swap1\n      tag_25\n      jump\t// in\n    tag_40:\n      dup1\n      0x1f\n      add\n      0x20\n      dup1\n      swap2\n      div\n      mul\n      0x20\n      add\n      mload(0x40)\n      swap1\n      dup2\n      add\n      0x40\n      mstore\n      dup1\n      swap3\n      swap2\n      swap1\n      dup2\n      dup2\n      mstore\n      0x20\n      add\n      dup3\n      dup1\n      sload\n      tag_41\n      swap1\n      tag_25\n      jump\t// in\n    tag_41:\n      dup1\n      iszero\n      tag_42\n      jumpi\n      dup1\n      0x1f\n      lt\n      tag_43\n      jumpi\n      0x0100\n      dup1\n      dup4\n      sload\n      div\n      mul\n      dup4\n      mstore\n      swap2\n      0x20\n      add\n      swap2\n      jump(tag_42)\n    tag_43:\n      dup3\n      add\n      swap2\n      swap1\n      0x00\n      mstore\n      keccak256(0x00, 0x20)\n      swap1\n    tag_44:\n      dup2\n      sload\n      dup2\n      mstore\n      swap1\n      0x01\n      add\n      swap1\n      0x20\n      add\n      dup1\n      dup4\n      gt\n      tag_44\n      jumpi\n      dup3\n      swap1\n      sub\n      0x1f\n      and\n      dup3\n      add\n      swap2\n    tag_42:\n      pop\n      pop\n      pop\n      pop\n      pop\n      swap1\n      pop\n      dup5\n      jump\t// out\n        /* \"#utility.yul\":7:82   */\n    tag_45:\n        /* \"#utility.yul\":40:46   */\n      0x00\n        /* \"#utility.yul\":73:75   */\n      0x40\n        /* \"#utility.yul\":67:76   */\n      mload\n        /* \"#utility.yul\":57:76   */\n      swap1\n      pop\n        /* \"#utility.yul\":7:82   */\n      swap1\n      jump\t// out\n        /* \"#utility.yul\":88:205   */\n    tag_46:\n        /* \"#utility.yul\":197:198   */\n      0x00\n        /* \"#utility.yul\":194:195   */\n      dup1\n        /* \"#utility.yul\":187:199   */\n      revert\n        /* \"#utility.yul\":211:328   */\n    tag_47:\n        /* \"#utility.yul\":320:321   */\n      0x00\n        /* \"#utility.yul\":317:318   */\n      dup1\n        /* \"#utility.yul\":310:322   */\n      revert\n        /* \"#utility.yul\":334:451   */\n    tag_48:\n        /* \"#utility.yul\":443:444   */\n      0x00\n        /* \"#utility.yul\":440:441   */\n      dup1\n        /* \"#utility.yul\":433:445   */\n      revert\n        /* \"#utility.yul\":457:574   */\n    tag_49:\n        /* \"#utility.yul\":566:567   */\n      0x00\n        /* \"#utility.yul\":563:564   */\n      dup1\n        /* \"#utility.yul\":556:568   */\n      revert\n        /* \"#utility.yul\":580:682   */\n    tag_50:\n        /* \"#utility.yul\":621:627   */\n      0x00\n        /* \"#utility.yul\":672:674   */\n      0x1f\n        /* \"#utility.yul\":668:675   */\n      not\n        /* \"#utility.yul\":663:665   */\n      0x1f\n        /* \"#utility.yul\":656:661   */\n      dup4\n        /* \"#utility.yul\":652:666   */\n      add\n        /* \"#utility.yul\":648:676   */\n      and\n        /* \"#utility.yul\":638:676   */\n      swap1\n      pop\n        /* \"#utility.yul\":580:682   */\n      swap2\n      swap1\n      pop\n      jump\t// out\n        /* \"#utility.yul\":688:868   */\n    tag_51:\n        /* \"#utility.yul\":736:813   */\n      0x4e487b7100000000000000000000000000000000000000000000000000000000\n        /* \"#utility.yul\":733:734   */\n      0x00\n        /* \"#utility.yul\":726:814   */\n      mstore\n        /* \"#utility.yul\":833:837   */\n      0x41\n        /* \"#utility.yul\":830:831   */\n      0x04\n        /* \"#utility.yul\":823:838   */\n      mstore\n        /* \"#utility.yul\":857:861   */\n      0x24\n        /* \"#utility.yul\":854:855   */\n      0x00\n        /* \"#utility.yul\":847:862   */\n      revert\n        /* \"#utility.yul\":874:1155   */\n    tag_52:\n        /* \"#utility.yul\":957:984   */\n      tag_90\n        /* \"#utility.yul\":979:983   */\n      dup3\n        /* \"#utility.yul\":957:984   */\n      tag_50\n      jump\t// in\n    tag_90:\n        /* \"#utility.yul\":949:955   */\n      dup2\n        /* \"#utility.yul\":945:985   */\n      add\n        /* \"#utility.yul\":1087:1093   */\n      dup2\n        /* \"#utility.yul\":1075:1085   */\n      dup2\n        /* \"#utility.yul\":1072:1094   */\n      lt\n        /* \"#utility.yul\":1051:1069   */\n      0xffffffffffffffff\n        /* \"#utility.yul\":1039:1049   */\n      dup3\n        /* \"#utility.yul\":1036:1070   */\n      gt\n        /* \"#utility.yul\":1033:1095   */\n      or\n        /* \"#utility.yul\":1030:1118   */\n      iszero\n      tag_91\n      jumpi\n        /* \"#utility.yul\":1098:1116   */\n      tag_92\n      tag_51\n      jump\t// in\n    tag_92:\n        /* \"#utility.yul\":1030:1118   */\n    tag_91:\n        /* \"#utility.yul\":1138:1148   */\n      dup1\n        /* \"#utility.yul\":1134:1136   */\n      0x40\n        /* \"#utility.yul\":1127:1149   */\n      mstore\n        /* \"#utility.yul\":917:1155   */\n      pop\n        /* \"#utility.yul\":874:1155   */\n      pop\n      pop\n      jump\t// out\n        /* \"#utility.yul\":1161:1290   */\n    tag_53:\n        /* \"#utility.yul\":1195:1201   */\n      0x00\n        /* \"#utility.yul\":1222:1242   */\n      tag_94\n      tag_45\n      jump\t// in\n    tag_94:\n        /* \"#utility.yul\":1212:1242   */\n      swap1\n      pop\n        /* \"#utility.yul\":1251:1284   */\n      tag_95\n        /* \"#utility.yul\":1279:1283   */\n      dup3\n        /* \"#utility.yul\":1271:1277   */\n      dup3\n        /* \"#utility.yul\":1251:1284   */\n      tag_52\n      jump\t// in\n    tag_95:\n        /* \"#utility.yul\":1161:1290   */\n      swap2\n      swap1\n      pop\n      jump\t// out\n        /* \"#utility.yul\":1296:1604   */\n    tag_54:\n        /* \"#utility.yul\":1358:1362   */\n      0x00\n        /* \"#utility.yul\":1448:1466   */\n      0xffffffffffffffff\n        /* \"#utility.yul\":1440:1446   */\n      dup3\n        /* \"#utility.yul\":1437:1467   */\n      gt\n        /* \"#utility.yul\":1434:1490   */\n      iszero\n      tag_97\n      jumpi\n        /* \"#utility.yul\":1470:1488   */\n      tag_98\n      tag_51\n      jump\t// in\n    tag_98:\n        /* \"#utility.yul\":1434:1490   */\n    tag_97:\n        /* \"#utility.yul\":1508:1537   */\n      tag_99\n        /* \"#utility.yul\":1530:1536   */\n      dup3\n        /* \"#utility.yul\":1508:1537   */\n      tag_50\n      jump\t// in\n    tag_99:\n        /* \"#utility.yul\":1500:1537   */\n      swap1\n      pop\n        /* \"#utility.yul\":1592:1596   */\n      0x20\n        /* \"#utility.yul\":1586:1590   */\n      dup2\n        /* \"#utility.yul\":1582:1597   */\n      add\n        /* \"#utility.yul\":1574:1597   */\n      swap1\n      pop\n        /* \"#utility.yul\":1296:1604   */\n      swap2\n      swap1\n      pop\n      jump\t// out\n        /* \"#utility.yul\":1610:1758   */\n    tag_55:\n        /* \"#utility.yul\":1708:1714   */\n      dup3\n        /* \"#utility.yul\":1703:1706   */\n      dup2\n        /* \"#utility.yul\":1698:1701   */\n      dup4\n        /* \"#utility.yul\":1685:1715   */\n      calldatacopy\n        /* \"#utility.yul\":1749:1750   */\n      0x00\n        /* \"#utility.yul\":1740:1746   */\n      dup4\n        /* \"#utility.yul\":1735:1738   */\n      dup4\n        /* \"#utility.yul\":1731:1747   */\n      add\n        /* \"#utility.yul\":1724:1751   */\n      mstore\n        /* \"#utility.yul\":1610:1758   */\n      pop\n      pop\n      pop\n      jump\t// out\n        /* \"#utility.yul\":1764:2189   */\n    tag_56:\n        /* \"#utility.yul\":1842:1847   */\n      0x00\n        /* \"#utility.yul\":1867:1933   */\n      tag_102\n        /* \"#utility.yul\":1883:1932   */\n      tag_103\n        /* \"#utility.yul\":1925:1931   */\n      dup5\n        /* \"#utility.yul\":1883:1932   */\n      tag_54\n      jump\t// in\n    tag_103:\n        /* \"#utility.yul\":1867:1933   */\n      tag_53\n      jump\t// in\n    tag_102:\n        /* \"#utility.yul\":1858:1933   */\n      swap1\n      pop\n        /* \"#utility.yul\":1956:1962   */\n      dup3\n        /* \"#utility.yul\":1949:1954   */\n      dup2\n        /* \"#utility.yul\":1942:1963   */\n      mstore\n        /* \"#utility.yul\":1994:1998   */\n      0x20\n        /* \"#utility.yul\":1987:1992   */\n      dup2\n        /* \"#utility.yul\":1983:1999   */\n      add\n        /* \"#utility.yul\":2032:2035   */\n      dup5\n        /* \"#utility.yul\":2023:2029   */\n      dup5\n        /* \"#utility.yul\":2018:2021   */\n      dup5\n        /* \"#utility.yul\":2014:2030   */\n      add\n        /* \"#utility.yul\":2011:2036   */\n      gt\n        /* \"#utility.yul\":2008:2120   */\n      iszero\n      tag_104\n      jumpi\n        /* \"#utility.yul\":2039:2118   */\n      tag_105\n      tag_49\n      jump\t// in\n    tag_105:\n        /* \"#utility.yul\":2008:2120   */\n    tag_104:\n        /* \"#utility.yul\":2129:2183   */\n      tag_106\n        /* \"#utility.yul\":2176:2182   */\n      dup5\n        /* \"#utility.yul\":2171:2174   */\n      dup3\n        /* \"#utility.yul\":2166:2169   */\n      dup6\n        /* \"#utility.yul\":2129:2183   */\n      tag_55\n      jump\t// in\n    tag_106:\n        /* \"#utility.yul\":1848:2189   */\n      pop\n        /* \"#utility.yul\":1764:2189   */\n      swap4\n      swap3\n      pop\n      pop\n      pop\n      jump\t// out\n        /* \"#utility.yul\":2209:2549   */\n    tag_57:\n        /* \"#utility.yul\":2265:2270   */\n      0x00\n        /* \"#utility.yul\":2314:2317   */\n      dup3\n        /* \"#utility.yul\":2307:2311   */\n      0x1f\n        /* \"#utility.yul\":2299:2305   */\n      dup4\n        /* \"#utility.yul\":2295:2312   */\n      add\n        /* \"#utility.yul\":2291:2318   */\n      slt\n        /* \"#utility.yul\":2281:2403   */\n      tag_108\n      jumpi\n        /* \"#utility.yul\":2322:2401   */\n      tag_109\n      tag_48\n      jump\t// in\n    tag_109:\n        /* \"#utility.yul\":2281:2403   */\n    tag_108:\n        /* \"#utility.yul\":2439:2445   */\n      dup2\n        /* \"#utility.yul\":2426:2446   */\n      calldataload\n        /* \"#utility.yul\":2464:2543   */\n      tag_110\n        /* \"#utility.yul\":2539:2542   */\n      dup5\n        /* \"#utility.yul\":2531:2537   */\n      dup3\n        /* \"#utility.yul\":2524:2528   */\n      0x20\n        /* \"#utility.yul\":2516:2522   */\n      dup7\n        /* \"#utility.yul\":2512:2529   */\n      add\n        /* \"#utility.yul\":2464:2543   */\n      tag_56\n      jump\t// in\n    tag_110:\n        /* \"#utility.yul\":2455:2543   */\n      swap2\n      pop\n        /* \"#utility.yul\":2271:2549   */\n      pop\n        /* \"#utility.yul\":2209:2549   */\n      swap3\n      swap2\n      pop\n      pop\n      jump\t// out\n        /* \"#utility.yul\":2555:4040   */\n    tag_7:\n        /* \"#utility.yul\":2681:2687   */\n      0x00\n        /* \"#utility.yul\":2689:2695   */\n      dup1\n        /* \"#utility.yul\":2697:2703   */\n      0x00\n        /* \"#utility.yul\":2705:2711   */\n      dup1\n        /* \"#utility.yul\":2754:2757   */\n      0x80\n        /* \"#utility.yul\":2742:2751   */\n      dup6\n        /* \"#utility.yul\":2733:2740   */\n      dup8\n        /* \"#utility.yul\":2729:2752   */\n      sub\n        /* \"#utility.yul\":2725:2758   */\n      slt\n        /* \"#utility.yul\":2722:2842   */\n      iszero\n      tag_112\n      jumpi\n        /* \"#utility.yul\":2761:2840   */\n      tag_113\n      tag_46\n      jump\t// in\n    tag_113:\n        /* \"#utility.yul\":2722:2842   */\n    tag_112:\n        /* \"#utility.yul\":2909:2910   */\n      0x00\n        /* \"#utility.yul\":2898:2907   */\n      dup6\n        /* \"#utility.yul\":2894:2911   */\n      add\n        /* \"#utility.yul\":2881:2912   */\n      calldataload\n        /* \"#utility.yul\":2939:2957   */\n      0xffffffffffffffff\n        /* \"#utility.yul\":2931:2937   */\n      dup2\n        /* \"#utility.yul\":2928:2958   */\n      gt\n        /* \"#utility.yul\":2925:3042   */\n      iszero\n      tag_114\n      jumpi\n        /* \"#utility.yul\":2961:3040   */\n      tag_115\n      tag_47\n      jump\t// in\n    tag_115:\n        /* \"#utility.yul\":2925:3042   */\n    tag_114:\n        /* \"#utility.yul\":3066:3129   */\n      tag_116\n        /* \"#utility.yul\":3121:3128   */\n      dup8\n        /* \"#utility.yul\":3112:3118   */\n      dup3\n        /* \"#utility.yul\":3101:3110   */\n      dup9\n        /* \"#utility.yul\":3097:3119   */\n      add\n        /* \"#utility.yul\":3066:3129   */\n      tag_57\n      jump\t// in\n    tag_116:\n        /* \"#utility.yul\":3056:3129   */\n      swap5\n      pop\n        /* \"#utility.yul\":2852:3139   */\n      pop\n        /* \"#utility.yul\":3206:3208   */\n      0x20\n        /* \"#utility.yul\":3195:3204   */\n      dup6\n        /* \"#utility.yul\":3191:3209   */\n      add\n        /* \"#utility.yul\":3178:3210   */\n      calldataload\n        /* \"#utility.yul\":3237:3255   */\n      0xffffffffffffffff\n        /* \"#utility.yul\":3229:3235   */\n      dup2\n        /* \"#utility.yul\":3226:3256   */\n      gt\n        /* \"#utility.yul\":3223:3340   */\n      iszero\n      tag_117\n      jumpi\n        /* \"#utility.yul\":3259:3338   */\n      tag_118\n      tag_47\n      jump\t// in\n    tag_118:\n        /* \"#utility.yul\":3223:3340   */\n    tag_117:\n        /* \"#utility.yul\":3364:3427   */\n      tag_119\n        /* \"#utility.yul\":3419:3426   */\n      dup8\n        /* \"#utility.yul\":3410:3416   */\n      dup3\n        /* \"#utility.yul\":3399:3408   */\n      dup9\n        /* \"#utility.yul\":3395:3417   */\n      add\n        /* \"#utility.yul\":3364:3427   */\n      tag_57\n      jump\t// in\n    tag_119:\n        /* \"#utility.yul\":3354:3427   */\n      swap4\n      pop\n        /* \"#utility.yul\":3149:3437   */\n      pop\n        /* \"#utility.yul\":3504:3506   */\n      0x40\n        /* \"#utility.yul\":3493:3502   */\n      dup6\n        /* \"#utility.yul\":3489:3507   */\n      add\n        /* \"#utility.yul\":3476:3508   */\n      calldataload\n        /* \"#utility.yul\":3535:3553   */\n      0xffffffffffffffff\n        /* \"#utility.yul\":3527:3533   */\n      dup2\n        /* \"#utility.yul\":3524:3554   */\n      gt\n        /* \"#utility.yul\":3521:3638   */\n      iszero\n      tag_120\n      jumpi\n        /* \"#utility.yul\":3557:3636   */\n      tag_121\n      tag_47\n      jump\t// in\n    tag_121:\n        /* \"#utility.yul\":3521:3638   */\n    tag_120:\n        /* \"#utility.yul\":3662:3725   */\n      tag_122\n        /* \"#utility.yul\":3717:3724   */\n      dup8\n        /* \"#utility.yul\":3708:3714   */\n      dup3\n        /* \"#utility.yul\":3697:3706   */\n      dup9\n        /* \"#utility.yul\":3693:3715   */\n      add\n        /* \"#utility.yul\":3662:3725   */\n      tag_57\n      jump\t// in\n    tag_122:\n        /* \"#utility.yul\":3652:3725   */\n      swap3\n      pop\n        /* \"#utility.yul\":3447:3735   */\n      pop\n        /* \"#utility.yul\":3802:3804   */\n      0x60\n        /* \"#utility.yul\":3791:3800   */\n      dup6\n        /* \"#utility.yul\":3787:3805   */\n      add\n        /* \"#utility.yul\":3774:3806   */\n      calldataload\n        /* \"#utility.yul\":3833:3851   */\n      0xffffffffffffffff\n        /* \"#utility.yul\":3825:3831   */\n      dup2\n        /* \"#utility.yul\":3822:3852   */\n      gt\n        /* \"#utility.yul\":3819:3936   */\n      iszero\n      tag_123\n      jumpi\n        /* \"#utility.yul\":3855:3934   */\n      tag_124\n      tag_47\n      jump\t// in\n    tag_124:\n        /* \"#utility.yul\":3819:3936   */\n    tag_123:\n        /* \"#utility.yul\":3960:4023   */\n      tag_125\n        /* \"#utility.yul\":4015:4022   */\n      dup8\n        /* \"#utility.yul\":4006:4012   */\n      dup3\n        /* \"#utility.yul\":3995:4004   */\n      dup9\n        /* \"#utility.yul\":3991:4013   */\n      add\n        /* \"#utility.yul\":3960:4023   */\n      tag_57\n      jump\t// in\n    tag_125:\n        /* \"#utility.yul\":3950:4023   */\n      swap2\n      pop\n        /* \"#utility.yul\":3745:4033   */\n      pop\n        /* \"#utility.yul\":2555:4040   */\n      swap3\n      swap6\n      swap2\n      swap5\n      pop\n      swap3\n      pop\n      jump\t// out\n        /* \"#utility.yul\":4046:4123   */\n    tag_58:\n        /* \"#utility.yul\":4083:4090   */\n      0x00\n        /* \"#utility.yul\":4112:4117   */\n      dup2\n        /* \"#utility.yul\":4101:4117   */\n      swap1\n      pop\n        /* \"#utility.yul\":4046:4123   */\n      swap2\n      swap1\n      pop\n      jump\t// out\n        /* \"#utility.yul\":4129:4251   */\n    tag_59:\n        /* \"#utility.yul\":4202:4226   */\n      tag_128\n        /* \"#utility.yul\":4220:4225   */\n      dup2\n        /* \"#utility.yul\":4202:4226   */\n      tag_58\n      jump\t// in\n    tag_128:\n        /* \"#utility.yul\":4195:4200   */\n      dup2\n        /* \"#utility.yul\":4192:4227   */\n      eq\n        /* \"#utility.yul\":4182:4245   */\n      tag_129\n      jumpi\n        /* \"#utility.yul\":4241:4242   */\n      0x00\n        /* \"#utility.yul\":4238:4239   */\n      dup1\n        /* \"#utility.yul\":4231:4243   */\n      revert\n        /* \"#utility.yul\":4182:4245   */\n    tag_129:\n        /* \"#utility.yul\":4129:4251   */\n      pop\n      jump\t// out\n        /* \"#utility.yul\":4257:4396   */\n    tag_60:\n        /* \"#utility.yul\":4303:4308   */\n      0x00\n        /* \"#utility.yul\":4341:4347   */\n      dup2\n        /* \"#utility.yul\":4328:4348   */\n      calldataload\n        /* \"#utility.yul\":4319:4348   */\n      swap1\n      pop\n        /* \"#utility.yul\":4357:4390   */\n      tag_131\n        /* \"#utility.yul\":4384:4389   */\n      dup2\n        /* \"#utility.yul\":4357:4390   */\n      tag_59\n      jump\t// in\n    tag_131:\n        /* \"#utility.yul\":4257:4396   */\n      swap3\n      swap2\n      pop\n      pop\n      jump\t// out\n        /* \"#utility.yul\":4402:4731   */\n    tag_11:\n        /* \"#utility.yul\":4461:4467   */\n      0x00\n        /* \"#utility.yul\":4510:4512   */\n      0x20\n        /* \"#utility.yul\":4498:4507   */\n      dup3\n        /* \"#utility.yul\":4489:4496   */\n      dup5\n        /* \"#utility.yul\":4485:4508   */\n      sub\n        /* \"#utility.yul\":4481:4513   */\n      slt\n        /* \"#utility.yul\":4478:4597   */\n      iszero\n      tag_133\n      jumpi\n        /* \"#utility.yul\":4516:4595   */\n      tag_134\n      tag_46\n      jump\t// in\n    tag_134:\n        /* \"#utility.yul\":4478:4597   */\n    tag_133:\n        /* \"#utility.yul\":4636:4637   */\n      0x00\n        /* \"#utility.yul\":4661:4714   */\n      tag_135\n        /* \"#utility.yul\":4706:4713   */\n      dup5\n        /* \"#utility.yul\":4697:4703   */\n      dup3\n        /* \"#utility.yul\":4686:4695   */\n      dup6\n        /* \"#utility.yul\":4682:4704   */\n      add\n        /* \"#utility.yul\":4661:4714   */\n      tag_60\n      jump\t// in\n    tag_135:\n        /* \"#utility.yul\":4651:4714   */\n      swap2\n      pop\n        /* \"#utility.yul\":4607:4724   */\n      pop\n        /* \"#utility.yul\":4402:4731   */\n      swap3\n      swap2\n      pop\n      pop\n      jump\t// out\n        /* \"#utility.yul\":4737:4836   */\n    tag_61:\n        /* \"#utility.yul\":4789:4795   */\n      0x00\n        /* \"#utility.yul\":4823:4828   */\n      dup2\n        /* \"#utility.yul\":4817:4829   */\n      mload\n        /* \"#utility.yul\":4807:4829   */\n      swap1\n      pop\n        /* \"#utility.yul\":4737:4836   */\n      swap2\n      swap1\n      pop\n      jump\t// out\n        /* \"#utility.yul\":4842:5011   */\n    tag_62:\n        /* \"#utility.yul\":4926:4937   */\n      0x00\n        /* \"#utility.yul\":4960:4966   */\n      dup3\n        /* \"#utility.yul\":4955:4958   */\n      dup3\n        /* \"#utility.yul\":4948:4967   */\n      mstore\n        /* \"#utility.yul\":5000:5004   */\n      0x20\n        /* \"#utility.yul\":4995:4998   */\n      dup3\n        /* \"#utility.yul\":4991:5005   */\n      add\n        /* \"#utility.yul\":4976:5005   */\n      swap1\n      pop\n        /* \"#utility.yul\":4842:5011   */\n      swap3\n      swap2\n      pop\n      pop\n      jump\t// out\n        /* \"#utility.yul\":5017:5156   */\n    tag_63:\n        /* \"#utility.yul\":5106:5112   */\n      dup3\n        /* \"#utility.yul\":5101:5104   */\n      dup2\n        /* \"#utility.yul\":5096:5099   */\n      dup4\n        /* \"#utility.yul\":5090:5113   */\n      mcopy\n        /* \"#utility.yul\":5147:5148   */\n      0x00\n        /* \"#utility.yul\":5138:5144   */\n      dup4\n        /* \"#utility.yul\":5133:5136   */\n      dup4\n        /* \"#utility.yul\":5129:5145   */\n      add\n        /* \"#utility.yul\":5122:5149   */\n      mstore\n        /* \"#utility.yul\":5017:5156   */\n      pop\n      pop\n      pop\n      jump\t// out\n        /* \"#utility.yul\":5162:5539   */\n    tag_64:\n        /* \"#utility.yul\":5250:5253   */\n      0x00\n        /* \"#utility.yul\":5278:5317   */\n      tag_140\n        /* \"#utility.yul\":5311:5316   */\n      dup3\n        /* \"#utility.yul\":5278:5317   */\n      tag_61\n      jump\t// in\n    tag_140:\n        /* \"#utility.yul\":5333:5404   */\n      tag_141\n        /* \"#utility.yul\":5397:5403   */\n      dup2\n        /* \"#utility.yul\":5392:5395   */\n      dup6\n        /* \"#utility.yul\":5333:5404   */\n      tag_62\n      jump\t// in\n    tag_141:\n        /* \"#utility.yul\":5326:5404   */\n      swap4\n      pop\n        /* \"#utility.yul\":5413:5478   */\n      tag_142\n        /* \"#utility.yul\":5471:5477   */\n      dup2\n        /* \"#utility.yul\":5466:5469   */\n      dup6\n        /* \"#utility.yul\":5459:5463   */\n      0x20\n        /* \"#utility.yul\":5452:5457   */\n      dup7\n        /* \"#utility.yul\":5448:5464   */\n      add\n        /* \"#utility.yul\":5413:5478   */\n      tag_63\n      jump\t// in\n    tag_142:\n        /* \"#utility.yul\":5503:5532   */\n      tag_143\n        /* \"#utility.yul\":5525:5531   */\n      dup2\n        /* \"#utility.yul\":5503:5532   */\n      tag_50\n      jump\t// in\n    tag_143:\n        /* \"#utility.yul\":5498:5501   */\n      dup5\n        /* \"#utility.yul\":5494:5533   */\n      add\n        /* \"#utility.yul\":5487:5533   */\n      swap2\n      pop\n        /* \"#utility.yul\":5254:5539   */\n      pop\n        /* \"#utility.yul\":5162:5539   */\n      swap3\n      swap2\n      pop\n      pop\n      jump\t// out\n        /* \"#utility.yul\":5545:6462   */\n    tag_14:\n        /* \"#utility.yul\":5802:5806   */\n      0x00\n        /* \"#utility.yul\":5840:5843   */\n      0x80\n        /* \"#utility.yul\":5829:5838   */\n      dup3\n        /* \"#utility.yul\":5825:5844   */\n      add\n        /* \"#utility.yul\":5817:5844   */\n      swap1\n      pop\n        /* \"#utility.yul\":5890:5899   */\n      dup2\n        /* \"#utility.yul\":5884:5888   */\n      dup2\n        /* \"#utility.yul\":5880:5900   */\n      sub\n        /* \"#utility.yul\":5876:5877   */\n      0x00\n        /* \"#utility.yul\":5865:5874   */\n      dup4\n        /* \"#utility.yul\":5861:5878   */\n      add\n        /* \"#utility.yul\":5854:5901   */\n      mstore\n        /* \"#utility.yul\":5918:5996   */\n      tag_145\n        /* \"#utility.yul\":5991:5995   */\n      dup2\n        /* \"#utility.yul\":5982:5988   */\n      dup8\n        /* \"#utility.yul\":5918:5996   */\n      tag_64\n      jump\t// in\n    tag_145:\n        /* \"#utility.yul\":5910:5996   */\n      swap1\n      pop\n        /* \"#utility.yul\":6043:6052   */\n      dup2\n        /* \"#utility.yul\":6037:6041   */\n      dup2\n        /* \"#utility.yul\":6033:6053   */\n      sub\n        /* \"#utility.yul\":6028:6030   */\n      0x20\n        /* \"#utility.yul\":6017:6026   */\n      dup4\n        /* \"#utility.yul\":6013:6031   */\n      add\n        /* \"#utility.yul\":6006:6054   */\n      mstore\n        /* \"#utility.yul\":6071:6149   */\n      tag_146\n        /* \"#utility.yul\":6144:6148   */\n      dup2\n        /* \"#utility.yul\":6135:6141   */\n      dup7\n        /* \"#utility.yul\":6071:6149   */\n      tag_64\n      jump\t// in\n    tag_146:\n        /* \"#utility.yul\":6063:6149   */\n      swap1\n      pop\n        /* \"#utility.yul\":6196:6205   */\n      dup2\n        /* \"#utility.yul\":6190:6194   */\n      dup2\n        /* \"#utility.yul\":6186:6206   */\n      sub\n        /* \"#utility.yul\":6181:6183   */\n      0x40\n        /* \"#utility.yul\":6170:6179   */\n      dup4\n        /* \"#utility.yul\":6166:6184   */\n      add\n        /* \"#utility.yul\":6159:6207   */\n      mstore\n        /* \"#utility.yul\":6224:6302   */\n      tag_147\n        /* \"#utility.yul\":6297:6301   */\n      dup2\n        /* \"#utility.yul\":6288:6294   */\n      dup6\n        /* \"#utility.yul\":6224:6302   */\n      tag_64\n      jump\t// in\n    tag_147:\n        /* \"#utility.yul\":6216:6302   */\n      swap1\n      pop\n        /* \"#utility.yul\":6349:6358   */\n      dup2\n        /* \"#utility.yul\":6343:6347   */\n      dup2\n        /* \"#utility.yul\":6339:6359   */\n      sub\n        /* \"#utility.yul\":6334:6336   */\n      0x60\n        /* \"#utility.yul\":6323:6332   */\n      dup4\n        /* \"#utility.yul\":6319:6337   */\n      add\n        /* \"#utility.yul\":6312:6360   */\n      mstore\n        /* \"#utility.yul\":6377:6455   */\n      tag_148\n        /* \"#utility.yul\":6450:6454   */\n      dup2\n        /* \"#utility.yul\":6441:6447   */\n      dup5\n        /* \"#utility.yul\":6377:6455   */\n      tag_64\n      jump\t// in\n    tag_148:\n        /* \"#utility.yul\":6369:6455   */\n      swap1\n      pop\n        /* \"#utility.yul\":5545:6462   */\n      swap6\n      swap5\n      pop\n      pop\n      pop\n      pop\n      pop\n      jump\t// out\n        /* \"#utility.yul\":6468:6648   */\n    tag_65:\n        /* \"#utility.yul\":6516:6593   */\n      0x4e487b7100000000000000000000000000000000000000000000000000000000\n        /* \"#utility.yul\":6513:6514   */\n      0x00\n        /* \"#utility.yul\":6506:6594   */\n      mstore\n        /* \"#utility.yul\":6613:6617   */\n      0x22\n        /* \"#utility.yul\":6610:6611   */\n      0x04\n        /* \"#utility.yul\":6603:6618   */\n      mstore\n        /* \"#utility.yul\":6637:6641   */\n      0x24\n        /* \"#utility.yul\":6634:6635   */\n      0x00\n        /* \"#utility.yul\":6627:6642   */\n      revert\n        /* \"#utility.yul\":6654:6974   */\n    tag_25:\n        /* \"#utility.yul\":6698:6704   */\n      0x00\n        /* \"#utility.yul\":6735:6736   */\n      0x02\n        /* \"#utility.yul\":6729:6733   */\n      dup3\n        /* \"#utility.yul\":6725:6737   */\n      div\n        /* \"#utility.yul\":6715:6737   */\n      swap1\n      pop\n        /* \"#utility.yul\":6782:6783   */\n      0x01\n        /* \"#utility.yul\":6776:6780   */\n      dup3\n        /* \"#utility.yul\":6772:6784   */\n      and\n        /* \"#utility.yul\":6803:6821   */\n      dup1\n        /* \"#utility.yul\":6793:6874   */\n      tag_151\n      jumpi\n        /* \"#utility.yul\":6859:6863   */\n      0x7f\n        /* \"#utility.yul\":6851:6857   */\n      dup3\n        /* \"#utility.yul\":6847:6864   */\n      and\n        /* \"#utility.yul\":6837:6864   */\n      swap2\n      pop\n        /* \"#utility.yul\":6793:6874   */\n    tag_151:\n        /* \"#utility.yul\":6921:6923   */\n      0x20\n        /* \"#utility.yul\":6913:6919   */\n      dup3\n        /* \"#utility.yul\":6910:6924   */\n      lt\n        /* \"#utility.yul\":6890:6908   */\n      dup2\n        /* \"#utility.yul\":6887:6925   */\n      sub\n        /* \"#utility.yul\":6884:6968   */\n      tag_152\n      jumpi\n        /* \"#utility.yul\":6940:6958   */\n      tag_153\n      tag_65\n      jump\t// in\n    tag_153:\n        /* \"#utility.yul\":6884:6968   */\n    tag_152:\n        /* \"#utility.yul\":6705:6974   */\n      pop\n        /* \"#utility.yul\":6654:6974   */\n      swap2\n      swap1\n      pop\n      jump\t// out\n        /* \"#utility.yul\":6980:7121   */\n    tag_66:\n        /* \"#utility.yul\":7029:7033   */\n      0x00\n        /* \"#utility.yul\":7052:7055   */\n      dup2\n        /* \"#utility.yul\":7044:7055   */\n      swap1\n      pop\n        /* \"#utility.yul\":7075:7078   */\n      dup2\n        /* \"#utility.yul\":7072:7073   */\n      0x00\n        /* \"#utility.yul\":7065:7079   */\n      mstore\n        /* \"#utility.yul\":7109:7113   */\n      0x20\n        /* \"#utility.yul\":7106:7107   */\n      0x00\n        /* \"#utility.yul\":7096:7114   */\n      keccak256\n        /* \"#utility.yul\":7088:7114   */\n      swap1\n      pop\n        /* \"#utility.yul\":6980:7121   */\n      swap2\n      swap1\n      pop\n      jump\t// out\n        /* \"#utility.yul\":7127:7220   */\n    tag_67:\n        /* \"#utility.yul\":7164:7170   */\n      0x00\n        /* \"#utility.yul\":7211:7213   */\n      0x20\n        /* \"#utility.yul\":7206:7208   */\n      0x1f\n        /* \"#utility.yul\":7199:7204   */\n      dup4\n        /* \"#utility.yul\":7195:7209   */\n      add\n        /* \"#utility.yul\":7191:7214   */\n      div\n        /* \"#utility.yul\":7181:7214   */\n      swap1\n      pop\n        /* \"#utility.yul\":7127:7220   */\n      swap2\n      swap1\n      pop\n      jump\t// out\n        /* \"#utility.yul\":7226:7333   */\n    tag_68:\n        /* \"#utility.yul\":7270:7278   */\n      0x00\n        /* \"#utility.yul\":7320:7325   */\n      dup3\n        /* \"#utility.yul\":7314:7318   */\n      dup3\n        /* \"#utility.yul\":7310:7326   */\n      shl\n        /* \"#utility.yul\":7289:7326   */\n      swap1\n      pop\n        /* \"#utility.yul\":7226:7333   */\n      swap3\n      swap2\n      pop\n      pop\n      jump\t// out\n        /* \"#utility.yul\":7339:7732   */\n    tag_69:\n        /* \"#utility.yul\":7408:7414   */\n      0x00\n        /* \"#utility.yul\":7458:7459   */\n      0x08\n        /* \"#utility.yul\":7446:7456   */\n      dup4\n        /* \"#utility.yul\":7442:7460   */\n      mul\n        /* \"#utility.yul\":7481:7578   */\n      tag_158\n        /* \"#utility.yul\":7511:7577   */\n      0xffffffffffffffffffffffffffffffffffffffffffffffffffffffffffffffff\n        /* \"#utility.yul\":7500:7509   */\n      dup3\n        /* \"#utility.yul\":7481:7578   */\n      tag_68\n      jump\t// in\n    tag_158:\n        /* \"#utility.yul\":7599:7638   */\n      tag_159\n        /* \"#utility.yul\":7629:7637   */\n      dup7\n        /* \"#utility.yul\":7618:7627   */\n      dup4\n        /* \"#utility.yul\":7599:7638   */\n      tag_68\n      jump\t// in\n    tag_159:\n        /* \"#utility.yul\":7587:7638   */\n      swap6\n      pop\n        /* \"#utility.yul\":7671:7675   */\n      dup1\n        /* \"#utility.yul\":7667:7676   */\n      not\n        /* \"#utility.yul\":7660:7665   */\n      dup5\n        /* \"#utility.yul\":7656:7677   */\n      and\n        /* \"#utility.yul\":7647:7677   */\n      swap4\n      pop\n        /* \"#utility.yul\":7720:7724   */\n      dup1\n        /* \"#utility.yul\":7710:7718   */\n      dup7\n        /* \"#utility.yul\":7706:7725   */\n      and\n        /* \"#utility.yul\":7699:7704   */\n      dup5\n        /* \"#utility.yul\":7696:7726   */\n      or\n        /* \"#utility.yul\":7686:7726   */\n      swap3\n      pop\n        /* \"#utility.yul\":7415:7732   */\n      pop\n      pop\n        /* \"#utility.yul\":7339:7732   */\n      swap4\n      swap3\n      pop\n      pop\n      pop\n      jump\t// out\n        /* \"#utility.yul\":7738:7798   */\n    tag_70:\n        /* \"#utility.yul\":7766:7769   */\n      0x00\n        /* \"#utility.yul\":7787:7792   */\n      dup2\n        /* \"#utility.yul\":7780:7792   */\n      swap1\n      pop\n        /* \"#utility.yul\":7738:7798   */\n      swap2\n      swap1\n      pop\n      jump\t// out\n        /* \"#utility.yul\":7804:7946   */\n    tag_71:\n        /* \"#utility.yul\":7854:7863   */\n      0x00\n        /* \"#utility.yul\":7887:7940   */\n      tag_162\n        /* \"#utility.yul\":7905:7939   */\n      tag_163\n        /* \"#utility.yul\":7914:7938   */\n      tag_164\n        /* \"#utility.yul\":7932:7937   */\n      dup5\n        /* \"#utility.yul\":7914:7938   */\n      tag_58\n      jump\t// in\n    tag_164:\n        /* \"#utility.yul\":7905:7939   */\n      tag_70\n      jump\t// in\n    tag_163:\n        /* \"#utility.yul\":7887:7940   */\n      tag_58\n      jump\t// in\n    tag_162:\n        /* \"#utility.yul\":7874:7940   */\n      swap1\n      pop\n        /* \"#utility.yul\":7804:7946   */\n      swap2\n      swap1\n      pop\n      jump\t// out\n        /* \"#utility.yul\":7952:8027   */\n    tag_72:\n        /* \"#utility.yul\":7995:7998   */\n      0x00\n        /* \"#utility.yul\":8016:8021   */\n      dup2\n        /* \"#utility.yul\":8009:8021   */\n      swap1\n      pop\n        /* \"#utility.yul\":7952:8027   */\n      swap2\n      swap1\n      pop\n      jump\t// out\n        /* \"#utility.yul\":8033:8302   */\n    tag_73:\n        /* \"#utility.yul\":8143:8182   */\n      tag_167\n        /* \"#utility.yul\":8174:8181   */\n      dup4\n        /* \"#utility.yul\":8143:8182   */\n      tag_71\n      jump\t// in\n    tag_167:\n        /* \"#utility.yul\":8204:8295   */\n      tag_168\n        /* \"#utility.yul\":8253:8294   */\n      tag_169\n        /* \"#utility.yul\":8277:8293   */\n      dup3\n        /* \"#utility.yul\":8253:8294   */\n      tag_72\n      jump\t// in\n    tag_169:\n        /* \"#utility.yul\":8245:8251   */\n      dup5\n        /* \"#utility.yul\":8238:8242   */\n      dup5\n        /* \"#utility.yul\":8232:8243   */\n      sload\n        /* \"#utility.yul\":8204:8295   */\n      tag_69\n      jump\t// in\n    tag_168:\n        /* \"#utility.yul\":8198:8202   */\n      dup3\n        /* \"#utility.yul\":8191:8296   */\n      sstore\n        /* \"#utility.yul\":8109:8302   */\n      pop\n        /* \"#utility.yul\":8033:8302   */\n      pop\n      pop\n      pop\n      jump\t// out\n        /* \"#utility.yul\":8308:8381   */\n    tag_74:\n        /* \"#utility.yul\":8353:8356   */\n      0x00\n        /* \"#utility.yul\":8308:8381   */\n      swap1\n      jump\t// out\n        /* \"#utility.yul\":8387:8576   */\n    tag_75:\n        /* \"#utility.yul\":8464:8496   */\n      tag_172\n      tag_74\n      jump\t// in\n    tag_172:\n        /* \"#utility.yul\":8505:8570   */\n      tag_173\n        /* \"#utility.yul\":8563:8569   */\n      dup2\n        /* \"#utility.yul\":8555:8561   */\n      dup5\n        /* \"#utility.yul\":8549:8553   */\n      dup5\n        /* \"#utility.yul\":8505:8570   */\n      tag_73\n      jump\t// in\n    tag_173:\n        /* \"#utility.yul\":8440:8576   */\n      pop\n        /* \"#utility.yul\":8387:8576   */\n      pop\n      pop\n      jump\t// out\n        /* \"#utility.yul\":8582:8768   */\n    tag_76:\n        /* \"#utility.yul\":8642:8762   */\n    tag_175:\n        /* \"#utility.yul\":8659:8662   */\n      dup2\n        /* \"#utility.yul\":8652:8657   */\n      dup2\n        /* \"#utility.yul\":8649:8663   */\n      lt\n        /* \"#utility.yul\":8642:8762   */\n      iszero\n      tag_177\n      jumpi\n        /* \"#utility.yul\":8713:8752   */\n      tag_178\n        /* \"#utility.yul\":8750:8751   */\n      0x00\n        /* \"#utility.yul\":8743:8748   */\n      dup3\n        /* \"#utility.yul\":8713:8752   */\n      tag_75\n      jump\t// in\n    tag_178:\n        /* \"#utility.yul\":8686:8687   */\n      0x01\n        /* \"#utility.yul\":8679:8684   */\n      dup2\n        /* \"#utility.yul\":8675:8688   */\n      add\n        /* \"#utility.yul\":8666:8688   */\n      swap1\n      pop\n        /* \"#utility.yul\":8642:8762   */\n      jump(tag_175)\n    tag_177:\n        /* \"#utility.yul\":8582:8768   */\n      pop\n      pop\n      jump\t// out\n        /* \"#utility.yul\":8774:9317   */\n    tag_77:\n        /* \"#utility.yul\":8875:8877   */\n      0x1f\n        /* \"#utility.yul\":8870:8873   */\n      dup3\n        /* \"#utility.yul\":8867:8878   */\n      gt\n        /* \"#utility.yul\":8864:9310   */\n      iszero\n      tag_180\n      jumpi\n        /* \"#utility.yul\":8909:8947   */\n      tag_181\n        /* \"#utility.yul\":8941:8946   */\n      dup2\n        /* \"#utility.yul\":8909:8947   */\n      tag_66\n      jump\t// in\n    tag_181:\n        /* \"#utility.yul\":8993:9022   */\n      tag_182\n        /* \"#utility.yul\":9011:9021   */\n      dup5\n        /* \"#utility.yul\":8993:9022   */\n      tag_67\n      jump\t// in\n    tag_182:\n        /* \"#utility.yul\":8983:8991   */\n      dup2\n        /* \"#utility.yul\":8979:9023   */\n      add\n        /* \"#utility.yul\":9176:9178   */\n      0x20\n        /* \"#utility.yul\":9164:9174   */\n      dup6\n        /* \"#utility.yul\":9161:9179   */\n      lt\n        /* \"#utility.yul\":9158:9207   */\n      iszero\n      tag_183\n      jumpi\n        /* \"#utility.yul\":9197:9205   */\n      dup2\n        /* \"#utility.yul\":9182:9205   */\n      swap1\n      pop\n        /* \"#utility.yul\":9158:9207   */\n    tag_183:\n        /* \"#utility.yul\":9220:9300   */\n      tag_184\n        /* \"#utility.yul\":9276:9298   */\n      tag_185\n        /* \"#utility.yul\":9294:9297   */\n      dup6\n        /* \"#utility.yul\":9276:9298   */\n      tag_67\n      jump\t// in\n    tag_185:\n        /* \"#utility.yul\":9266:9274   */\n      dup4\n        /* \"#utility.yul\":9262:9299   */\n      add\n        /* \"#utility.yul\":9249:9260   */\n      dup3\n        /* \"#utility.yul\":9220:9300   */\n      tag_76\n      jump\t// in\n    tag_184:\n        /* \"#utility.yul\":8879:9310   */\n      pop\n      pop\n        /* \"#utility.yul\":8864:9310   */\n    tag_180:\n        /* \"#utility.yul\":8774:9317   */\n      pop\n      pop\n      pop\n      jump\t// out\n        /* \"#utility.yul\":9323:9440   */\n    tag_78:\n        /* \"#utility.yul\":9377:9385   */\n      0x00\n        /* \"#utility.yul\":9427:9432   */\n      dup3\n        /* \"#utility.yul\":9421:9425   */\n      dup3\n        /* \"#utility.yul\":9417:9433   */\n      shr\n        /* \"#utility.yul\":9396:9433   */\n      swap1\n      pop\n        /* \"#utility.yul\":9323:9440   */\n      swap3\n      swap2\n      pop\n      pop\n      jump\t// out\n        /* \"#utility.yul\":9446:9615   */\n    tag_79:\n        /* \"#utility.yul\":9490:9496   */\n      0x00\n        /* \"#utility.yul\":9523:9574   */\n      tag_188\n        /* \"#utility.yul\":9571:9572   */\n      0x00\n        /* \"#utility.yul\":9567:9573   */\n      not\n        /* \"#utility.yul\":9559:9564   */\n      dup5\n        /* \"#utility.yul\":9556:9557   */\n      0x08\n        /* \"#utility.yul\":9552:9565   */\n      mul\n        /* \"#utility.yul\":9523:9574   */\n      tag_78\n      jump\t// in\n    tag_188:\n        /* \"#utility.yul\":9519:9575   */\n      not\n        /* \"#utility.yul\":9604:9608   */\n      dup1\n        /* \"#utility.yul\":9598:9602   */\n      dup4\n        /* \"#utility.yul\":9594:9609   */\n      and\n        /* \"#utility.yul\":9584:9609   */\n      swap2\n      pop\n        /* \"#utility.yul\":9497:9615   */\n      pop\n        /* \"#utility.yul\":9446:9615   */\n      swap3\n      swap2\n      pop\n      pop\n      jump\t// out\n        /* \"#utility.yul\":9620:9915   */\n    tag_80:\n        /* \"#utility.yul\":9696:9700   */\n      0x00\n        /* \"#utility.yul\":9842:9871   */\n      tag_190\n        /* \"#utility.yul\":9867:9870   */\n      dup4\n        /* \"#utility.yul\":9861:9865   */\n      dup4\n        /* \"#utility.yul\":9842:9871   */\n      tag_79\n      jump\t// in\n    tag_190:\n        /* \"#utility.yul\":9834:9871   */\n      swap2\n      pop\n        /* \"#utility.yul\":9904:9907   */\n      dup3\n        /* \"#utility.yul\":9901:9902   */\n      0x02\n        /* \"#utility.yul\":9897:9908   */\n      mul\n        /* \"#utility.yul\":9891:9895   */\n      dup3\n        /* \"#utility.yul\":9888:9909   */\n      or\n        /* \"#utility.yul\":9880:9909   */\n      swap1\n      pop\n        /* \"#utility.yul\":9620:9915   */\n      swap3\n      swap2\n      pop\n      pop\n      jump\t// out\n        /* \"#utility.yul\":9920:11315   */\n    tag_18:\n        /* \"#utility.yul\":10037:10074   */\n      tag_192\n        /* \"#utility.yul\":10070:10073   */\n      dup3\n        /* \"#utility.yul\":10037:10074   */\n      tag_61\n      jump\t// in\n    tag_192:\n        /* \"#utility.yul\":10139:10157   */\n      0xffffffffffffffff\n        /* \"#utility.yul\":10131:10137   */\n      dup2\n        /* \"#utility.yul\":10128:10158   */\n      gt\n        /* \"#utility.yul\":10125:10181   */\n      iszero\n      tag_193\n      jumpi\n        /* \"#utility.yul\":10161:10179   */\n      tag_194\n      tag_51\n      jump\t// in\n    tag_194:\n        /* \"#utility.yul\":10125:10181   */\n    tag_193:\n        /* \"#utility.yul\":10205:10243   */\n      tag_195\n        /* \"#utility.yul\":10237:10241   */\n      dup3\n        /* \"#utility.yul\":10231:10242   */\n      sload\n        /* \"#utility.yul\":10205:10243   */\n      tag_25\n      jump\t// in\n    tag_195:\n        /* \"#utility.yul\":10290:10357   */\n      tag_196\n        /* \"#utility.yul\":10350:10356   */\n      dup3\n        /* \"#utility.yul\":10342:10348   */\n      dup3\n        /* \"#utility.yul\":10336:10340   */\n      dup6\n        /* \"#utility.yul\":10290:10357   */\n      tag_77\n      jump\t// in\n    tag_196:\n        /* \"#utility.yul\":10384:10385   */\n      0x00\n        /* \"#utility.yul\":10408:10412   */\n      0x20\n        /* \"#utility.yul\":10395:10412   */\n      swap1\n      pop\n        /* \"#utility.yul\":10440:10442   */\n      0x1f\n        /* \"#utility.yul\":10432:10438   */\n      dup4\n        /* \"#utility.yul\":10429:10443   */\n      gt\n        /* \"#utility.yul\":10457:10458   */\n      0x01\n        /* \"#utility.yul\":10452:11070   */\n      dup2\n      eq\n      tag_198\n      jumpi\n        /* \"#utility.yul\":11114:11115   */\n      0x00\n        /* \"#utility.yul\":11131:11137   */\n      dup5\n        /* \"#utility.yul\":11128:11205   */\n      iszero\n      tag_199\n      jumpi\n        /* \"#utility.yul\":11180:11189   */\n      dup3\n        /* \"#utility.yul\":11175:11178   */\n      dup8\n        /* \"#utility.yul\":11171:11190   */\n      add\n        /* \"#utility.yul\":11165:11191   */\n      mload\n        /* \"#utility.yul\":11156:11191   */\n      swap1\n      pop\n        /* \"#utility.yul\":11128:11205   */\n    tag_199:\n        /* \"#utility.yul\":11231:11298   */\n      tag_200\n        /* \"#utility.yul\":11291:11297   */\n      dup6\n        /* \"#utility.yul\":11284:11289   */\n      dup3\n        /* \"#utility.yul\":11231:11298   */\n      tag_80\n      jump\t// in\n    tag_200:\n        /* \"#utility.yul\":11225:11229   */\n      dup7\n        /* \"#utility.yul\":11218:11299   */\n      sstore\n        /* \"#utility.yul\":11087:11309   */\n      pop\n        /* \"#utility.yul\":10422:11309   */\n      jump(tag_197)\n        /* \"#utility.yul\":10452:11070   */\n    tag_198:\n        /* \"#utility.yul\":10504:10508   */\n      0x1f\n        /* \"#utility.yul\":10500:10509   */\n      not\n        /* \"#utility.yul\":10492:10498   */\n      dup5\n        /* \"#utility.yul\":10488:10510   */\n      and\n        /* \"#utility.yul\":10538:10575   */\n      tag_201\n        /* \"#utility.yul\":10570:10574   */\n      dup7\n        /* \"#utility.yul\":10538:10575   */\n      tag_66\n      jump\t// in\n    tag_201:\n        /* \"#utility.yul\":10597:10598   */\n      0x00\n        /* \"#utility.yul\":10611:10819   */\n    tag_202:\n        /* \"#utility.yul\":10625:10632   */\n      dup3\n        /* \"#utility.yul\":10622:10623   */\n      dup2\n        /* \"#utility.yul\":10619:10633   */\n      lt\n        /* \"#utility.yul\":10611:10819   */\n      iszero\n      tag_204\n      jumpi\n        /* \"#utility.yul\":10704:10713   */\n      dup5\n        /* \"#utility.yul\":10699:10702   */\n      dup10\n        /* \"#utility.yul\":10695:10714   */\n      add\n        /* \"#utility.yul\":10689:10715   */\n      mload\n        /* \"#utility.yul\":10681:10687   */\n      dup3\n        /* \"#utility.yul\":10674:10716   */\n      sstore\n        /* \"#utility.yul\":10755:10756   */\n      0x01\n        /* \"#utility.yul\":10747:10753   */\n      dup3\n        /* \"#utility.yul\":10743:10757   */\n      add\n        /* \"#utility.yul\":10733:10757   */\n      swap2\n      pop\n        /* \"#utility.yul\":10802:10804   */\n      0x20\n        /* \"#utility.yul\":10791:10800   */\n      dup6\n        /* \"#utility.yul\":10787:10805   */\n      add\n        /* \"#utility.yul\":10774:10805   */\n      swap5\n      pop\n        /* \"#utility.yul\":10648:10652   */\n      0x20\n        /* \"#utility.yul\":10645:10646   */\n      dup2\n        /* \"#utility.yul\":10641:10653   */\n      add\n        /* \"#utility.yul\":10636:10653   */\n      swap1\n      pop\n        /* \"#utility.yul\":10611:10819   */\n      jump(tag_202)\n    tag_204:\n        /* \"#utility.yul\":10847:10853   */\n      dup7\n        /* \"#utility.yul\":10838:10845   */\n      dup4\n        /* \"#utility.yul\":10835:10854   */\n      lt\n        /* \"#utility.yul\":10832:11011   */\n      iszero\n      tag_205\n      jumpi\n        /* \"#utility.yul\":10905:10914   */\n      dup5\n        /* \"#utility.yul\":10900:10903   */\n      dup10\n        /* \"#utility.yul\":10896:10915   */\n      add\n        /* \"#utility.yul\":10890:10916   */\n      mload\n        /* \"#utility.yul\":10948:10996   */\n      tag_206\n        /* \"#utility.yul\":10990:10994   */\n      0x1f\n        /* \"#utility.yul\":10982:10988   */\n      dup10\n        /* \"#utility.yul\":10978:10995   */\n      and\n        /* \"#utility.yul\":10967:10976   */\n      dup3\n        /* \"#utility.yul\":10948:10996   */\n      tag_79\n      jump\t// in\n    tag_206:\n        /* \"#utility.yul\":10940:10946   */\n      dup4\n        /* \"#utility.yul\":10933:10997   */\n      sstore\n        /* \"#utility.yul\":10855:11011   */\n      pop\n        /* \"#utility.yul\":10832:11011   */\n    tag_205:\n        /* \"#utility.yul\":11057:11058   */\n      0x01\n        /* \"#utility.yul\":11053:11054   */\n      0x02\n        /* \"#utility.yul\":11045:11051   */\n      dup9\n        /* \"#utility.yul\":11041:11055   */\n      mul\n        /* \"#utility.yul\":11037:11059   */\n      add\n        /* \"#utility.yul\":11031:11035   */\n      dup9\n        /* \"#utility.yul\":11024:11060   */\n      sstore\n        /* \"#utility.yul\":10459:11070   */\n      pop\n      pop\n      pop\n        /* \"#utility.yul\":10422:11309   */\n    tag_197:\n      pop\n        /* \"#utility.yul\":10012:11315   */\n      pop\n      pop\n      pop\n        /* \"#utility.yul\":9920:11315   */\n      pop\n      pop\n      jump\t// out\n\n    auxdata: 0xa2646970667358221220b00abe3ca9dd4b583afe6010a873919cd6aa00c382d01a175f1efceec5ebf04664736f6c634300081a0033\n}\n",
				"bytecode": {
					"linkReferences": {},
					"object": "6080604052348015600e575f80fd5b506109bc8061001c5f395ff3fe608060405234801561000f575f80fd5b5060043610610034575f3560e01c8063324e0ce514610038578063908959ed14610054575b5f80fd5b610052600480360381019061004d91906104cc565b610087565b005b61006e600480360381019061006991906105d3565b61012d565b60405161007e949392919061065e565b60405180910390f35b5f604051806080016040528086815260200185815260200184815260200183815250908060018154018082558091505060019003905f5260205f2090600402015f909190919091505f820151815f0190816100e291906108b7565b5060208201518160010190816100f891906108b7565b50604082015181600201908161010e91906108b7565b50606082015181600301908161012491906108b7565b50505050505050565b5f818154811061013b575f80fd5b905f5260205f2090600402015f91509050805f01805461015a906106ea565b80601f0160208091040260200160405190810160405280929190818152602001828054610186906106ea565b80156101d15780601f106101a8576101008083540402835291602001916101d1565b820191905f5260205f20905b8154815290600101906020018083116101b457829003601f168201915b5050505050908060010180546101e6906106ea565b80601f0160208091040260200160405190810160405280929190818152602001828054610212906106ea565b801561025d5780601f106102345761010080835404028352916020019161025d565b820191905f5260205f20905b81548152906001019060200180831161024057829003601f168201915b505050505090806002018054610272906106ea565b80601f016020809104026020016040519081016040528092919081815260200182805461029e906106ea565b80156102e95780601f106102c0576101008083540402835291602001916102e9565b820191905f5260205f20905b8154815290600101906020018083116102cc57829003601f168201915b5050505050908060030180546102fe906106ea565b80601f016020809104026020016040519081016040528092919081815260200182805461032a906106ea565b80156103755780601f1061034c57610100808354040283529160200191610375565b820191905f5260205f20905b81548152906001019060200180831161035857829003601f168201915b5050505050905084565b5f604051905090565b5f80fd5b5f80fd5b5f80fd5b5f80fd5b5f601f19601f8301169050919050565b7f4e487b71000000000000000000000000000000000000000000000000000000005f52604160045260245ffd5b6103de82610398565b810181811067ffffffffffffffff821117156103fd576103fc6103a8565b5b80604052505050565b5f61040f61037f565b905061041b82826103d5565b919050565b5f67ffffffffffffffff82111561043a576104396103a8565b5b61044382610398565b9050602081019050919050565b828183375f83830152505050565b5f61047061046b84610420565b610406565b90508281526020810184848401111561048c5761048b610394565b5b610497848285610450565b509392505050565b5f82601f8301126104b3576104b2610390565b5b81356104c384826020860161045e565b91505092915050565b5f805f80608085870312156104e4576104e3610388565b5b5f85013567ffffffffffffffff8111156105015761050061038c565b5b61050d8782880161049f565b945050602085013567ffffffffffffffff81111561052e5761052d61038c565b5b61053a8782880161049f565b935050604085013567ffffffffffffffff81111561055b5761055a61038c565b5b6105678782880161049f565b925050606085013567ffffffffffffffff8111156105885761058761038c565b5b6105948782880161049f565b91505092959194509250565b5f819050919050565b6105b2816105a0565b81146105bc575f80fd5b50565b5f813590506105cd816105a9565b92915050565b5f602082840312156105e8576105e7610388565b5b5f6105f5848285016105bf565b91505092915050565b5f81519050919050565b5f82825260208201905092915050565b8281835e5f83830152505050565b5f610630826105fe565b61063a8185610608565b935061064a818560208601610618565b61065381610398565b840191505092915050565b5f6080820190508181035f8301526106768187610626565b9050818103602083015261068a8186610626565b9050818103604083015261069e8185610626565b905081810360608301526106b28184610626565b905095945050505050565b7f4e487b71000000000000000000000000000000000000000000000000000000005f52602260045260245ffd5b5f600282049050600182168061070157607f821691505b602082108103610714576107136106bd565b5b50919050565b5f819050815f5260205f209050919050565b5f6020601f8301049050919050565b5f82821b905092915050565b5f600883026107767fffffffffffffffffffffffffffffffffffffffffffffffffffffffffffffffff8261073b565b610780868361073b565b95508019841693508086168417925050509392505050565b5f819050919050565b5f6107bb6107b66107b1846105a0565b610798565b6105a0565b9050919050565b5f819050919050565b6107d4836107a1565b6107e86107e0826107c2565b848454610747565b825550505050565b5f90565b6107fc6107f0565b6108078184846107cb565b505050565b5b8181101561082a5761081f5f826107f4565b60018101905061080d565b5050565b601f82111561086f576108408161071a565b6108498461072c565b81016020851015610858578190505b61086c6108648561072c565b83018261080c565b50505b505050565b5f82821c905092915050565b5f61088f5f1984600802610874565b1980831691505092915050565b5f6108a78383610880565b9150826002028217905092915050565b6108c0826105fe565b67ffffffffffffffff8111156108d9576108d86103a8565b5b6108e382546106ea565b6108ee82828561082e565b5f60209050601f83116001811461091f575f841561090d578287015190505b610917858261089c565b86555061097e565b601f19841661092d8661071a565b5f5b828110156109545784890151825560018201915060208501945060208101905061092f565b86831015610971578489015161096d601f891682610880565b8355505b6001600288020188555050505b50505050505056fea2646970667358221220b00abe3ca9dd4b583afe6010a873919cd6aa00c382d01a175f1efceec5ebf04664736f6c634300081a0033",
					"opcodes": "PUSH1 0x80 PUSH1 0x40 MSTORE CALLVALUE DUP1 ISZERO PUSH1 0xE JUMPI PUSH0 DUP1 REVERT JUMPDEST POP PUSH2 0x9BC DUP1 PUSH2 0x1C PUSH0 CODECOPY PUSH0 RETURN INVALID PUSH1 0x80 PUSH1 0x40 MSTORE CALLVALUE DUP1 ISZERO PUSH2 0xF JUMPI PUSH0 DUP1 REVERT JUMPDEST POP PUSH1 0x4 CALLDATASIZE LT PUSH2 0x34 JUMPI PUSH0 CALLDATALOAD PUSH1 0xE0 SHR DUP1 PUSH4 0x324E0CE5 EQ PUSH2 0x38 JUMPI DUP1 PUSH4 0x908959ED EQ PUSH2 0x54 JUMPI JUMPDEST PUSH0 DUP1 REVERT JUMPDEST PUSH2 0x52 PUSH1 0x4 DUP1 CALLDATASIZE SUB DUP2 ADD SWAP1 PUSH2 0x4D SWAP2 SWAP1 PUSH2 0x4CC JUMP JUMPDEST PUSH2 0x87 JUMP JUMPDEST STOP JUMPDEST PUSH2 0x6E PUSH1 0x4 DUP1 CALLDATASIZE SUB DUP2 ADD SWAP1 PUSH2 0x69 SWAP2 SWAP1 PUSH2 0x5D3 JUMP JUMPDEST PUSH2 0x12D JUMP JUMPDEST PUSH1 0x40 MLOAD PUSH2 0x7E SWAP5 SWAP4 SWAP3 SWAP2 SWAP1 PUSH2 0x65E JUMP JUMPDEST PUSH1 0x40 MLOAD DUP1 SWAP2 SUB SWAP1 RETURN JUMPDEST PUSH0 PUSH1 0x40 MLOAD DUP1 PUSH1 0x80 ADD PUSH1 0x40 MSTORE DUP1 DUP7 DUP2 MSTORE PUSH1 0x20 ADD DUP6 DUP2 MSTORE PUSH1 0x20 ADD DUP5 DUP2 MSTORE PUSH1 0x20 ADD DUP4 DUP2 MSTORE POP SWAP1 DUP1 PUSH1 0x1 DUP2 SLOAD ADD DUP1 DUP3 SSTORE DUP1 SWAP2 POP POP PUSH1 0x1 SWAP1 SUB SWAP1 PUSH0 MSTORE PUSH1 0x20 PUSH0 KECCAK256 SWAP1 PUSH1 0x4 MUL ADD PUSH0 SWAP1 SWAP2 SWAP1 SWAP2 SWAP1 SWAP2 POP PUSH0 DUP3 ADD MLOAD DUP2 PUSH0 ADD SWAP1 DUP2 PUSH2 0xE2 SWAP2 SWAP1 PUSH2 0x8B7 JUMP JUMPDEST POP PUSH1 0x20 DUP3 ADD MLOAD DUP2 PUSH1 0x1 ADD SWAP1 DUP2 PUSH2 0xF8 SWAP2 SWAP1 PUSH2 0x8B7 JUMP JUMPDEST POP PUSH1 0x40 DUP3 ADD MLOAD DUP2 PUSH1 0x2 ADD SWAP1 DUP2 PUSH2 0x10E SWAP2 SWAP1 PUSH2 0x8B7 JUMP JUMPDEST POP PUSH1 0x60 DUP3 ADD MLOAD DUP2 PUSH1 0x3 ADD SWAP1 DUP2 PUSH2 0x124 SWAP2 SWAP1 PUSH2 0x8B7 JUMP JUMPDEST POP POP POP POP POP POP POP JUMP JUMPDEST PUSH0 DUP2 DUP2 SLOAD DUP2 LT PUSH2 0x13B JUMPI PUSH0 DUP1 REVERT JUMPDEST SWAP1 PUSH0 MSTORE PUSH1 0x20 PUSH0 KECCAK256 SWAP1 PUSH1 0x4 MUL ADD PUSH0 SWAP2 POP SWAP1 POP DUP1 PUSH0 ADD DUP1 SLOAD PUSH2 0x15A SWAP1 PUSH2 0x6EA JUMP JUMPDEST DUP1 PUSH1 0x1F ADD PUSH1 0x20 DUP1 SWAP2 DIV MUL PUSH1 0x20 ADD PUSH1 0x40 MLOAD SWAP1 DUP2 ADD PUSH1 0x40 MSTORE DUP1 SWAP3 SWAP2 SWAP1 DUP2 DUP2 MSTORE PUSH1 0x20 ADD DUP3 DUP1 SLOAD PUSH2 0x186 SWAP1 PUSH2 0x6EA JUMP JUMPDEST DUP1 ISZERO PUSH2 0x1D1 JUMPI DUP1 PUSH1 0x1F LT PUSH2 0x1A8 JUMPI PUSH2 0x100 DUP1 DUP4 SLOAD DIV MUL DUP4 MSTORE SWAP2 PUSH1 0x20 ADD SWAP2 PUSH2 0x1D1 JUMP JUMPDEST DUP3 ADD SWAP2 SWAP1 PUSH0 MSTORE PUSH1 0x20 PUSH0 KECCAK256 SWAP1 JUMPDEST DUP2 SLOAD DUP2 MSTORE SWAP1 PUSH1 0x1 ADD SWAP1 PUSH1 0x20 ADD DUP1 DUP4 GT PUSH2 0x1B4 JUMPI DUP3 SWAP1 SUB PUSH1 0x1F AND DUP3 ADD SWAP2 JUMPDEST POP POP POP POP POP SWAP1 DUP1 PUSH1 0x1 ADD DUP1 SLOAD PUSH2 0x1E6 SWAP1 PUSH2 0x6EA JUMP JUMPDEST DUP1 PUSH1 0x1F ADD PUSH1 0x20 DUP1 SWAP2 DIV MUL PUSH1 0x20 ADD PUSH1 0x40 MLOAD SWAP1 DUP2 ADD PUSH1 0x40 MSTORE DUP1 SWAP3 SWAP2 SWAP1 DUP2 DUP2 MSTORE PUSH1 0x20 ADD DUP3 DUP1 SLOAD PUSH2 0x212 SWAP1 PUSH2 0x6EA JUMP JUMPDEST DUP1 ISZERO PUSH2 0x25D JUMPI DUP1 PUSH1 0x1F LT PUSH2 0x234 JUMPI PUSH2 0x100 DUP1 DUP4 SLOAD DIV MUL DUP4 MSTORE SWAP2 PUSH1 0x20 ADD SWAP2 PUSH2 0x25D JUMP JUMPDEST DUP3 ADD SWAP2 SWAP1 PUSH0 MSTORE PUSH1 0x20 PUSH0 KECCAK256 SWAP1 JUMPDEST DUP2 SLOAD DUP2 MSTORE SWAP1 PUSH1 0x1 ADD SWAP1 PUSH1 0x20 ADD DUP1 DUP4 GT PUSH2 0x240 JUMPI DUP3 SWAP1 SUB PUSH1 0x1F AND DUP3 ADD SWAP2 JUMPDEST POP POP POP POP POP SWAP1 DUP1 PUSH1 0x2 ADD DUP1 SLOAD PUSH2 0x272 SWAP1 PUSH2 0x6EA JUMP JUMPDEST DUP1 PUSH1 0x1F ADD PUSH1 0x20 DUP1 SWAP2 DIV MUL PUSH1 0x20 ADD PUSH1 0x40 MLOAD SWAP1 DUP2 ADD PUSH1 0x40 MSTORE DUP1 SWAP3 SWAP2 SWAP1 DUP2 DUP2 MSTORE PUSH1 0x20 ADD DUP3 DUP1 SLOAD PUSH2 0x29E SWAP1 PUSH2 0x6EA JUMP JUMPDEST DUP1 ISZERO PUSH2 0x2E9 JUMPI DUP1 PUSH1 0x1F LT PUSH2 0x2C0 JUMPI PUSH2 0x100 DUP1 DUP4 SLOAD DIV MUL DUP4 MSTORE SWAP2 PUSH1 0x20 ADD SWAP2 PUSH2 0x2E9 JUMP JUMPDEST DUP3 ADD SWAP2 SWAP1 PUSH0 MSTORE PUSH1 0x20 PUSH0 KECCAK256 SWAP1 JUMPDEST DUP2 SLOAD DUP2 MSTORE SWAP1 PUSH1 0x1 ADD SWAP1 PUSH1 0x20 ADD DUP1 DUP4 GT PUSH2 0x2CC JUMPI DUP3 SWAP1 SUB PUSH1 0x1F AND DUP3 ADD SWAP2 JUMPDEST POP POP POP POP POP SWAP1 DUP1 PUSH1 0x3 ADD DUP1 SLOAD PUSH2 0x2FE SWAP1 PUSH2 0x6EA JUMP JUMPDEST DUP1 PUSH1 0x1F ADD PUSH1 0x20 DUP1 SWAP2 DIV MUL PUSH1 0x20 ADD PUSH1 0x40 MLOAD SWAP1 DUP2 ADD PUSH1 0x40 MSTORE DUP1 SWAP3 SWAP2 SWAP1 DUP2 DUP2 MSTORE PUSH1 0x20 ADD DUP3 DUP1 SLOAD PUSH2 0x32A SWAP1 PUSH2 0x6EA JUMP JUMPDEST DUP1 ISZERO PUSH2 0x375 JUMPI DUP1 PUSH1 0x1F LT PUSH2 0x34C JUMPI PUSH2 0x100 DUP1 DUP4 SLOAD DIV MUL DUP4 MSTORE SWAP2 PUSH1 0x20 ADD SWAP2 PUSH2 0x375 JUMP JUMPDEST DUP3 ADD SWAP2 SWAP1 PUSH0 MSTORE PUSH1 0x20 PUSH0 KECCAK256 SWAP1 JUMPDEST DUP2 SLOAD DUP2 MSTORE SWAP1 PUSH1 0x1 ADD SWAP1 PUSH1 0x20 ADD DUP1 DUP4 GT PUSH2 0x358 JUMPI DUP3 SWAP1 SUB PUSH1 0x1F AND DUP3 ADD SWAP2 JUMPDEST POP POP POP POP POP SWAP1 POP DUP5 JUMP JUMPDEST PUSH0 PUSH1 0x40 MLOAD SWAP1 POP SWAP1 JUMP JUMPDEST PUSH0 DUP1 REVERT JUMPDEST PUSH0 DUP1 REVERT JUMPDEST PUSH0 DUP1 REVERT JUMPDEST PUSH0 DUP1 REVERT JUMPDEST PUSH0 PUSH1 0x1F NOT PUSH1 0x1F DUP4 ADD AND SWAP1 POP SWAP2 SWAP1 POP JUMP JUMPDEST PUSH32 0x4E487B7100000000000000000000000000000000000000000000000000000000 PUSH0 MSTORE PUSH1 0x41 PUSH1 0x4 MSTORE PUSH1 0x24 PUSH0 REVERT JUMPDEST PUSH2 0x3DE DUP3 PUSH2 0x398 JUMP JUMPDEST DUP2 ADD DUP2 DUP2 LT PUSH8 0xFFFFFFFFFFFFFFFF DUP3 GT OR ISZERO PUSH2 0x3FD JUMPI PUSH2 0x3FC PUSH2 0x3A8 JUMP JUMPDEST JUMPDEST DUP1 PUSH1 0x40 MSTORE POP POP POP JUMP JUMPDEST PUSH0 PUSH2 0x40F PUSH2 0x37F JUMP JUMPDEST SWAP1 POP PUSH2 0x41B DUP3 DUP3 PUSH2 0x3D5 JUMP JUMPDEST SWAP2 SWAP1 POP JUMP JUMPDEST PUSH0 PUSH8 0xFFFFFFFFFFFFFFFF DUP3 GT ISZERO PUSH2 0x43A JUMPI PUSH2 0x439 PUSH2 0x3A8 JUMP JUMPDEST JUMPDEST PUSH2 0x443 DUP3 PUSH2 0x398 JUMP JUMPDEST SWAP1 POP PUSH1 0x20 DUP2 ADD SWAP1 POP SWAP2 SWAP1 POP JUMP JUMPDEST DUP3 DUP2 DUP4 CALLDATACOPY PUSH0 DUP4 DUP4 ADD MSTORE POP POP POP JUMP JUMPDEST PUSH0 PUSH2 0x470 PUSH2 0x46B DUP5 PUSH2 0x420 JUMP JUMPDEST PUSH2 0x406 JUMP JUMPDEST SWAP1 POP DUP3 DUP2 MSTORE PUSH1 0x20 DUP2 ADD DUP5 DUP5 DUP5 ADD GT ISZERO PUSH2 0x48C JUMPI PUSH2 0x48B PUSH2 0x394 JUMP JUMPDEST JUMPDEST PUSH2 0x497 DUP5 DUP3 DUP6 PUSH2 0x450 JUMP JUMPDEST POP SWAP4 SWAP3 POP POP POP JUMP JUMPDEST PUSH0 DUP3 PUSH1 0x1F DUP4 ADD SLT PUSH2 0x4B3 JUMPI PUSH2 0x4B2 PUSH2 0x390 JUMP JUMPDEST JUMPDEST DUP2 CALLDATALOAD PUSH2 0x4C3 DUP5 DUP3 PUSH1 0x20 DUP7 ADD PUSH2 0x45E JUMP JUMPDEST SWAP2 POP POP SWAP3 SWAP2 POP POP JUMP JUMPDEST PUSH0 DUP1 PUSH0 DUP1 PUSH1 0x80 DUP6 DUP8 SUB SLT ISZERO PUSH2 0x4E4 JUMPI PUSH2 0x4E3 PUSH2 0x388 JUMP JUMPDEST JUMPDEST PUSH0 DUP6 ADD CALLDATALOAD PUSH8 0xFFFFFFFFFFFFFFFF DUP2 GT ISZERO PUSH2 0x501 JUMPI PUSH2 0x500 PUSH2 0x38C JUMP JUMPDEST JUMPDEST PUSH2 0x50D DUP8 DUP3 DUP9 ADD PUSH2 0x49F JUMP JUMPDEST SWAP5 POP POP PUSH1 0x20 DUP6 ADD CALLDATALOAD PUSH8 0xFFFFFFFFFFFFFFFF DUP2 GT ISZERO PUSH2 0x52E JUMPI PUSH2 0x52D PUSH2 0x38C JUMP JUMPDEST JUMPDEST PUSH2 0x53A DUP8 DUP3 DUP9 ADD PUSH2 0x49F JUMP JUMPDEST SWAP4 POP POP PUSH1 0x40 DUP6 ADD CALLDATALOAD PUSH8 0xFFFFFFFFFFFFFFFF DUP2 GT ISZERO PUSH2 0x55B JUMPI PUSH2 0x55A PUSH2 0x38C JUMP JUMPDEST JUMPDEST PUSH2 0x567 DUP8 DUP3 DUP9 ADD PUSH2 0x49F JUMP JUMPDEST SWAP3 POP POP PUSH1 0x60 DUP6 ADD CALLDATALOAD PUSH8 0xFFFFFFFFFFFFFFFF DUP2 GT ISZERO PUSH2 0x588 JUMPI PUSH2 0x587 PUSH2 0x38C JUMP JUMPDEST JUMPDEST PUSH2 0x594 DUP8 DUP3 DUP9 ADD PUSH2 0x49F JUMP JUMPDEST SWAP2 POP POP SWAP3 SWAP6 SWAP2 SWAP5 POP SWAP3 POP JUMP JUMPDEST PUSH0 DUP2 SWAP1 POP SWAP2 SWAP1 POP JUMP JUMPDEST PUSH2 0x5B2 DUP2 PUSH2 0x5A0 JUMP JUMPDEST DUP2 EQ PUSH2 0x5BC JUMPI PUSH0 DUP1 REVERT JUMPDEST POP JUMP JUMPDEST PUSH0 DUP2 CALLDATALOAD SWAP1 POP PUSH2 0x5CD DUP2 PUSH2 0x5A9 JUMP JUMPDEST SWAP3 SWAP2 POP POP JUMP JUMPDEST PUSH0 PUSH1 0x20 DUP3 DUP5 SUB SLT ISZERO PUSH2 0x5E8 JUMPI PUSH2 0x5E7 PUSH2 0x388 JUMP JUMPDEST JUMPDEST PUSH0 PUSH2 0x5F5 DUP5 DUP3 DUP6 ADD PUSH2 0x5BF JUMP JUMPDEST SWAP2 POP POP SWAP3 SWAP2 POP POP JUMP JUMPDEST PUSH0 DUP2 MLOAD SWAP1 POP SWAP2 SWAP1 POP JUMP JUMPDEST PUSH0 DUP3 DUP3 MSTORE PUSH1 0x20 DUP3 ADD SWAP1 POP SWAP3 SWAP2 POP POP JUMP JUMPDEST DUP3 DUP2 DUP4 MCOPY PUSH0 DUP4 DUP4 ADD MSTORE POP POP POP JUMP JUMPDEST PUSH0 PUSH2 0x630 DUP3 PUSH2 0x5FE JUMP JUMPDEST PUSH2 0x63A DUP2 DUP6 PUSH2 0x608 JUMP JUMPDEST SWAP4 POP PUSH2 0x64A DUP2 DUP6 PUSH1 0x20 DUP7 ADD PUSH2 0x618 JUMP JUMPDEST PUSH2 0x653 DUP2 PUSH2 0x398 JUMP JUMPDEST DUP5 ADD SWAP2 POP POP SWAP3 SWAP2 POP POP JUMP JUMPDEST PUSH0 PUSH1 0x80 DUP3 ADD SWAP1 POP DUP2 DUP2 SUB PUSH0 DUP4 ADD MSTORE PUSH2 0x676 DUP2 DUP8 PUSH2 0x626 JUMP JUMPDEST SWAP1 POP DUP2 DUP2 SUB PUSH1 0x20 DUP4 ADD MSTORE PUSH2 0x68A DUP2 DUP7 PUSH2 0x626 JUMP JUMPDEST SWAP1 POP DUP2 DUP2 SUB PUSH1 0x40 DUP4 ADD MSTORE PUSH2 0x69E DUP2 DUP6 PUSH2 0x626 JUMP JUMPDEST SWAP1 POP DUP2 DUP2 SUB PUSH1 0x60 DUP4 ADD MSTORE PUSH2 0x6B2 DUP2 DUP5 PUSH2 0x626 JUMP JUMPDEST SWAP1 POP SWAP6 SWAP5 POP POP POP POP POP JUMP JUMPDEST PUSH32 0x4E487B7100000000000000000000000000000000000000000000000000000000 PUSH0 MSTORE PUSH1 0x22 PUSH1 0x4 MSTORE PUSH1 0x24 PUSH0 REVERT JUMPDEST PUSH0 PUSH1 0x2 DUP3 DIV SWAP1 POP PUSH1 0x1 DUP3 AND DUP1 PUSH2 0x701 JUMPI PUSH1 0x7F DUP3 AND SWAP2 POP JUMPDEST PUSH1 0x20 DUP3 LT DUP2 SUB PUSH2 0x714 JUMPI PUSH2 0x713 PUSH2 0x6BD JUMP JUMPDEST JUMPDEST POP SWAP2 SWAP1 POP JUMP JUMPDEST PUSH0 DUP2 SWAP1 POP DUP2 PUSH0 MSTORE PUSH1 0x20 PUSH0 KECCAK256 SWAP1 POP SWAP2 SWAP1 POP JUMP JUMPDEST PUSH0 PUSH1 0x20 PUSH1 0x1F DUP4 ADD DIV SWAP1 POP SWAP2 SWAP1 POP JUMP JUMPDEST PUSH0 DUP3 DUP3 SHL SWAP1 POP SWAP3 SWAP2 POP POP JUMP JUMPDEST PUSH0 PUSH1 0x8 DUP4 MUL PUSH2 0x776 PUSH32 0xFFFFFFFFFFFFFFFFFFFFFFFFFFFFFFFFFFFFFFFFFFFFFFFFFFFFFFFFFFFFFFFF DUP3 PUSH2 0x73B JUMP JUMPDEST PUSH2 0x780 DUP7 DUP4 PUSH2 0x73B JUMP JUMPDEST SWAP6 POP DUP1 NOT DUP5 AND SWAP4 POP DUP1 DUP7 AND DUP5 OR SWAP3 POP POP POP SWAP4 SWAP3 POP POP POP JUMP JUMPDEST PUSH0 DUP2 SWAP1 POP SWAP2 SWAP1 POP JUMP JUMPDEST PUSH0 PUSH2 0x7BB PUSH2 0x7B6 PUSH2 0x7B1 DUP5 PUSH2 0x5A0 JUMP JUMPDEST PUSH2 0x798 JUMP JUMPDEST PUSH2 0x5A0 JUMP JUMPDEST SWAP1 POP SWAP2 SWAP1 POP JUMP JUMPDEST PUSH0 DUP2 SWAP1 POP SWAP2 SWAP1 POP JUMP JUMPDEST PUSH2 0x7D4 DUP4 PUSH2 0x7A1 JUMP JUMPDEST PUSH2 0x7E8 PUSH2 0x7E0 DUP3 PUSH2 0x7C2 JUMP JUMPDEST DUP5 DUP5 SLOAD PUSH2 0x747 JUMP JUMPDEST DUP3 SSTORE POP POP POP POP JUMP JUMPDEST PUSH0 SWAP1 JUMP JUMPDEST PUSH2 0x7FC PUSH2 0x7F0 JUMP JUMPDEST PUSH2 0x807 DUP2 DUP5 DUP5 PUSH2 0x7CB JUMP JUMPDEST POP POP POP JUMP JUMPDEST JUMPDEST DUP2 DUP2 LT ISZERO PUSH2 0x82A JUMPI PUSH2 0x81F PUSH0 DUP3 PUSH2 0x7F4 JUMP JUMPDEST PUSH1 0x1 DUP2 ADD SWAP1 POP PUSH2 0x80D JUMP JUMPDEST POP POP JUMP JUMPDEST PUSH1 0x1F DUP3 GT ISZERO PUSH2 0x86F JUMPI PUSH2 0x840 DUP2 PUSH2 0x71A JUMP JUMPDEST PUSH2 0x849 DUP5 PUSH2 0x72C JUMP JUMPDEST DUP2 ADD PUSH1 0x20 DUP6 LT ISZERO PUSH2 0x858 JUMPI DUP2 SWAP1 POP JUMPDEST PUSH2 0x86C PUSH2 0x864 DUP6 PUSH2 0x72C JUMP JUMPDEST DUP4 ADD DUP3 PUSH2 0x80C JUMP JUMPDEST POP POP JUMPDEST POP POP POP JUMP JUMPDEST PUSH0 DUP3 DUP3 SHR SWAP1 POP SWAP3 SWAP2 POP POP JUMP JUMPDEST PUSH0 PUSH2 0x88F PUSH0 NOT DUP5 PUSH1 0x8 MUL PUSH2 0x874 JUMP JUMPDEST NOT DUP1 DUP4 AND SWAP2 POP POP SWAP3 SWAP2 POP POP JUMP JUMPDEST PUSH0 PUSH2 0x8A7 DUP4 DUP4 PUSH2 0x880 JUMP JUMPDEST SWAP2 POP DUP3 PUSH1 0x2 MUL DUP3 OR SWAP1 POP SWAP3 SWAP2 POP POP JUMP JUMPDEST PUSH2 0x8C0 DUP3 PUSH2 0x5FE JUMP JUMPDEST PUSH8 0xFFFFFFFFFFFFFFFF DUP2 GT ISZERO PUSH2 0x8D9 JUMPI PUSH2 0x8D8 PUSH2 0x3A8 JUMP JUMPDEST JUMPDEST PUSH2 0x8E3 DUP3 SLOAD PUSH2 0x6EA JUMP JUMPDEST PUSH2 0x8EE DUP3 DUP3 DUP6 PUSH2 0x82E JUMP JUMPDEST PUSH0 PUSH1 0x20 SWAP1 POP PUSH1 0x1F DUP4 GT PUSH1 0x1 DUP2 EQ PUSH2 0x91F JUMPI PUSH0 DUP5 ISZERO PUSH2 0x90D JUMPI DUP3 DUP8 ADD MLOAD SWAP1 POP JUMPDEST PUSH2 0x917 DUP6 DUP3 PUSH2 0x89C JUMP JUMPDEST DUP7 SSTORE POP PUSH2 0x97E JUMP JUMPDEST PUSH1 0x1F NOT DUP5 AND PUSH2 0x92D DUP7 PUSH2 0x71A JUMP JUMPDEST PUSH0 JUMPDEST DUP3 DUP2 LT ISZERO PUSH2 0x954 JUMPI DUP5 DUP10 ADD MLOAD DUP3 SSTORE PUSH1 0x1 DUP3 ADD SWAP2 POP PUSH1 0x20 DUP6 ADD SWAP5 POP PUSH1 0x20 DUP2 ADD SWAP1 POP PUSH2 0x92F JUMP JUMPDEST DUP7 DUP4 LT ISZERO PUSH2 0x971 JUMPI DUP5 DUP10 ADD MLOAD PUSH2 0x96D PUSH1 0x1F DUP10 AND DUP3 PUSH2 0x880 JUMP JUMPDEST DUP4 SSTORE POP JUMPDEST PUSH1 0x1 PUSH1 0x2 DUP9 MUL ADD DUP9 SSTORE POP POP POP JUMPDEST POP POP POP POP POP POP JUMP INVALID LOG2 PUSH5 0x6970667358 0x22 SLT KECCAK256 0xB0 EXP 0xBE EXTCODECOPY 0xA9 0xDD 0x4B PC GASPRICE INVALID PUSH1 0x10 0xA8 PUSH20 0x919CD6AA00C382D01A175F1EFCEEC5EBF0466473 PUSH16 0x6C634300081A00330000000000000000 "
				},
				"gasEstimates": {
					"creation": {
						"codeDepositCost": "498400",
						"executionCost": "528",
						"totalCost": "498928"
					},
					"external": {
						"arrayPerson(uint256)": "infinite",
						"storeData(string,string,string,string)": "infinite"
					}
				},
				"methodIdentifiers": {
					"arrayPerson(uint256)": "908959ed",
					"storeData(string,string,string,string)": "324e0ce5"
				}
			},
			"storageLayout": {
				"storage": [
					{
						"astId": 14,
						"contract": "contracts/DataStore.sol:DataStore",
						"label": "arrayPerson",
						"offset": 0,
						"slot": "0",
						"type": "t_array(t_struct(Person)10_storage)dyn_storage"
					}
				],
				"types": {
					"t_array(t_struct(Person)10_storage)dyn_storage": {
						"base": "t_struct(Person)10_storage",
						"encoding": "dynamic_array",
						"label": "struct DataStore.Person[]",
						"numberOfBytes": "32"
					},
					"t_string_storage": {
						"encoding": "bytes",
						"label": "string",
						"numberOfBytes": "32"
					},
					"t_struct(Person)10_storage": {
						"encoding": "inplace",
						"label": "struct DataStore.Person",
						"members": [
							{
								"astId": 3,
								"contract": "contracts/DataStore.sol:DataStore",
								"label": "name",
								"offset": 0,
								"slot": "0",
								"type": "t_string_storage"
							},
							{
								"astId": 5,
								"contract": "contracts/DataStore.sol:DataStore",
								"label": "homeAddress",
								"offset": 0,
								"slot": "1",
								"type": "t_string_storage"
							},
							{
								"astId": 7,
								"contract": "contracts/DataStore.sol:DataStore",
								"label": "birthDate",
								"offset": 0,
								"slot": "2",
								"type": "t_string_storage"
							},
							{
								"astId": 9,
								"contract": "contracts/DataStore.sol:DataStore",
								"label": "gender",
								"offset": 0,
								"slot": "3",
								"type": "t_string_storage"
							}
						],
						"numberOfBytes": "128"
					}
				}
			},
			"userdoc": {
				"kind": "user",
				"methods": {},
				"version": 1
			}
		}
	}
}