{
	"data": {
		"bytecode": {
			"linkReferences": {},
			"object": "60806040526802b5e3af16b1880000600255348015601b575f80fd5b506106ea806100295f395ff3fe608060405260043610610054575f3560e01c8063098de820146100585780633e47d6f3146100825780636e5b6b28146100be57806398d5fdca146100fa578063b60d428814610124578063dc0d3dff1461012e575b5f80fd5b348015610063575f80fd5b5061006c61016a565b6040516100799190610357565b60405180910390f35b34801561008d575f80fd5b506100a860048036038101906100a391906103ce565b610170565b6040516100b59190610357565b60405180910390f35b3480156100c9575f80fd5b506100e460048036038101906100df9190610423565b610185565b6040516100f19190610357565b60405180910390f35b348015610105575f80fd5b5061010e6101bd565b60405161011b9190610357565b60405180910390f35b61012c610262565b005b348015610139575f80fd5b50610154600480360381019061014f9190610423565b610305565b604051610161919061045d565b60405180910390f35b60025481565b6001602052805f5260405f205f915090505481565b5f8061018f6101bd565b90505f670de0b6b3a764000084836101a791906104a3565b6101b19190610511565b90508092505050919050565b5f8073694aa1769357215de4fac081bf1f309adc32530690505f8173ffffffffffffffffffffffffffffffffffffffff1663feaf968c6040518163ffffffff1660e01b815260040160a060405180830381865afa158015610220573d5f803e3d5ffd5b505050506040513d601f19601f8201168201806040525081019061024491906105c7565b5050509150506402540be4008161025b919061063e565b9250505090565b5f33908060018154018082558091505060019003905f5260205f20015f9091909190916101000a81548173ffffffffffffffffffffffffffffffffffffffff021916908373ffffffffffffffffffffffffffffffffffffffff1602179055503460015f3373ffffffffffffffffffffffffffffffffffffffff1673ffffffffffffffffffffffffffffffffffffffff1681526020019081526020015f2081905550565b5f8181548110610313575f80fd5b905f5260205f20015f915054906101000a900473ffffffffffffffffffffffffffffffffffffffff1681565b5f819050919050565b6103518161033f565b82525050565b5f60208201905061036a5f830184610348565b92915050565b5f80fd5b5f73ffffffffffffffffffffffffffffffffffffffff82169050919050565b5f61039d82610374565b9050919050565b6103ad81610393565b81146103b7575f80fd5b50565b5f813590506103c8816103a4565b92915050565b5f602082840312156103e3576103e2610370565b5b5f6103f0848285016103ba565b91505092915050565b6104028161033f565b811461040c575f80fd5b50565b5f8135905061041d816103f9565b92915050565b5f6020828403121561043857610437610370565b5b5f6104458482850161040f565b91505092915050565b61045781610393565b82525050565b5f6020820190506104705f83018461044e565b92915050565b7f4e487b71000000000000000000000000000000000000000000000000000000005f52601160045260245ffd5b5f6104ad8261033f565b91506104b88361033f565b92508282026104c68161033f565b915082820484148315176104dd576104dc610476565b5b5092915050565b7f4e487b71000000000000000000000000000000000000000000000000000000005f52601260045260245ffd5b5f61051b8261033f565b91506105268361033f565b925082610536576105356104e4565b5b828204905092915050565b5f69ffffffffffffffffffff82169050919050565b61055f81610541565b8114610569575f80fd5b50565b5f8151905061057a81610556565b92915050565b5f819050919050565b61059281610580565b811461059c575f80fd5b50565b5f815190506105ad81610589565b92915050565b5f815190506105c1816103f9565b92915050565b5f805f805f60a086880312156105e0576105df610370565b5b5f6105ed8882890161056c565b95505060206105fe8882890161059f565b945050604061060f888289016105b3565b9350506060610620888289016105b3565b92505060806106318882890161056c565b9150509295509295909350565b5f61064882610580565b915061065383610580565b925082820261066181610580565b91507f800000000000000000000000000000000000000000000000000000000000000084145f8412161561069857610697610476565b5b82820584148315176106ad576106ac610476565b5b509291505056fea26469706673582212200d3555f7b75cabb971a07a5202d4d0e9a79b8478e019970178589d15d93d132d64736f6c634300081a0033",
			"opcodes": "PUSH1 0x80 PUSH1 0x40 MSTORE PUSH9 0x2B5E3AF16B1880000 PUSH1 0x2 SSTORE CALLVALUE DUP1 ISZERO PUSH1 0x1B JUMPI PUSH0 DUP1 REVERT JUMPDEST POP PUSH2 0x6EA DUP1 PUSH2 0x29 PUSH0 CODECOPY PUSH0 RETURN INVALID PUSH1 0x80 PUSH1 0x40 MSTORE PUSH1 0x4 CALLDATASIZE LT PUSH2 0x54 JUMPI PUSH0 CALLDATALOAD PUSH1 0xE0 SHR DUP1 PUSH4 0x98DE820 EQ PUSH2 0x58 JUMPI DUP1 PUSH4 0x3E47D6F3 EQ PUSH2 0x82 JUMPI DUP1 PUSH4 0x6E5B6B28 EQ PUSH2 0xBE JUMPI DUP1 PUSH4 0x98D5FDCA EQ PUSH2 0xFA JUMPI DUP1 PUSH4 0xB60D4288 EQ PUSH2 0x124 JUMPI DUP1 PUSH4 0xDC0D3DFF EQ PUSH2 0x12E JUMPI JUMPDEST PUSH0 DUP1 REVERT JUMPDEST CALLVALUE DUP1 ISZERO PUSH2 0x63 JUMPI PUSH0 DUP1 REVERT JUMPDEST POP PUSH2 0x6C PUSH2 0x16A JUMP JUMPDEST PUSH1 0x40 MLOAD PUSH2 0x79 SWAP2 SWAP1 PUSH2 0x357 JUMP JUMPDEST PUSH1 0x40 MLOAD DUP1 SWAP2 SUB SWAP1 RETURN JUMPDEST CALLVALUE DUP1 ISZERO PUSH2 0x8D JUMPI PUSH0 DUP1 REVERT JUMPDEST POP PUSH2 0xA8 PUSH1 0x4 DUP1 CALLDATASIZE SUB DUP2 ADD SWAP1 PUSH2 0xA3 SWAP2 SWAP1 PUSH2 0x3CE JUMP JUMPDEST PUSH2 0x170 JUMP JUMPDEST PUSH1 0x40 MLOAD PUSH2 0xB5 SWAP2 SWAP1 PUSH2 0x357 JUMP JUMPDEST PUSH1 0x40 MLOAD DUP1 SWAP2 SUB SWAP1 RETURN JUMPDEST CALLVALUE DUP1 ISZERO PUSH2 0xC9 JUMPI PUSH0 DUP1 REVERT JUMPDEST POP PUSH2 0xE4 PUSH1 0x4 DUP1 CALLDATASIZE SUB DUP2 ADD SWAP1 PUSH2 0xDF SWAP2 SWAP1 PUSH2 0x423 JUMP JUMPDEST PUSH2 0x185 JUMP JUMPDEST PUSH1 0x40 MLOAD PUSH2 0xF1 SWAP2 SWAP1 PUSH2 0x357 JUMP JUMPDEST PUSH1 0x40 MLOAD DUP1 SWAP2 SUB SWAP1 RETURN JUMPDEST CALLVALUE DUP1 ISZERO PUSH2 0x105 JUMPI PUSH0 DUP1 REVERT JUMPDEST POP PUSH2 0x10E PUSH2 0x1BD JUMP JUMPDEST PUSH1 0x40 MLOAD PUSH2 0x11B SWAP2 SWAP1 PUSH2 0x357 JUMP JUMPDEST PUSH1 0x40 MLOAD DUP1 SWAP2 SUB SWAP1 RETURN JUMPDEST PUSH2 0x12C PUSH2 0x262 JUMP JUMPDEST STOP JUMPDEST CALLVALUE DUP1 ISZERO PUSH2 0x139 JUMPI PUSH0 DUP1 REVERT JUMPDEST POP PUSH2 0x154 PUSH1 0x4 DUP1 CALLDATASIZE SUB DUP2 ADD SWAP1 PUSH2 0x14F SWAP2 SWAP1 PUSH2 0x423 JUMP JUMPDEST PUSH2 0x305 JUMP JUMPDEST PUSH1 0x40 MLOAD PUSH2 0x161 SWAP2 SWAP1 PUSH2 0x45D JUMP JUMPDEST PUSH1 0x40 MLOAD DUP1 SWAP2 SUB SWAP1 RETURN JUMPDEST PUSH1 0x2 SLOAD DUP2 JUMP JUMPDEST PUSH1 0x1 PUSH1 0x20 MSTORE DUP1 PUSH0 MSTORE PUSH1 0x40 PUSH0 KECCAK256 PUSH0 SWAP2 POP SWAP1 POP SLOAD DUP2 JUMP JUMPDEST PUSH0 DUP1 PUSH2 0x18F PUSH2 0x1BD JUMP JUMPDEST SWAP1 POP PUSH0 PUSH8 0xDE0B6B3A7640000 DUP5 DUP4 PUSH2 0x1A7 SWAP2 SWAP1 PUSH2 0x4A3 JUMP JUMPDEST PUSH2 0x1B1 SWAP2 SWAP1 PUSH2 0x511 JUMP JUMPDEST SWAP1 POP DUP1 SWAP3 POP POP POP SWAP2 SWAP1 POP JUMP JUMPDEST PUSH0 DUP1 PUSH20 0x694AA1769357215DE4FAC081BF1F309ADC325306 SWAP1 POP PUSH0 DUP2 PUSH20 0xFFFFFFFFFFFFFFFFFFFFFFFFFFFFFFFFFFFFFFFF AND PUSH4 0xFEAF968C PUSH1 0x40 MLOAD DUP2 PUSH4 0xFFFFFFFF AND PUSH1 0xE0 SHL DUP2 MSTORE PUSH1 0x4 ADD PUSH1 0xA0 PUSH1 0x40 MLOAD DUP1 DUP4 SUB DUP2 DUP7 GAS STATICCALL ISZERO DUP1 ISZERO PUSH2 0x220 JUMPI RETURNDATASIZE PUSH0 DUP1 RETURNDATACOPY RETURNDATASIZE PUSH0 REVERT JUMPDEST POP POP POP POP PUSH1 0x40 MLOAD RETURNDATASIZE PUSH1 0x1F NOT PUSH1 0x1F DUP3 ADD AND DUP3 ADD DUP1 PUSH1 0x40 MSTORE POP DUP2 ADD SWAP1 PUSH2 0x244 SWAP2 SWAP1 PUSH2 0x5C7 JUMP JUMPDEST POP POP POP SWAP2 POP POP PUSH5 0x2540BE400 DUP2 PUSH2 0x25B SWAP2 SWAP1 PUSH2 0x63E JUMP JUMPDEST SWAP3 POP POP POP SWAP1 JUMP JUMPDEST PUSH0 CALLER SWAP1 DUP1 PUSH1 0x1 DUP2 SLOAD ADD DUP1 DUP3 SSTORE DUP1 SWAP2 POP POP PUSH1 0x1 SWAP1 SUB SWAP1 PUSH0 MSTORE PUSH1 0x20 PUSH0 KECCAK256 ADD PUSH0 SWAP1 SWAP2 SWAP1 SWAP2 SWAP1 SWAP2 PUSH2 0x100 EXP DUP2 SLOAD DUP2 PUSH20 0xFFFFFFFFFFFFFFFFFFFFFFFFFFFFFFFFFFFFFFFF MUL NOT AND SWAP1 DUP4 PUSH20 0xFFFFFFFFFFFFFFFFFFFFFFFFFFFFFFFFFFFFFFFF AND MUL OR SWAP1 SSTORE POP CALLVALUE PUSH1 0x1 PUSH0 CALLER PUSH20 0xFFFFFFFFFFFFFFFFFFFFFFFFFFFFFFFFFFFFFFFF AND PUSH20 0xFFFFFFFFFFFFFFFFFFFFFFFFFFFFFFFFFFFFFFFF AND DUP2 MSTORE PUSH1 0x20 ADD SWAP1 DUP2 MSTORE PUSH1 0x20 ADD PUSH0 KECCAK256 DUP2 SWAP1 SSTORE POP JUMP JUMPDEST PUSH0 DUP2 DUP2 SLOAD DUP2 LT PUSH2 0x313 JUMPI PUSH0 DUP1 REVERT JUMPDEST SWAP1 PUSH0 MSTORE PUSH1 0x20 PUSH0 KECCAK256 ADD PUSH0 SWAP2 POP SLOAD SWAP1 PUSH2 0x100 EXP SWAP1 DIV PUSH20 0xFFFFFFFFFFFFFFFFFFFFFFFFFFFFFFFFFFFFFFFF AND DUP2 JUMP JUMPDEST PUSH0 DUP2 SWAP1 POP SWAP2 SWAP1 POP JUMP JUMPDEST PUSH2 0x351 DUP2 PUSH2 0x33F JUMP JUMPDEST DUP3 MSTORE POP POP JUMP JUMPDEST PUSH0 PUSH1 0x20 DUP3 ADD SWAP1 POP PUSH2 0x36A PUSH0 DUP4 ADD DUP5 PUSH2 0x348 JUMP JUMPDEST SWAP3 SWAP2 POP POP JUMP JUMPDEST PUSH0 DUP1 REVERT JUMPDEST PUSH0 PUSH20 0xFFFFFFFFFFFFFFFFFFFFFFFFFFFFFFFFFFFFFFFF DUP3 AND SWAP1 POP SWAP2 SWAP1 POP JUMP JUMPDEST PUSH0 PUSH2 0x39D DUP3 PUSH2 0x374 JUMP JUMPDEST SWAP1 POP SWAP2 SWAP1 POP JUMP JUMPDEST PUSH2 0x3AD DUP2 PUSH2 0x393 JUMP JUMPDEST DUP2 EQ PUSH2 0x3B7 JUMPI PUSH0 DUP1 REVERT JUMPDEST POP JUMP JUMPDEST PUSH0 DUP2 CALLDATALOAD SWAP1 POP PUSH2 0x3C8 DUP2 PUSH2 0x3A4 JUMP JUMPDEST SWAP3 SWAP2 POP POP JUMP JUMPDEST PUSH0 PUSH1 0x20 DUP3 DUP5 SUB SLT ISZERO PUSH2 0x3E3 JUMPI PUSH2 0x3E2 PUSH2 0x370 JUMP JUMPDEST JUMPDEST PUSH0 PUSH2 0x3F0 DUP5 DUP3 DUP6 ADD PUSH2 0x3BA JUMP JUMPDEST SWAP2 POP POP SWAP3 SWAP2 POP POP JUMP JUMPDEST PUSH2 0x402 DUP2 PUSH2 0x33F JUMP JUMPDEST DUP2 EQ PUSH2 0x40C JUMPI PUSH0 DUP1 REVERT JUMPDEST POP JUMP JUMPDEST PUSH0 DUP2 CALLDATALOAD SWAP1 POP PUSH2 0x41D DUP2 PUSH2 0x3F9 JUMP JUMPDEST SWAP3 SWAP2 POP POP JUMP JUMPDEST PUSH0 PUSH1 0x20 DUP3 DUP5 SUB SLT ISZERO PUSH2 0x438 JUMPI PUSH2 0x437 PUSH2 0x370 JUMP JUMPDEST JUMPDEST PUSH0 PUSH2 0x445 DUP5 DUP3 DUP6 ADD PUSH2 0x40F JUMP JUMPDEST SWAP2 POP POP SWAP3 SWAP2 POP POP JUMP JUMPDEST PUSH2 0x457 DUP2 PUSH2 0x393 JUMP JUMPDEST DUP3 MSTORE POP POP JUMP JUMPDEST PUSH0 PUSH1 0x20 DUP3 ADD SWAP1 POP PUSH2 0x470 PUSH0 DUP4 ADD DUP5 PUSH2 0x44E JUMP JUMPDEST SWAP3 SWAP2 POP POP JUMP JUMPDEST PUSH32 0x4E487B7100000000000000000000000000000000000000000000000000000000 PUSH0 MSTORE PUSH1 0x11 PUSH1 0x4 MSTORE PUSH1 0x24 PUSH0 REVERT JUMPDEST PUSH0 PUSH2 0x4AD DUP3 PUSH2 0x33F JUMP JUMPDEST SWAP2 POP PUSH2 0x4B8 DUP4 PUSH2 0x33F JUMP JUMPDEST SWAP3 POP DUP3 DUP3 MUL PUSH2 0x4C6 DUP2 PUSH2 0x33F JUMP JUMPDEST SWAP2 POP DUP3 DUP3 DIV DUP5 EQ DUP4 ISZERO OR PUSH2 0x4DD JUMPI PUSH2 0x4DC PUSH2 0x476 JUMP JUMPDEST JUMPDEST POP SWAP3 SWAP2 POP POP JUMP JUMPDEST PUSH32 0x4E487B7100000000000000000000000000000000000000000000000000000000 PUSH0 MSTORE PUSH1 0x12 PUSH1 0x4 MSTORE PUSH1 0x24 PUSH0 REVERT JUMPDEST PUSH0 PUSH2 0x51B DUP3 PUSH2 0x33F JUMP JUMPDEST SWAP2 POP PUSH2 0x526 DUP4 PUSH2 0x33F JUMP JUMPDEST SWAP3 POP DUP3 PUSH2 0x536 JUMPI PUSH2 0x535 PUSH2 0x4E4 JUMP JUMPDEST JUMPDEST DUP3 DUP3 DIV SWAP1 POP SWAP3 SWAP2 POP POP JUMP JUMPDEST PUSH0 PUSH10 0xFFFFFFFFFFFFFFFFFFFF DUP3 AND SWAP1 POP SWAP2 SWAP1 POP JUMP JUMPDEST PUSH2 0x55F DUP2 PUSH2 0x541 JUMP JUMPDEST DUP2 EQ PUSH2 0x569 JUMPI PUSH0 DUP1 REVERT JUMPDEST POP JUMP JUMPDEST PUSH0 DUP2 MLOAD SWAP1 POP PUSH2 0x57A DUP2 PUSH2 0x556 JUMP JUMPDEST SWAP3 SWAP2 POP POP JUMP JUMPDEST PUSH0 DUP2 SWAP1 POP SWAP2 SWAP1 POP JUMP JUMPDEST PUSH2 0x592 DUP2 PUSH2 0x580 JUMP JUMPDEST DUP2 EQ PUSH2 0x59C JUMPI PUSH0 DUP1 REVERT JUMPDEST POP JUMP JUMPDEST PUSH0 DUP2 MLOAD SWAP1 POP PUSH2 0x5AD DUP2 PUSH2 0x589 JUMP JUMPDEST SWAP3 SWAP2 POP POP JUMP JUMPDEST PUSH0 DUP2 MLOAD SWAP1 POP PUSH2 0x5C1 DUP2 PUSH2 0x3F9 JUMP JUMPDEST SWAP3 SWAP2 POP POP JUMP JUMPDEST PUSH0 DUP1 PUSH0 DUP1 PUSH0 PUSH1 0xA0 DUP7 DUP9 SUB SLT ISZERO PUSH2 0x5E0 JUMPI PUSH2 0x5DF PUSH2 0x370 JUMP JUMPDEST JUMPDEST PUSH0 PUSH2 0x5ED DUP9 DUP3 DUP10 ADD PUSH2 0x56C JUMP JUMPDEST SWAP6 POP POP PUSH1 0x20 PUSH2 0x5FE DUP9 DUP3 DUP10 ADD PUSH2 0x59F JUMP JUMPDEST SWAP5 POP POP PUSH1 0x40 PUSH2 0x60F DUP9 DUP3 DUP10 ADD PUSH2 0x5B3 JUMP JUMPDEST SWAP4 POP POP PUSH1 0x60 PUSH2 0x620 DUP9 DUP3 DUP10 ADD PUSH2 0x5B3 JUMP JUMPDEST SWAP3 POP POP PUSH1 0x80 PUSH2 0x631 DUP9 DUP3 DUP10 ADD PUSH2 0x56C JUMP JUMPDEST SWAP2 POP POP SWAP3 SWAP6 POP SWAP3 SWAP6 SWAP1 SWAP4 POP JUMP JUMPDEST PUSH0 PUSH2 0x648 DUP3 PUSH2 0x580 JUMP JUMPDEST SWAP2 POP PUSH2 0x653 DUP4 PUSH2 0x580 JUMP JUMPDEST SWAP3 POP DUP3 DUP3 MUL PUSH2 0x661 DUP2 PUSH2 0x580 JUMP JUMPDEST SWAP2 POP PUSH32 0x8000000000000000000000000000000000000000000000000000000000000000 DUP5 EQ PUSH0 DUP5 SLT AND ISZERO PUSH2 0x698 JUMPI PUSH2 0x697 PUSH2 0x476 JUMP JUMPDEST JUMPDEST DUP3 DUP3 SDIV DUP5 EQ DUP4 ISZERO OR PUSH2 0x6AD JUMPI PUSH2 0x6AC PUSH2 0x476 JUMP JUMPDEST JUMPDEST POP SWAP3 SWAP2 POP POP JUMP INVALID LOG2 PUSH5 0x6970667358 0x22 SLT KECCAK256 0xD CALLDATALOAD SSTORE 0xF7 0xB7 TLOAD 0xAB 0xB9 PUSH18 0xA07A5202D4D0E9A79B8478E019970178589D ISZERO 0xD9 RETURNDATASIZE SGT 0x2D PUSH5 0x736F6C6343 STOP ADDMOD BYTE STOP CALLER "
		},
		"gasEstimates": {
			"creation": {
				"codeDepositCost": "354000",
				"executionCost": "22497",
				"totalCost": "376497"
			},
			"external": {
				"addressToAmountFunded(address)": "2802",
				"fund()": "70959",
				"funders(uint256)": "5031",
				"getConversionRate(uint256)": "infinite",
				"getPrice()": "infinite",
				"minimumUsd()": "2403"
			}
		},
		"methodIdentifiers": {
			"addressToAmountFunded(address)": "3e47d6f3",
			"fund()": "b60d4288",
			"funders(uint256)": "dc0d3dff",
			"getConversionRate(uint256)": "6e5b6b28",
			"getPrice()": "98d5fdca",
			"minimumUsd()": "098de820"
		}
	},
	"abi": [
		{
			"inputs": [
				{
					"internalType": "address",
					"name": "",
					"type": "address"
				}
			],
			"name": "addressToAmountFunded",
			"outputs": [
				{
					"internalType": "uint256",
					"name": "",
					"type": "uint256"
				}
			],
			"stateMutability": "view",
			"type": "function"
		},
		{
			"inputs": [],
			"name": "fund",
			"outputs": [],
			"stateMutability": "payable",
			"type": "function"
		},
		{
			"inputs": [
				{
					"internalType": "uint256",
					"name": "",
					"type": "uint256"
				}
			],
			"name": "funders",
			"outputs": [
				{
					"internalType": "address",
					"name": "",
					"type": "address"
				}
			],
			"stateMutability": "view",
			"type": "function"
		},
		{
			"inputs": [
				{
					"internalType": "uint256",
					"name": "ethAmount",
					"type": "uint256"
				}
			],
			"name": "getConversionRate",
			"outputs": [
				{
					"internalType": "uint256",
					"name": "",
					"type": "uint256"
				}
			],
			"stateMutability": "view",
			"type": "function"
		},
		{
			"inputs": [],
			"name": "getPrice",
			"outputs": [
				{
					"internalType": "uint256",
					"name": "",
					"type": "uint256"
				}
			],
			"stateMutability": "view",
			"type": "function"
		},
		{
			"inputs": [],
			"name": "minimumUsd",
			"outputs": [
				{
					"internalType": "uint256",
					"name": "",
					"type": "uint256"
				}
			],
			"stateMutability": "view",
			"type": "function"
		}
	]
}