{
	"contracts/Praktikum 4/FundMe.sol": {
		"FundMe": {
			"abi": [
				{
					"inputs": [],
					"stateMutability": "nonpayable",
					"type": "constructor"
				},
				{
					"inputs": [
						{
							"internalType": "address",
							"name": "",
							"type": "address"
						}
					],
					"name": "addressToAmountFunded",
					"outputs": [
						{
							"internalType": "uint256",
							"name": "",
							"type": "uint256"
						}
					],
					"stateMutability": "view",
					"type": "function"
				},
				{
					"inputs": [],
					"name": "fund",
					"outputs": [],
					"stateMutability": "payable",
					"type": "function"
				},
				{
					"inputs": [
						{
							"internalType": "uint256",
							"name": "",
							"type": "uint256"
						}
					],
					"name": "funders",
					"outputs": [
						{
							"internalType": "address",
							"name": "",
							"type": "address"
						}
					],
					"stateMutability": "view",
					"type": "function"
				},
				{
					"inputs": [
						{
							"internalType": "uint256",
							"name": "ethAmount",
							"type": "uint256"
						}
					],
					"name": "getConversionRate",
					"outputs": [
						{
							"internalType": "uint256",
							"name": "",
							"type": "uint256"
						}
					],
					"stateMutability": "view",
					"type": "function"
				},
				{
					"inputs": [],
					"name": "getPrice",
					"outputs": [
						{
							"internalType": "uint256",
							"name": "",
							"type": "uint256"
						}
					],
					"stateMutability": "view",
					"type": "function"
				},
				{
					"inputs": [],
					"name": "minimumUsd",
					"outputs": [
						{
							"internalType": "uint256",
							"name": "",
							"type": "uint256"
						}
					],
					"stateMutability": "view",
					"type": "function"
				},
				{
					"inputs": [],
					"name": "owner",
					"outputs": [
						{
							"internalType": "address",
							"name": "",
							"type": "address"
						}
					],
					"stateMutability": "view",
					"type": "function"
				},
				{
					"inputs": [],
					"name": "withdraw",
					"outputs": [],
					"stateMutability": "nonpayable",
					"type": "function"
				}
			],
			"devdoc": {
				"kind": "dev",
				"methods": {},
				"version": 1
			},
			"evm": {
				"assembly": "    /* \"contracts/Praktikum 4/FundMe.sol\":94:1696  contract FundMe {... */\n  mstore(0x40, 0x80)\n    /* \"contracts/Praktikum 4/FundMe.sol\":277:286  50 * 1e18 */\n  0x02b5e3af16b1880000\n    /* \"contracts/Praktikum 4/FundMe.sol\":249:286  uint256 public minimumUsd = 50 * 1e18 */\n  0x01\n  sstore\n    /* \"contracts/Praktikum 4/FundMe.sol\":185:241  constructor()... */\n  callvalue\n  dup1\n  iszero\n  tag_1\n  jumpi\n  0x00\n  dup1\n  revert\ntag_1:\n  pop\n    /* \"contracts/Praktikum 4/FundMe.sol\":223:233  msg.sender */\n  caller\n    /* \"contracts/Praktikum 4/FundMe.sol\":215:220  owner */\n  0x00\n  dup1\n    /* \"contracts/Praktikum 4/FundMe.sol\":215:233  owner = msg.sender */\n  0x0100\n  exp\n  dup2\n  sload\n  dup2\n  0xffffffffffffffffffffffffffffffffffffffff\n  mul\n  not\n  and\n  swap1\n  dup4\n  0xffffffffffffffffffffffffffffffffffffffff\n  and\n  mul\n  or\n  swap1\n  sstore\n  pop\n    /* \"contracts/Praktikum 4/FundMe.sol\":94:1696  contract FundMe {... */\n  dataSize(sub_0)\n  dup1\n  dataOffset(sub_0)\n  0x00\n  codecopy\n  0x00\n  return\nstop\n\nsub_0: assembly {\n        /* \"contracts/Praktikum 4/FundMe.sol\":94:1696  contract FundMe {... */\n      mstore(0x40, 0x80)\n      jumpi(tag_1, lt(calldatasize, 0x04))\n      shr(0xe0, calldataload(0x00))\n      dup1\n      0x8da5cb5b\n      gt\n      tag_10\n      jumpi\n      dup1\n      0x8da5cb5b\n      eq\n      tag_6\n      jumpi\n      dup1\n      0x98d5fdca\n      eq\n      tag_7\n      jumpi\n      dup1\n      0xb60d4288\n      eq\n      tag_8\n      jumpi\n      dup1\n      0xdc0d3dff\n      eq\n      tag_9\n      jumpi\n      jump(tag_1)\n    tag_10:\n      dup1\n      0x098de820\n      eq\n      tag_2\n      jumpi\n      dup1\n      0x3ccfd60b\n      eq\n      tag_3\n      jumpi\n      dup1\n      0x3e47d6f3\n      eq\n      tag_4\n      jumpi\n      dup1\n      0x6e5b6b28\n      eq\n      tag_5\n      jumpi\n    tag_1:\n      0x00\n      dup1\n      revert\n        /* \"contracts/Praktikum 4/FundMe.sol\":249:286  uint256 public minimumUsd = 50 * 1e18 */\n    tag_2:\n      callvalue\n      dup1\n      iszero\n      tag_11\n      jumpi\n      0x00\n      dup1\n      revert\n    tag_11:\n      pop\n      tag_12\n      tag_13\n      jump\t// in\n    tag_12:\n      mload(0x40)\n      tag_14\n      swap2\n      swap1\n      tag_15\n      jump\t// in\n    tag_14:\n      mload(0x40)\n      dup1\n      swap2\n      sub\n      swap1\n      return\n        /* \"contracts/Praktikum 4/FundMe.sol\":1186:1575  function withdraw() public onlyOwner {... */\n    tag_3:\n      callvalue\n      dup1\n      iszero\n      tag_16\n      jumpi\n      0x00\n      dup1\n      revert\n    tag_16:\n      pop\n      tag_17\n      tag_18\n      jump\t// in\n    tag_17:\n      stop\n        /* \"contracts/Praktikum 4/FundMe.sol\":330:386  mapping(address => uint256) public addressToAmountFunded */\n    tag_4:\n      callvalue\n      dup1\n      iszero\n      tag_19\n      jumpi\n      0x00\n      dup1\n      revert\n    tag_19:\n      pop\n      tag_20\n      0x04\n      dup1\n      calldatasize\n      sub\n      dup2\n      add\n      swap1\n      tag_21\n      swap2\n      swap1\n      tag_22\n      jump\t// in\n    tag_21:\n      tag_23\n      jump\t// in\n    tag_20:\n      mload(0x40)\n      tag_24\n      swap2\n      swap1\n      tag_15\n      jump\t// in\n    tag_24:\n      mload(0x40)\n      dup1\n      swap2\n      sub\n      swap1\n      return\n        /* \"contracts/Praktikum 4/FundMe.sol\":961:1178  function getConversionRate(uint256 ethAmount) public view returns (uint256) {... */\n    tag_5:\n      callvalue\n      dup1\n      iszero\n      tag_25\n      jumpi\n      0x00\n      dup1\n      revert\n    tag_25:\n      pop\n      tag_26\n      0x04\n      dup1\n      calldatasize\n      sub\n      dup2\n      add\n      swap1\n      tag_27\n      swap2\n      swap1\n      tag_28\n      jump\t// in\n    tag_27:\n      tag_29\n      jump\t// in\n    tag_26:\n      mload(0x40)\n      tag_30\n      swap2\n      swap1\n      tag_15\n      jump\t// in\n    tag_30:\n      mload(0x40)\n      dup1\n      swap2\n      sub\n      swap1\n      return\n        /* \"contracts/Praktikum 4/FundMe.sol\":158:178  address public owner */\n    tag_6:\n      callvalue\n      dup1\n      iszero\n      tag_31\n      jumpi\n      0x00\n      dup1\n      revert\n    tag_31:\n      pop\n      tag_32\n      tag_33\n      jump\t// in\n    tag_32:\n      mload(0x40)\n      tag_34\n      swap2\n      swap1\n      tag_35\n      jump\t// in\n    tag_34:\n      mload(0x40)\n      dup1\n      swap2\n      sub\n      swap1\n      return\n        /* \"contracts/Praktikum 4/FundMe.sol\":683:953  function getPrice() public view returns (uint256) {... */\n    tag_7:\n      callvalue\n      dup1\n      iszero\n      tag_36\n      jumpi\n      0x00\n      dup1\n      revert\n    tag_36:\n      pop\n      tag_37\n      tag_38\n      jump\t// in\n    tag_37:\n      mload(0x40)\n      tag_39\n      swap2\n      swap1\n      tag_15\n      jump\t// in\n    tag_39:\n      mload(0x40)\n      dup1\n      swap2\n      sub\n      swap1\n      return\n        /* \"contracts/Praktikum 4/FundMe.sol\":442:675  function fund() public payable {... */\n    tag_8:\n      tag_40\n      tag_41\n      jump\t// in\n    tag_40:\n      stop\n        /* \"contracts/Praktikum 4/FundMe.sol\":299:323  address[] public funders */\n    tag_9:\n      callvalue\n      dup1\n      iszero\n      tag_42\n      jumpi\n      0x00\n      dup1\n      revert\n    tag_42:\n      pop\n      tag_43\n      0x04\n      dup1\n      calldatasize\n      sub\n      dup2\n      add\n      swap1\n      tag_44\n      swap2\n      swap1\n      tag_28\n      jump\t// in\n    tag_44:\n      tag_45\n      jump\t// in\n    tag_43:\n      mload(0x40)\n      tag_46\n      swap2\n      swap1\n      tag_35\n      jump\t// in\n    tag_46:\n      mload(0x40)\n      dup1\n      swap2\n      sub\n      swap1\n      return\n        /* \"contracts/Praktikum 4/FundMe.sol\":249:286  uint256 public minimumUsd = 50 * 1e18 */\n    tag_13:\n      sload(0x01)\n      dup2\n      jump\t// out\n        /* \"contracts/Praktikum 4/FundMe.sol\":1186:1575  function withdraw() public onlyOwner {... */\n    tag_18:\n        /* \"contracts/Praktikum 4/FundMe.sol\":1635:1640  owner */\n      0x00\n      dup1\n      sload\n      swap1\n      0x0100\n      exp\n      swap1\n      div\n      0xffffffffffffffffffffffffffffffffffffffff\n      and\n        /* \"contracts/Praktikum 4/FundMe.sol\":1621:1640  msg.sender == owner */\n      0xffffffffffffffffffffffffffffffffffffffff\n      and\n        /* \"contracts/Praktikum 4/FundMe.sol\":1621:1631  msg.sender */\n      caller\n        /* \"contracts/Praktikum 4/FundMe.sol\":1621:1640  msg.sender == owner */\n      0xffffffffffffffffffffffffffffffffffffffff\n      and\n      eq\n        /* \"contracts/Praktikum 4/FundMe.sol\":1613:1673  require(msg.sender == owner, \"Pengirim bukan seorang owner\") */\n      tag_48\n      jumpi\n      mload(0x40)\n      0x08c379a000000000000000000000000000000000000000000000000000000000\n      dup2\n      mstore\n      0x04\n      add\n      tag_49\n      swap1\n      tag_50\n      jump\t// in\n    tag_49:\n      mload(0x40)\n      dup1\n      swap2\n      sub\n      swap1\n      revert\n    tag_48:\n        /* \"contracts/Praktikum 4/FundMe.sol\":1238:1257  uint256 funderIndex */\n      0x00\n        /* \"contracts/Praktikum 4/FundMe.sol\":1234:1568  for(uint256 funderIndex=0; funderIndex < funders.length; funderIndex++)... */\n    tag_52:\n        /* \"contracts/Praktikum 4/FundMe.sol\":1275:1282  funders */\n      0x02\n        /* \"contracts/Praktikum 4/FundMe.sol\":1275:1289  funders.length */\n      dup1\n      sload\n      swap1\n      pop\n        /* \"contracts/Praktikum 4/FundMe.sol\":1261:1272  funderIndex */\n      dup2\n        /* \"contracts/Praktikum 4/FundMe.sol\":1261:1289  funderIndex < funders.length */\n      lt\n        /* \"contracts/Praktikum 4/FundMe.sol\":1234:1568  for(uint256 funderIndex=0; funderIndex < funders.length; funderIndex++)... */\n      iszero\n      tag_53\n      jumpi\n        /* \"contracts/Praktikum 4/FundMe.sol\":1330:1344  address funder */\n      0x00\n        /* \"contracts/Praktikum 4/FundMe.sol\":1347:1354  funders */\n      0x02\n        /* \"contracts/Praktikum 4/FundMe.sol\":1355:1366  funderIndex */\n      dup3\n        /* \"contracts/Praktikum 4/FundMe.sol\":1347:1367  funders[funderIndex] */\n      dup2\n      sload\n      dup2\n      lt\n      tag_55\n      jumpi\n      tag_56\n      tag_57\n      jump\t// in\n    tag_56:\n    tag_55:\n      swap1\n      0x00\n      mstore\n      keccak256(0x00, 0x20)\n      add\n      0x00\n      swap1\n      sload\n      swap1\n      0x0100\n      exp\n      swap1\n      div\n      0xffffffffffffffffffffffffffffffffffffffff\n      and\n        /* \"contracts/Praktikum 4/FundMe.sol\":1330:1367  address funder = funders[funderIndex] */\n      swap1\n      pop\n        /* \"contracts/Praktikum 4/FundMe.sol\":1414:1415  0 */\n      0x00\n        /* \"contracts/Praktikum 4/FundMe.sol\":1382:1403  addressToAmountFunded */\n      0x03\n        /* \"contracts/Praktikum 4/FundMe.sol\":1382:1411  addressToAmountFunded[funder] */\n      0x00\n        /* \"contracts/Praktikum 4/FundMe.sol\":1404:1410  funder */\n      dup4\n        /* \"contracts/Praktikum 4/FundMe.sol\":1382:1411  addressToAmountFunded[funder] */\n      0xffffffffffffffffffffffffffffffffffffffff\n      and\n      0xffffffffffffffffffffffffffffffffffffffff\n      and\n      dup2\n      mstore\n      0x20\n      add\n      swap1\n      dup2\n      mstore\n      0x20\n      add\n      0x00\n      keccak256\n        /* \"contracts/Praktikum 4/FundMe.sol\":1382:1415  addressToAmountFunded[funder] = 0 */\n      dup2\n      swap1\n      sstore\n      pop\n        /* \"contracts/Praktikum 4/FundMe.sol\":1484:1485  0 */\n      0x00\n        /* \"contracts/Praktikum 4/FundMe.sol\":1470:1486  new address[](0) */\n      0xffffffffffffffff\n      dup2\n      gt\n      iszero\n      tag_59\n      jumpi\n      tag_60\n      tag_61\n      jump\t// in\n    tag_60:\n    tag_59:\n      mload(0x40)\n      swap1\n      dup1\n      dup3\n      mstore\n      dup1\n      0x20\n      mul\n      0x20\n      add\n      dup3\n      add\n      0x40\n      mstore\n      dup1\n      iszero\n      tag_62\n      jumpi\n      dup2\n      0x20\n      add\n      0x20\n      dup3\n      mul\n      dup1\n      calldatasize\n      dup4\n      calldatacopy\n      dup1\n      dup3\n      add\n      swap2\n      pop\n      pop\n      swap1\n      pop\n    tag_62:\n      pop\n        /* \"contracts/Praktikum 4/FundMe.sol\":1460:1467  funders */\n      0x02\n        /* \"contracts/Praktikum 4/FundMe.sol\":1460:1486  funders = new address[](0) */\n      swap1\n      dup1\n      mload\n      swap1\n      0x20\n      add\n      swap1\n      tag_63\n      swap3\n      swap2\n      swap1\n      tag_64\n      jump\t// in\n    tag_63:\n      pop\n        /* \"contracts/Praktikum 4/FundMe.sol\":1513:1523  msg.sender */\n      caller\n        /* \"contracts/Praktikum 4/FundMe.sol\":1503:1533  payable  (msg.sender).transfer */\n      0xffffffffffffffffffffffffffffffffffffffff\n      and\n        /* \"contracts/Praktikum 4/FundMe.sol\":1503:1556  payable  (msg.sender).transfer(address(this).balance) */\n      0x08fc\n        /* \"contracts/Praktikum 4/FundMe.sol\":1534:1555  address(this).balance */\n      selfbalance\n        /* \"contracts/Praktikum 4/FundMe.sol\":1503:1556  payable  (msg.sender).transfer(address(this).balance) */\n      swap1\n      dup2\n      iszero\n      mul\n      swap1\n      mload(0x40)\n      0x00\n      mload(0x40)\n      dup1\n      dup4\n      sub\n      dup2\n      dup6\n      dup9\n      dup9\n      call\n      swap4\n      pop\n      pop\n      pop\n      pop\n      iszero\n      dup1\n      iszero\n      tag_66\n      jumpi\n      returndatasize\n      0x00\n      dup1\n      returndatacopy\n      revert(0x00, returndatasize)\n    tag_66:\n      pop\n        /* \"contracts/Praktikum 4/FundMe.sol\":1315:1568  {... */\n      pop\n        /* \"contracts/Praktikum 4/FundMe.sol\":1291:1304  funderIndex++ */\n      dup1\n      dup1\n      0x01\n      add\n      swap2\n      pop\n      pop\n        /* \"contracts/Praktikum 4/FundMe.sol\":1234:1568  for(uint256 funderIndex=0; funderIndex < funders.length; funderIndex++)... */\n      jump(tag_52)\n    tag_53:\n      pop\n        /* \"contracts/Praktikum 4/FundMe.sol\":1186:1575  function withdraw() public onlyOwner {... */\n      jump\t// out\n        /* \"contracts/Praktikum 4/FundMe.sol\":330:386  mapping(address => uint256) public addressToAmountFunded */\n    tag_23:\n      mstore(0x20, 0x03)\n      dup1\n      0x00\n      mstore\n      keccak256(0x00, 0x40)\n      0x00\n      swap2\n      pop\n      swap1\n      pop\n      sload\n      dup2\n      jump\t// out\n        /* \"contracts/Praktikum 4/FundMe.sol\":961:1178  function getConversionRate(uint256 ethAmount) public view returns (uint256) {... */\n    tag_29:\n        /* \"contracts/Praktikum 4/FundMe.sol\":1028:1035  uint256 */\n      0x00\n        /* \"contracts/Praktikum 4/FundMe.sol\":1048:1064  uint256 ethPrice */\n      dup1\n        /* \"contracts/Praktikum 4/FundMe.sol\":1067:1077  getPrice() */\n      tag_68\n        /* \"contracts/Praktikum 4/FundMe.sol\":1067:1075  getPrice */\n      tag_38\n        /* \"contracts/Praktikum 4/FundMe.sol\":1067:1077  getPrice() */\n      jump\t// in\n    tag_68:\n        /* \"contracts/Praktikum 4/FundMe.sol\":1048:1077  uint256 ethPrice = getPrice() */\n      swap1\n      pop\n        /* \"contracts/Praktikum 4/FundMe.sol\":1088:1108  uint256 ethAmountUsd */\n      0x00\n        /* \"contracts/Praktikum 4/FundMe.sol\":1136:1140  1e18 */\n      0x0de0b6b3a7640000\n        /* \"contracts/Praktikum 4/FundMe.sol\":1123:1132  ethAmount */\n      dup5\n        /* \"contracts/Praktikum 4/FundMe.sol\":1112:1120  ethPrice */\n      dup4\n        /* \"contracts/Praktikum 4/FundMe.sol\":1112:1132  ethPrice * ethAmount */\n      tag_69\n      swap2\n      swap1\n      tag_70\n      jump\t// in\n    tag_69:\n        /* \"contracts/Praktikum 4/FundMe.sol\":1111:1140  (ethPrice * ethAmount) / 1e18 */\n      tag_71\n      swap2\n      swap1\n      tag_72\n      jump\t// in\n    tag_71:\n        /* \"contracts/Praktikum 4/FundMe.sol\":1088:1140  uint256 ethAmountUsd = (ethPrice * ethAmount) / 1e18 */\n      swap1\n      pop\n        /* \"contracts/Praktikum 4/FundMe.sol\":1158:1170  ethAmountUsd */\n      dup1\n        /* \"contracts/Praktikum 4/FundMe.sol\":1151:1170  return ethAmountUsd */\n      swap3\n      pop\n      pop\n      pop\n        /* \"contracts/Praktikum 4/FundMe.sol\":961:1178  function getConversionRate(uint256 ethAmount) public view returns (uint256) {... */\n      swap2\n      swap1\n      pop\n      jump\t// out\n        /* \"contracts/Praktikum 4/FundMe.sol\":158:178  address public owner */\n    tag_33:\n      0x00\n      dup1\n      sload\n      swap1\n      0x0100\n      exp\n      swap1\n      div\n      0xffffffffffffffffffffffffffffffffffffffff\n      and\n      dup2\n      jump\t// out\n        /* \"contracts/Praktikum 4/FundMe.sol\":683:953  function getPrice() public view returns (uint256) {... */\n    tag_38:\n        /* \"contracts/Praktikum 4/FundMe.sol\":724:731  uint256 */\n      0x00\n        /* \"contracts/Praktikum 4/FundMe.sol\":744:775  AggregatorV3Interface priceFeed */\n      dup1\n        /* \"contracts/Praktikum 4/FundMe.sol\":800:842  0x694AA1769357215DE4FAC081bf1f309aDC325306 */\n      0x694aa1769357215de4fac081bf1f309adc325306\n        /* \"contracts/Praktikum 4/FundMe.sol\":744:843  AggregatorV3Interface priceFeed = AggregatorV3Interface(0x694AA1769357215DE4FAC081bf1f309aDC325306) */\n      swap1\n      pop\n        /* \"contracts/Praktikum 4/FundMe.sol\":857:869  int256 price */\n      0x00\n        /* \"contracts/Praktikum 4/FundMe.sol\":879:888  priceFeed */\n      dup2\n        /* \"contracts/Praktikum 4/FundMe.sol\":879:904  priceFeed.latestRoundData */\n      0xffffffffffffffffffffffffffffffffffffffff\n      and\n      0xfeaf968c\n        /* \"contracts/Praktikum 4/FundMe.sol\":879:906  priceFeed.latestRoundData() */\n      mload(0x40)\n      dup2\n      0xffffffff\n      and\n      0xe0\n      shl\n      dup2\n      mstore\n      0x04\n      add\n      0xa0\n      mload(0x40)\n      dup1\n      dup4\n      sub\n      dup2\n      dup7\n      gas\n      staticcall\n      iszero\n      dup1\n      iszero\n      tag_75\n      jumpi\n      returndatasize\n      0x00\n      dup1\n      returndatacopy\n      revert(0x00, returndatasize)\n    tag_75:\n      pop\n      pop\n      pop\n      pop\n      mload(0x40)\n      returndatasize\n      not(0x1f)\n      0x1f\n      dup3\n      add\n      and\n      dup3\n      add\n      dup1\n      0x40\n      mstore\n      pop\n      dup2\n      add\n      swap1\n      tag_76\n      swap2\n      swap1\n      tag_77\n      jump\t// in\n    tag_76:\n        /* \"contracts/Praktikum 4/FundMe.sol\":854:906  (, int256 price, , , ) = priceFeed.latestRoundData() */\n      pop\n      pop\n      pop\n      swap2\n      pop\n      pop\n        /* \"contracts/Praktikum 4/FundMe.sol\":940:944  1e10 */\n      0x02540be400\n        /* \"contracts/Praktikum 4/FundMe.sol\":932:937  price */\n      dup2\n        /* \"contracts/Praktikum 4/FundMe.sol\":932:944  price * 1e10 */\n      tag_78\n      swap2\n      swap1\n      tag_79\n      jump\t// in\n    tag_78:\n        /* \"contracts/Praktikum 4/FundMe.sol\":917:945  return uint256(price * 1e10) */\n      swap3\n      pop\n      pop\n      pop\n        /* \"contracts/Praktikum 4/FundMe.sol\":683:953  function getPrice() public view returns (uint256) {... */\n      swap1\n      jump\t// out\n        /* \"contracts/Praktikum 4/FundMe.sol\":442:675  function fund() public payable {... */\n    tag_41:\n        /* \"contracts/Praktikum 4/FundMe.sol\":531:535  1e18 */\n      0x0de0b6b3a7640000\n        /* \"contracts/Praktikum 4/FundMe.sol\":518:527  msg.value */\n      callvalue\n        /* \"contracts/Praktikum 4/FundMe.sol\":518:535  msg.value >= 1e18 */\n      lt\n      iszero\n        /* \"contracts/Praktikum 4/FundMe.sol\":510:574  require(msg.value >= 1e18, \"Maaf, nilai yang anda input kurang\") */\n      tag_81\n      jumpi\n      mload(0x40)\n      0x08c379a000000000000000000000000000000000000000000000000000000000\n      dup2\n      mstore\n      0x04\n      add\n      tag_82\n      swap1\n      tag_83\n      jump\t// in\n    tag_82:\n      mload(0x40)\n      dup1\n      swap2\n      sub\n      swap1\n      revert\n    tag_81:\n        /* \"contracts/Praktikum 4/FundMe.sol\":587:594  funders */\n      0x02\n        /* \"contracts/Praktikum 4/FundMe.sol\":600:610  msg.sender */\n      caller\n        /* \"contracts/Praktikum 4/FundMe.sol\":587:611  funders.push(msg.sender) */\n      swap1\n      dup1\n      0x01\n      dup2\n      sload\n      add\n      dup1\n      dup3\n      sstore\n      dup1\n      swap2\n      pop\n      pop\n      0x01\n      swap1\n      sub\n      swap1\n      0x00\n      mstore\n      keccak256(0x00, 0x20)\n      add\n      0x00\n      swap1\n      swap2\n      swap1\n      swap2\n      swap1\n      swap2\n      0x0100\n      exp\n      dup2\n      sload\n      dup2\n      0xffffffffffffffffffffffffffffffffffffffff\n      mul\n      not\n      and\n      swap1\n      dup4\n      0xffffffffffffffffffffffffffffffffffffffff\n      and\n      mul\n      or\n      swap1\n      sstore\n      pop\n        /* \"contracts/Praktikum 4/FundMe.sol\":658:667  msg.value */\n      callvalue\n        /* \"contracts/Praktikum 4/FundMe.sol\":622:643  addressToAmountFunded */\n      0x03\n        /* \"contracts/Praktikum 4/FundMe.sol\":622:655  addressToAmountFunded[msg.sender] */\n      0x00\n        /* \"contracts/Praktikum 4/FundMe.sol\":644:654  msg.sender */\n      caller\n        /* \"contracts/Praktikum 4/FundMe.sol\":622:655  addressToAmountFunded[msg.sender] */\n      0xffffffffffffffffffffffffffffffffffffffff\n      and\n      0xffffffffffffffffffffffffffffffffffffffff\n      and\n      dup2\n      mstore\n      0x20\n      add\n      swap1\n      dup2\n      mstore\n      0x20\n      add\n      0x00\n      keccak256\n        /* \"contracts/Praktikum 4/FundMe.sol\":622:667  addressToAmountFunded[msg.sender] = msg.value */\n      dup2\n      swap1\n      sstore\n      pop\n        /* \"contracts/Praktikum 4/FundMe.sol\":442:675  function fund() public payable {... */\n      jump\t// out\n        /* \"contracts/Praktikum 4/FundMe.sol\":299:323  address[] public funders */\n    tag_45:\n      0x02\n      dup2\n      dup2\n      sload\n      dup2\n      lt\n      tag_85\n      jumpi\n      0x00\n      dup1\n      revert\n    tag_85:\n      swap1\n      0x00\n      mstore\n      keccak256(0x00, 0x20)\n      add\n      0x00\n      swap2\n      pop\n      sload\n      swap1\n      0x0100\n      exp\n      swap1\n      div\n      0xffffffffffffffffffffffffffffffffffffffff\n      and\n      dup2\n      jump\t// out\n    tag_64:\n      dup3\n      dup1\n      sload\n      dup3\n      dup3\n      sstore\n      swap1\n      0x00\n      mstore\n      keccak256(0x00, 0x20)\n      swap1\n      dup2\n      add\n      swap3\n      dup3\n      iszero\n      tag_87\n      jumpi\n      swap2\n      0x20\n      mul\n      dup3\n      add\n    tag_88:\n      dup3\n      dup2\n      gt\n      iszero\n      tag_89\n      jumpi\n      dup3\n      mload\n      dup3\n      exp(0x0100, 0x00)\n      dup2\n      sload\n      dup2\n      0xffffffffffffffffffffffffffffffffffffffff\n      mul\n      not\n      and\n      swap1\n      dup4\n      0xffffffffffffffffffffffffffffffffffffffff\n      and\n      mul\n      or\n      swap1\n      sstore\n      pop\n      swap2\n      0x20\n      add\n      swap2\n      swap1\n      0x01\n      add\n      swap1\n      jump(tag_88)\n    tag_89:\n    tag_87:\n      pop\n      swap1\n      pop\n      tag_90\n      swap2\n      swap1\n      tag_91\n      jump\t// in\n    tag_90:\n      pop\n      swap1\n      jump\t// out\n    tag_91:\n    tag_92:\n      dup1\n      dup3\n      gt\n      iszero\n      tag_93\n      jumpi\n      0x00\n      dup2\n      0x00\n      swap1\n      sstore\n      pop\n      0x01\n      add\n      jump(tag_92)\n    tag_93:\n      pop\n      swap1\n      jump\t// out\n        /* \"#utility.yul\":7:84   */\n    tag_94:\n        /* \"#utility.yul\":44:51   */\n      0x00\n        /* \"#utility.yul\":73:78   */\n      dup2\n        /* \"#utility.yul\":62:78   */\n      swap1\n      pop\n        /* \"#utility.yul\":7:84   */\n      swap2\n      swap1\n      pop\n      jump\t// out\n        /* \"#utility.yul\":90:208   */\n    tag_95:\n        /* \"#utility.yul\":177:201   */\n      tag_123\n        /* \"#utility.yul\":195:200   */\n      dup2\n        /* \"#utility.yul\":177:201   */\n      tag_94\n      jump\t// in\n    tag_123:\n        /* \"#utility.yul\":172:175   */\n      dup3\n        /* \"#utility.yul\":165:202   */\n      mstore\n        /* \"#utility.yul\":90:208   */\n      pop\n      pop\n      jump\t// out\n        /* \"#utility.yul\":214:436   */\n    tag_15:\n        /* \"#utility.yul\":307:311   */\n      0x00\n        /* \"#utility.yul\":345:347   */\n      0x20\n        /* \"#utility.yul\":334:343   */\n      dup3\n        /* \"#utility.yul\":330:348   */\n      add\n        /* \"#utility.yul\":322:348   */\n      swap1\n      pop\n        /* \"#utility.yul\":358:429   */\n      tag_125\n        /* \"#utility.yul\":426:427   */\n      0x00\n        /* \"#utility.yul\":415:424   */\n      dup4\n        /* \"#utility.yul\":411:428   */\n      add\n        /* \"#utility.yul\":402:408   */\n      dup5\n        /* \"#utility.yul\":358:429   */\n      tag_95\n      jump\t// in\n    tag_125:\n        /* \"#utility.yul\":214:436   */\n      swap3\n      swap2\n      pop\n      pop\n      jump\t// out\n        /* \"#utility.yul\":523:640   */\n    tag_97:\n        /* \"#utility.yul\":632:633   */\n      0x00\n        /* \"#utility.yul\":629:630   */\n      dup1\n        /* \"#utility.yul\":622:634   */\n      revert\n        /* \"#utility.yul\":769:895   */\n    tag_99:\n        /* \"#utility.yul\":806:813   */\n      0x00\n        /* \"#utility.yul\":846:888   */\n      0xffffffffffffffffffffffffffffffffffffffff\n        /* \"#utility.yul\":839:844   */\n      dup3\n        /* \"#utility.yul\":835:889   */\n      and\n        /* \"#utility.yul\":824:889   */\n      swap1\n      pop\n        /* \"#utility.yul\":769:895   */\n      swap2\n      swap1\n      pop\n      jump\t// out\n        /* \"#utility.yul\":901:997   */\n    tag_100:\n        /* \"#utility.yul\":938:945   */\n      0x00\n        /* \"#utility.yul\":967:991   */\n      tag_131\n        /* \"#utility.yul\":985:990   */\n      dup3\n        /* \"#utility.yul\":967:991   */\n      tag_99\n      jump\t// in\n    tag_131:\n        /* \"#utility.yul\":956:991   */\n      swap1\n      pop\n        /* \"#utility.yul\":901:997   */\n      swap2\n      swap1\n      pop\n      jump\t// out\n        /* \"#utility.yul\":1003:1125   */\n    tag_101:\n        /* \"#utility.yul\":1076:1100   */\n      tag_133\n        /* \"#utility.yul\":1094:1099   */\n      dup2\n        /* \"#utility.yul\":1076:1100   */\n      tag_100\n      jump\t// in\n    tag_133:\n        /* \"#utility.yul\":1069:1074   */\n      dup2\n        /* \"#utility.yul\":1066:1101   */\n      eq\n        /* \"#utility.yul\":1056:1119   */\n      tag_134\n      jumpi\n        /* \"#utility.yul\":1115:1116   */\n      0x00\n        /* \"#utility.yul\":1112:1113   */\n      dup1\n        /* \"#utility.yul\":1105:1117   */\n      revert\n        /* \"#utility.yul\":1056:1119   */\n    tag_134:\n        /* \"#utility.yul\":1003:1125   */\n      pop\n      jump\t// out\n        /* \"#utility.yul\":1131:1270   */\n    tag_102:\n        /* \"#utility.yul\":1177:1182   */\n      0x00\n        /* \"#utility.yul\":1215:1221   */\n      dup2\n        /* \"#utility.yul\":1202:1222   */\n      calldataload\n        /* \"#utility.yul\":1193:1222   */\n      swap1\n      pop\n        /* \"#utility.yul\":1231:1264   */\n      tag_136\n        /* \"#utility.yul\":1258:1263   */\n      dup2\n        /* \"#utility.yul\":1231:1264   */\n      tag_101\n      jump\t// in\n    tag_136:\n        /* \"#utility.yul\":1131:1270   */\n      swap3\n      swap2\n      pop\n      pop\n      jump\t// out\n        /* \"#utility.yul\":1276:1605   */\n    tag_22:\n        /* \"#utility.yul\":1335:1341   */\n      0x00\n        /* \"#utility.yul\":1384:1386   */\n      0x20\n        /* \"#utility.yul\":1372:1381   */\n      dup3\n        /* \"#utility.yul\":1363:1370   */\n      dup5\n        /* \"#utility.yul\":1359:1382   */\n      sub\n        /* \"#utility.yul\":1355:1387   */\n      slt\n        /* \"#utility.yul\":1352:1471   */\n      iszero\n      tag_138\n      jumpi\n        /* \"#utility.yul\":1390:1469   */\n      tag_139\n      tag_97\n      jump\t// in\n    tag_139:\n        /* \"#utility.yul\":1352:1471   */\n    tag_138:\n        /* \"#utility.yul\":1510:1511   */\n      0x00\n        /* \"#utility.yul\":1535:1588   */\n      tag_140\n        /* \"#utility.yul\":1580:1587   */\n      dup5\n        /* \"#utility.yul\":1571:1577   */\n      dup3\n        /* \"#utility.yul\":1560:1569   */\n      dup6\n        /* \"#utility.yul\":1556:1578   */\n      add\n        /* \"#utility.yul\":1535:1588   */\n      tag_102\n      jump\t// in\n    tag_140:\n        /* \"#utility.yul\":1525:1588   */\n      swap2\n      pop\n        /* \"#utility.yul\":1481:1598   */\n      pop\n        /* \"#utility.yul\":1276:1605   */\n      swap3\n      swap2\n      pop\n      pop\n      jump\t// out\n        /* \"#utility.yul\":1611:1733   */\n    tag_103:\n        /* \"#utility.yul\":1684:1708   */\n      tag_142\n        /* \"#utility.yul\":1702:1707   */\n      dup2\n        /* \"#utility.yul\":1684:1708   */\n      tag_94\n      jump\t// in\n    tag_142:\n        /* \"#utility.yul\":1677:1682   */\n      dup2\n        /* \"#utility.yul\":1674:1709   */\n      eq\n        /* \"#utility.yul\":1664:1727   */\n      tag_143\n      jumpi\n        /* \"#utility.yul\":1723:1724   */\n      0x00\n        /* \"#utility.yul\":1720:1721   */\n      dup1\n        /* \"#utility.yul\":1713:1725   */\n      revert\n        /* \"#utility.yul\":1664:1727   */\n    tag_143:\n        /* \"#utility.yul\":1611:1733   */\n      pop\n      jump\t// out\n        /* \"#utility.yul\":1739:1878   */\n    tag_104:\n        /* \"#utility.yul\":1785:1790   */\n      0x00\n        /* \"#utility.yul\":1823:1829   */\n      dup2\n        /* \"#utility.yul\":1810:1830   */\n      calldataload\n        /* \"#utility.yul\":1801:1830   */\n      swap1\n      pop\n        /* \"#utility.yul\":1839:1872   */\n      tag_145\n        /* \"#utility.yul\":1866:1871   */\n      dup2\n        /* \"#utility.yul\":1839:1872   */\n      tag_103\n      jump\t// in\n    tag_145:\n        /* \"#utility.yul\":1739:1878   */\n      swap3\n      swap2\n      pop\n      pop\n      jump\t// out\n        /* \"#utility.yul\":1884:2213   */\n    tag_28:\n        /* \"#utility.yul\":1943:1949   */\n      0x00\n        /* \"#utility.yul\":1992:1994   */\n      0x20\n        /* \"#utility.yul\":1980:1989   */\n      dup3\n        /* \"#utility.yul\":1971:1978   */\n      dup5\n        /* \"#utility.yul\":1967:1990   */\n      sub\n        /* \"#utility.yul\":1963:1995   */\n      slt\n        /* \"#utility.yul\":1960:2079   */\n      iszero\n      tag_147\n      jumpi\n        /* \"#utility.yul\":1998:2077   */\n      tag_148\n      tag_97\n      jump\t// in\n    tag_148:\n        /* \"#utility.yul\":1960:2079   */\n    tag_147:\n        /* \"#utility.yul\":2118:2119   */\n      0x00\n        /* \"#utility.yul\":2143:2196   */\n      tag_149\n        /* \"#utility.yul\":2188:2195   */\n      dup5\n        /* \"#utility.yul\":2179:2185   */\n      dup3\n        /* \"#utility.yul\":2168:2177   */\n      dup6\n        /* \"#utility.yul\":2164:2186   */\n      add\n        /* \"#utility.yul\":2143:2196   */\n      tag_104\n      jump\t// in\n    tag_149:\n        /* \"#utility.yul\":2133:2196   */\n      swap2\n      pop\n        /* \"#utility.yul\":2089:2206   */\n      pop\n        /* \"#utility.yul\":1884:2213   */\n      swap3\n      swap2\n      pop\n      pop\n      jump\t// out\n        /* \"#utility.yul\":2219:2337   */\n    tag_105:\n        /* \"#utility.yul\":2306:2330   */\n      tag_151\n        /* \"#utility.yul\":2324:2329   */\n      dup2\n        /* \"#utility.yul\":2306:2330   */\n      tag_100\n      jump\t// in\n    tag_151:\n        /* \"#utility.yul\":2301:2304   */\n      dup3\n        /* \"#utility.yul\":2294:2331   */\n      mstore\n        /* \"#utility.yul\":2219:2337   */\n      pop\n      pop\n      jump\t// out\n        /* \"#utility.yul\":2343:2565   */\n    tag_35:\n        /* \"#utility.yul\":2436:2440   */\n      0x00\n        /* \"#utility.yul\":2474:2476   */\n      0x20\n        /* \"#utility.yul\":2463:2472   */\n      dup3\n        /* \"#utility.yul\":2459:2477   */\n      add\n        /* \"#utility.yul\":2451:2477   */\n      swap1\n      pop\n        /* \"#utility.yul\":2487:2558   */\n      tag_153\n        /* \"#utility.yul\":2555:2556   */\n      0x00\n        /* \"#utility.yul\":2544:2553   */\n      dup4\n        /* \"#utility.yul\":2540:2557   */\n      add\n        /* \"#utility.yul\":2531:2537   */\n      dup5\n        /* \"#utility.yul\":2487:2558   */\n      tag_105\n      jump\t// in\n    tag_153:\n        /* \"#utility.yul\":2343:2565   */\n      swap3\n      swap2\n      pop\n      pop\n      jump\t// out\n        /* \"#utility.yul\":2571:2740   */\n    tag_106:\n        /* \"#utility.yul\":2655:2666   */\n      0x00\n        /* \"#utility.yul\":2689:2695   */\n      dup3\n        /* \"#utility.yul\":2684:2687   */\n      dup3\n        /* \"#utility.yul\":2677:2696   */\n      mstore\n        /* \"#utility.yul\":2729:2733   */\n      0x20\n        /* \"#utility.yul\":2724:2727   */\n      dup3\n        /* \"#utility.yul\":2720:2734   */\n      add\n        /* \"#utility.yul\":2705:2734   */\n      swap1\n      pop\n        /* \"#utility.yul\":2571:2740   */\n      swap3\n      swap2\n      pop\n      pop\n      jump\t// out\n        /* \"#utility.yul\":2746:2924   */\n    tag_107:\n        /* \"#utility.yul\":2886:2916   */\n      0x50656e676972696d2062756b616e2073656f72616e67206f776e657200000000\n        /* \"#utility.yul\":2882:2883   */\n      0x00\n        /* \"#utility.yul\":2874:2880   */\n      dup3\n        /* \"#utility.yul\":2870:2884   */\n      add\n        /* \"#utility.yul\":2863:2917   */\n      mstore\n        /* \"#utility.yul\":2746:2924   */\n      pop\n      jump\t// out\n        /* \"#utility.yul\":2930:3296   */\n    tag_108:\n        /* \"#utility.yul\":3072:3075   */\n      0x00\n        /* \"#utility.yul\":3093:3160   */\n      tag_157\n        /* \"#utility.yul\":3157:3159   */\n      0x1c\n        /* \"#utility.yul\":3152:3155   */\n      dup4\n        /* \"#utility.yul\":3093:3160   */\n      tag_106\n      jump\t// in\n    tag_157:\n        /* \"#utility.yul\":3086:3160   */\n      swap2\n      pop\n        /* \"#utility.yul\":3169:3262   */\n      tag_158\n        /* \"#utility.yul\":3258:3261   */\n      dup3\n        /* \"#utility.yul\":3169:3262   */\n      tag_107\n      jump\t// in\n    tag_158:\n        /* \"#utility.yul\":3287:3289   */\n      0x20\n        /* \"#utility.yul\":3282:3285   */\n      dup3\n        /* \"#utility.yul\":3278:3290   */\n      add\n        /* \"#utility.yul\":3271:3290   */\n      swap1\n      pop\n        /* \"#utility.yul\":2930:3296   */\n      swap2\n      swap1\n      pop\n      jump\t// out\n        /* \"#utility.yul\":3302:3721   */\n    tag_50:\n        /* \"#utility.yul\":3468:3472   */\n      0x00\n        /* \"#utility.yul\":3506:3508   */\n      0x20\n        /* \"#utility.yul\":3495:3504   */\n      dup3\n        /* \"#utility.yul\":3491:3509   */\n      add\n        /* \"#utility.yul\":3483:3509   */\n      swap1\n      pop\n        /* \"#utility.yul\":3555:3564   */\n      dup2\n        /* \"#utility.yul\":3549:3553   */\n      dup2\n        /* \"#utility.yul\":3545:3565   */\n      sub\n        /* \"#utility.yul\":3541:3542   */\n      0x00\n        /* \"#utility.yul\":3530:3539   */\n      dup4\n        /* \"#utility.yul\":3526:3543   */\n      add\n        /* \"#utility.yul\":3519:3566   */\n      mstore\n        /* \"#utility.yul\":3583:3714   */\n      tag_160\n        /* \"#utility.yul\":3709:3713   */\n      dup2\n        /* \"#utility.yul\":3583:3714   */\n      tag_108\n      jump\t// in\n    tag_160:\n        /* \"#utility.yul\":3575:3714   */\n      swap1\n      pop\n        /* \"#utility.yul\":3302:3721   */\n      swap2\n      swap1\n      pop\n      jump\t// out\n        /* \"#utility.yul\":3727:3907   */\n    tag_57:\n        /* \"#utility.yul\":3775:3852   */\n      0x4e487b7100000000000000000000000000000000000000000000000000000000\n        /* \"#utility.yul\":3772:3773   */\n      0x00\n        /* \"#utility.yul\":3765:3853   */\n      mstore\n        /* \"#utility.yul\":3872:3876   */\n      0x32\n        /* \"#utility.yul\":3869:3870   */\n      0x04\n        /* \"#utility.yul\":3862:3877   */\n      mstore\n        /* \"#utility.yul\":3896:3900   */\n      0x24\n        /* \"#utility.yul\":3893:3894   */\n      0x00\n        /* \"#utility.yul\":3886:3901   */\n      revert\n        /* \"#utility.yul\":3913:4093   */\n    tag_61:\n        /* \"#utility.yul\":3961:4038   */\n      0x4e487b7100000000000000000000000000000000000000000000000000000000\n        /* \"#utility.yul\":3958:3959   */\n      0x00\n        /* \"#utility.yul\":3951:4039   */\n      mstore\n        /* \"#utility.yul\":4058:4062   */\n      0x41\n        /* \"#utility.yul\":4055:4056   */\n      0x04\n        /* \"#utility.yul\":4048:4063   */\n      mstore\n        /* \"#utility.yul\":4082:4086   */\n      0x24\n        /* \"#utility.yul\":4079:4080   */\n      0x00\n        /* \"#utility.yul\":4072:4087   */\n      revert\n        /* \"#utility.yul\":4099:4279   */\n    tag_109:\n        /* \"#utility.yul\":4147:4224   */\n      0x4e487b7100000000000000000000000000000000000000000000000000000000\n        /* \"#utility.yul\":4144:4145   */\n      0x00\n        /* \"#utility.yul\":4137:4225   */\n      mstore\n        /* \"#utility.yul\":4244:4248   */\n      0x11\n        /* \"#utility.yul\":4241:4242   */\n      0x04\n        /* \"#utility.yul\":4234:4249   */\n      mstore\n        /* \"#utility.yul\":4268:4272   */\n      0x24\n        /* \"#utility.yul\":4265:4266   */\n      0x00\n        /* \"#utility.yul\":4258:4273   */\n      revert\n        /* \"#utility.yul\":4285:4695   */\n    tag_70:\n        /* \"#utility.yul\":4325:4332   */\n      0x00\n        /* \"#utility.yul\":4348:4368   */\n      tag_165\n        /* \"#utility.yul\":4366:4367   */\n      dup3\n        /* \"#utility.yul\":4348:4368   */\n      tag_94\n      jump\t// in\n    tag_165:\n        /* \"#utility.yul\":4343:4368   */\n      swap2\n      pop\n        /* \"#utility.yul\":4382:4402   */\n      tag_166\n        /* \"#utility.yul\":4400:4401   */\n      dup4\n        /* \"#utility.yul\":4382:4402   */\n      tag_94\n      jump\t// in\n    tag_166:\n        /* \"#utility.yul\":4377:4402   */\n      swap3\n      pop\n        /* \"#utility.yul\":4437:4438   */\n      dup3\n        /* \"#utility.yul\":4434:4435   */\n      dup3\n        /* \"#utility.yul\":4430:4439   */\n      mul\n        /* \"#utility.yul\":4459:4489   */\n      tag_167\n        /* \"#utility.yul\":4477:4488   */\n      dup2\n        /* \"#utility.yul\":4459:4489   */\n      tag_94\n      jump\t// in\n    tag_167:\n        /* \"#utility.yul\":4448:4489   */\n      swap2\n      pop\n        /* \"#utility.yul\":4638:4639   */\n      dup3\n        /* \"#utility.yul\":4629:4636   */\n      dup3\n        /* \"#utility.yul\":4625:4640   */\n      div\n        /* \"#utility.yul\":4622:4623   */\n      dup5\n        /* \"#utility.yul\":4619:4641   */\n      eq\n        /* \"#utility.yul\":4599:4600   */\n      dup4\n        /* \"#utility.yul\":4592:4601   */\n      iszero\n        /* \"#utility.yul\":4572:4655   */\n      or\n        /* \"#utility.yul\":4549:4688   */\n      tag_168\n      jumpi\n        /* \"#utility.yul\":4668:4686   */\n      tag_169\n      tag_109\n      jump\t// in\n    tag_169:\n        /* \"#utility.yul\":4549:4688   */\n    tag_168:\n        /* \"#utility.yul\":4333:4695   */\n      pop\n        /* \"#utility.yul\":4285:4695   */\n      swap3\n      swap2\n      pop\n      pop\n      jump\t// out\n        /* \"#utility.yul\":4701:4881   */\n    tag_110:\n        /* \"#utility.yul\":4749:4826   */\n      0x4e487b7100000000000000000000000000000000000000000000000000000000\n        /* \"#utility.yul\":4746:4747   */\n      0x00\n        /* \"#utility.yul\":4739:4827   */\n      mstore\n        /* \"#utility.yul\":4846:4850   */\n      0x12\n        /* \"#utility.yul\":4843:4844   */\n      0x04\n        /* \"#utility.yul\":4836:4851   */\n      mstore\n        /* \"#utility.yul\":4870:4874   */\n      0x24\n        /* \"#utility.yul\":4867:4868   */\n      0x00\n        /* \"#utility.yul\":4860:4875   */\n      revert\n        /* \"#utility.yul\":4887:5072   */\n    tag_72:\n        /* \"#utility.yul\":4927:4928   */\n      0x00\n        /* \"#utility.yul\":4944:4964   */\n      tag_172\n        /* \"#utility.yul\":4962:4963   */\n      dup3\n        /* \"#utility.yul\":4944:4964   */\n      tag_94\n      jump\t// in\n    tag_172:\n        /* \"#utility.yul\":4939:4964   */\n      swap2\n      pop\n        /* \"#utility.yul\":4978:4998   */\n      tag_173\n        /* \"#utility.yul\":4996:4997   */\n      dup4\n        /* \"#utility.yul\":4978:4998   */\n      tag_94\n      jump\t// in\n    tag_173:\n        /* \"#utility.yul\":4973:4998   */\n      swap3\n      pop\n        /* \"#utility.yul\":5017:5018   */\n      dup3\n        /* \"#utility.yul\":5007:5042   */\n      tag_174\n      jumpi\n        /* \"#utility.yul\":5022:5040   */\n      tag_175\n      tag_110\n      jump\t// in\n    tag_175:\n        /* \"#utility.yul\":5007:5042   */\n    tag_174:\n        /* \"#utility.yul\":5064:5065   */\n      dup3\n        /* \"#utility.yul\":5061:5062   */\n      dup3\n        /* \"#utility.yul\":5057:5066   */\n      div\n        /* \"#utility.yul\":5052:5066   */\n      swap1\n      pop\n        /* \"#utility.yul\":4887:5072   */\n      swap3\n      swap2\n      pop\n      pop\n      jump\t// out\n        /* \"#utility.yul\":5078:5183   */\n    tag_111:\n        /* \"#utility.yul\":5114:5121   */\n      0x00\n        /* \"#utility.yul\":5154:5176   */\n      0xffffffffffffffffffff\n        /* \"#utility.yul\":5147:5152   */\n      dup3\n        /* \"#utility.yul\":5143:5177   */\n      and\n        /* \"#utility.yul\":5132:5177   */\n      swap1\n      pop\n        /* \"#utility.yul\":5078:5183   */\n      swap2\n      swap1\n      pop\n      jump\t// out\n        /* \"#utility.yul\":5189:5309   */\n    tag_112:\n        /* \"#utility.yul\":5261:5284   */\n      tag_178\n        /* \"#utility.yul\":5278:5283   */\n      dup2\n        /* \"#utility.yul\":5261:5284   */\n      tag_111\n      jump\t// in\n    tag_178:\n        /* \"#utility.yul\":5254:5259   */\n      dup2\n        /* \"#utility.yul\":5251:5285   */\n      eq\n        /* \"#utility.yul\":5241:5303   */\n      tag_179\n      jumpi\n        /* \"#utility.yul\":5299:5300   */\n      0x00\n        /* \"#utility.yul\":5296:5297   */\n      dup1\n        /* \"#utility.yul\":5289:5301   */\n      revert\n        /* \"#utility.yul\":5241:5303   */\n    tag_179:\n        /* \"#utility.yul\":5189:5309   */\n      pop\n      jump\t// out\n        /* \"#utility.yul\":5315:5456   */\n    tag_113:\n        /* \"#utility.yul\":5371:5376   */\n      0x00\n        /* \"#utility.yul\":5402:5408   */\n      dup2\n        /* \"#utility.yul\":5396:5409   */\n      mload\n        /* \"#utility.yul\":5387:5409   */\n      swap1\n      pop\n        /* \"#utility.yul\":5418:5450   */\n      tag_181\n        /* \"#utility.yul\":5444:5449   */\n      dup2\n        /* \"#utility.yul\":5418:5450   */\n      tag_112\n      jump\t// in\n    tag_181:\n        /* \"#utility.yul\":5315:5456   */\n      swap3\n      swap2\n      pop\n      pop\n      jump\t// out\n        /* \"#utility.yul\":5462:5538   */\n    tag_114:\n        /* \"#utility.yul\":5498:5505   */\n      0x00\n        /* \"#utility.yul\":5527:5532   */\n      dup2\n        /* \"#utility.yul\":5516:5532   */\n      swap1\n      pop\n        /* \"#utility.yul\":5462:5538   */\n      swap2\n      swap1\n      pop\n      jump\t// out\n        /* \"#utility.yul\":5544:5664   */\n    tag_115:\n        /* \"#utility.yul\":5616:5639   */\n      tag_184\n        /* \"#utility.yul\":5633:5638   */\n      dup2\n        /* \"#utility.yul\":5616:5639   */\n      tag_114\n      jump\t// in\n    tag_184:\n        /* \"#utility.yul\":5609:5614   */\n      dup2\n        /* \"#utility.yul\":5606:5640   */\n      eq\n        /* \"#utility.yul\":5596:5658   */\n      tag_185\n      jumpi\n        /* \"#utility.yul\":5654:5655   */\n      0x00\n        /* \"#utility.yul\":5651:5652   */\n      dup1\n        /* \"#utility.yul\":5644:5656   */\n      revert\n        /* \"#utility.yul\":5596:5658   */\n    tag_185:\n        /* \"#utility.yul\":5544:5664   */\n      pop\n      jump\t// out\n        /* \"#utility.yul\":5670:5811   */\n    tag_116:\n        /* \"#utility.yul\":5726:5731   */\n      0x00\n        /* \"#utility.yul\":5757:5763   */\n      dup2\n        /* \"#utility.yul\":5751:5764   */\n      mload\n        /* \"#utility.yul\":5742:5764   */\n      swap1\n      pop\n        /* \"#utility.yul\":5773:5805   */\n      tag_187\n        /* \"#utility.yul\":5799:5804   */\n      dup2\n        /* \"#utility.yul\":5773:5805   */\n      tag_115\n      jump\t// in\n    tag_187:\n        /* \"#utility.yul\":5670:5811   */\n      swap3\n      swap2\n      pop\n      pop\n      jump\t// out\n        /* \"#utility.yul\":5817:5960   */\n    tag_117:\n        /* \"#utility.yul\":5874:5879   */\n      0x00\n        /* \"#utility.yul\":5905:5911   */\n      dup2\n        /* \"#utility.yul\":5899:5912   */\n      mload\n        /* \"#utility.yul\":5890:5912   */\n      swap1\n      pop\n        /* \"#utility.yul\":5921:5954   */\n      tag_189\n        /* \"#utility.yul\":5948:5953   */\n      dup2\n        /* \"#utility.yul\":5921:5954   */\n      tag_103\n      jump\t// in\n    tag_189:\n        /* \"#utility.yul\":5817:5960   */\n      swap3\n      swap2\n      pop\n      pop\n      jump\t// out\n        /* \"#utility.yul\":5966:6937   */\n    tag_77:\n        /* \"#utility.yul\":6069:6075   */\n      0x00\n        /* \"#utility.yul\":6077:6083   */\n      dup1\n        /* \"#utility.yul\":6085:6091   */\n      0x00\n        /* \"#utility.yul\":6093:6099   */\n      dup1\n        /* \"#utility.yul\":6101:6107   */\n      0x00\n        /* \"#utility.yul\":6150:6153   */\n      0xa0\n        /* \"#utility.yul\":6138:6147   */\n      dup7\n        /* \"#utility.yul\":6129:6136   */\n      dup9\n        /* \"#utility.yul\":6125:6148   */\n      sub\n        /* \"#utility.yul\":6121:6154   */\n      slt\n        /* \"#utility.yul\":6118:6238   */\n      iszero\n      tag_191\n      jumpi\n        /* \"#utility.yul\":6157:6236   */\n      tag_192\n      tag_97\n      jump\t// in\n    tag_192:\n        /* \"#utility.yul\":6118:6238   */\n    tag_191:\n        /* \"#utility.yul\":6277:6278   */\n      0x00\n        /* \"#utility.yul\":6302:6365   */\n      tag_193\n        /* \"#utility.yul\":6357:6364   */\n      dup9\n        /* \"#utility.yul\":6348:6354   */\n      dup3\n        /* \"#utility.yul\":6337:6346   */\n      dup10\n        /* \"#utility.yul\":6333:6355   */\n      add\n        /* \"#utility.yul\":6302:6365   */\n      tag_113\n      jump\t// in\n    tag_193:\n        /* \"#utility.yul\":6292:6365   */\n      swap6\n      pop\n        /* \"#utility.yul\":6248:6375   */\n      pop\n        /* \"#utility.yul\":6414:6416   */\n      0x20\n        /* \"#utility.yul\":6440:6503   */\n      tag_194\n        /* \"#utility.yul\":6495:6502   */\n      dup9\n        /* \"#utility.yul\":6486:6492   */\n      dup3\n        /* \"#utility.yul\":6475:6484   */\n      dup10\n        /* \"#utility.yul\":6471:6493   */\n      add\n        /* \"#utility.yul\":6440:6503   */\n      tag_116\n      jump\t// in\n    tag_194:\n        /* \"#utility.yul\":6430:6503   */\n      swap5\n      pop\n        /* \"#utility.yul\":6385:6513   */\n      pop\n        /* \"#utility.yul\":6552:6554   */\n      0x40\n        /* \"#utility.yul\":6578:6642   */\n      tag_195\n        /* \"#utility.yul\":6634:6641   */\n      dup9\n        /* \"#utility.yul\":6625:6631   */\n      dup3\n        /* \"#utility.yul\":6614:6623   */\n      dup10\n        /* \"#utility.yul\":6610:6632   */\n      add\n        /* \"#utility.yul\":6578:6642   */\n      tag_117\n      jump\t// in\n    tag_195:\n        /* \"#utility.yul\":6568:6642   */\n      swap4\n      pop\n        /* \"#utility.yul\":6523:6652   */\n      pop\n        /* \"#utility.yul\":6691:6693   */\n      0x60\n        /* \"#utility.yul\":6717:6781   */\n      tag_196\n        /* \"#utility.yul\":6773:6780   */\n      dup9\n        /* \"#utility.yul\":6764:6770   */\n      dup3\n        /* \"#utility.yul\":6753:6762   */\n      dup10\n        /* \"#utility.yul\":6749:6771   */\n      add\n        /* \"#utility.yul\":6717:6781   */\n      tag_117\n      jump\t// in\n    tag_196:\n        /* \"#utility.yul\":6707:6781   */\n      swap3\n      pop\n        /* \"#utility.yul\":6662:6791   */\n      pop\n        /* \"#utility.yul\":6830:6833   */\n      0x80\n        /* \"#utility.yul\":6857:6920   */\n      tag_197\n        /* \"#utility.yul\":6912:6919   */\n      dup9\n        /* \"#utility.yul\":6903:6909   */\n      dup3\n        /* \"#utility.yul\":6892:6901   */\n      dup10\n        /* \"#utility.yul\":6888:6910   */\n      add\n        /* \"#utility.yul\":6857:6920   */\n      tag_113\n      jump\t// in\n    tag_197:\n        /* \"#utility.yul\":6847:6920   */\n      swap2\n      pop\n        /* \"#utility.yul\":6801:6930   */\n      pop\n        /* \"#utility.yul\":5966:6937   */\n      swap3\n      swap6\n      pop\n      swap3\n      swap6\n      swap1\n      swap4\n      pop\n      jump\t// out\n        /* \"#utility.yul\":6943:7499   */\n    tag_79:\n        /* \"#utility.yul\":6982:6989   */\n      0x00\n        /* \"#utility.yul\":7005:7024   */\n      tag_199\n        /* \"#utility.yul\":7022:7023   */\n      dup3\n        /* \"#utility.yul\":7005:7024   */\n      tag_114\n      jump\t// in\n    tag_199:\n        /* \"#utility.yul\":7000:7024   */\n      swap2\n      pop\n        /* \"#utility.yul\":7038:7057   */\n      tag_200\n        /* \"#utility.yul\":7055:7056   */\n      dup4\n        /* \"#utility.yul\":7038:7057   */\n      tag_114\n      jump\t// in\n    tag_200:\n        /* \"#utility.yul\":7033:7057   */\n      swap3\n      pop\n        /* \"#utility.yul\":7092:7093   */\n      dup3\n        /* \"#utility.yul\":7089:7090   */\n      dup3\n        /* \"#utility.yul\":7085:7094   */\n      mul\n        /* \"#utility.yul\":7114:7143   */\n      tag_201\n        /* \"#utility.yul\":7131:7142   */\n      dup2\n        /* \"#utility.yul\":7114:7143   */\n      tag_114\n      jump\t// in\n    tag_201:\n        /* \"#utility.yul\":7103:7143   */\n      swap2\n      pop\n        /* \"#utility.yul\":7201:7267   */\n      0x8000000000000000000000000000000000000000000000000000000000000000\n        /* \"#utility.yul\":7198:7199   */\n      dup5\n        /* \"#utility.yul\":7195:7268   */\n      eq\n        /* \"#utility.yul\":7191:7192   */\n      0x00\n        /* \"#utility.yul\":7188:7189   */\n      dup5\n        /* \"#utility.yul\":7184:7193   */\n      slt\n        /* \"#utility.yul\":7180:7269   */\n      and\n        /* \"#utility.yul\":7177:7292   */\n      iszero\n      tag_202\n      jumpi\n        /* \"#utility.yul\":7272:7290   */\n      tag_203\n      tag_109\n      jump\t// in\n    tag_203:\n        /* \"#utility.yul\":7177:7292   */\n    tag_202:\n        /* \"#utility.yul\":7442:7443   */\n      dup3\n        /* \"#utility.yul\":7433:7440   */\n      dup3\n        /* \"#utility.yul\":7428:7444   */\n      sdiv\n        /* \"#utility.yul\":7425:7426   */\n      dup5\n        /* \"#utility.yul\":7422:7445   */\n      eq\n        /* \"#utility.yul\":7402:7403   */\n      dup4\n        /* \"#utility.yul\":7395:7404   */\n      iszero\n        /* \"#utility.yul\":7375:7459   */\n      or\n        /* \"#utility.yul\":7352:7492   */\n      tag_204\n      jumpi\n        /* \"#utility.yul\":7472:7490   */\n      tag_205\n      tag_109\n      jump\t// in\n    tag_205:\n        /* \"#utility.yul\":7352:7492   */\n    tag_204:\n        /* \"#utility.yul\":6990:7499   */\n      pop\n        /* \"#utility.yul\":6943:7499   */\n      swap3\n      swap2\n      pop\n      pop\n      jump\t// out\n        /* \"#utility.yul\":7505:7726   */\n    tag_118:\n        /* \"#utility.yul\":7645:7679   */\n      0x4d6161662c206e696c61692079616e6720616e646120696e707574206b757261\n        /* \"#utility.yul\":7641:7642   */\n      0x00\n        /* \"#utility.yul\":7633:7639   */\n      dup3\n        /* \"#utility.yul\":7629:7643   */\n      add\n        /* \"#utility.yul\":7622:7680   */\n      mstore\n        /* \"#utility.yul\":7714:7718   */\n      0x6e67000000000000000000000000000000000000000000000000000000000000\n        /* \"#utility.yul\":7709:7711   */\n      0x20\n        /* \"#utility.yul\":7701:7707   */\n      dup3\n        /* \"#utility.yul\":7697:7712   */\n      add\n        /* \"#utility.yul\":7690:7719   */\n      mstore\n        /* \"#utility.yul\":7505:7726   */\n      pop\n      jump\t// out\n        /* \"#utility.yul\":7732:8098   */\n    tag_119:\n        /* \"#utility.yul\":7874:7877   */\n      0x00\n        /* \"#utility.yul\":7895:7962   */\n      tag_208\n        /* \"#utility.yul\":7959:7961   */\n      0x22\n        /* \"#utility.yul\":7954:7957   */\n      dup4\n        /* \"#utility.yul\":7895:7962   */\n      tag_106\n      jump\t// in\n    tag_208:\n        /* \"#utility.yul\":7888:7962   */\n      swap2\n      pop\n        /* \"#utility.yul\":7971:8064   */\n      tag_209\n        /* \"#utility.yul\":8060:8063   */\n      dup3\n        /* \"#utility.yul\":7971:8064   */\n      tag_118\n      jump\t// in\n    tag_209:\n        /* \"#utility.yul\":8089:8091   */\n      0x40\n        /* \"#utility.yul\":8084:8087   */\n      dup3\n        /* \"#utility.yul\":8080:8092   */\n      add\n        /* \"#utility.yul\":8073:8092   */\n      swap1\n      pop\n        /* \"#utility.yul\":7732:8098   */\n      swap2\n      swap1\n      pop\n      jump\t// out\n        /* \"#utility.yul\":8104:8523   */\n    tag_83:\n        /* \"#utility.yul\":8270:8274   */\n      0x00\n        /* \"#utility.yul\":8308:8310   */\n      0x20\n        /* \"#utility.yul\":8297:8306   */\n      dup3\n        /* \"#utility.yul\":8293:8311   */\n      add\n        /* \"#utility.yul\":8285:8311   */\n      swap1\n      pop\n        /* \"#utility.yul\":8357:8366   */\n      dup2\n        /* \"#utility.yul\":8351:8355   */\n      dup2\n        /* \"#utility.yul\":8347:8367   */\n      sub\n        /* \"#utility.yul\":8343:8344   */\n      0x00\n        /* \"#utility.yul\":8332:8341   */\n      dup4\n        /* \"#utility.yul\":8328:8345   */\n      add\n        /* \"#utility.yul\":8321:8368   */\n      mstore\n        /* \"#utility.yul\":8385:8516   */\n      tag_211\n        /* \"#utility.yul\":8511:8515   */\n      dup2\n        /* \"#utility.yul\":8385:8516   */\n      tag_119\n      jump\t// in\n    tag_211:\n        /* \"#utility.yul\":8377:8516   */\n      swap1\n      pop\n        /* \"#utility.yul\":8104:8523   */\n      swap2\n      swap1\n      pop\n      jump\t// out\n\n    auxdata: 0xa264697066735822122071d2f518c755c0e2f8842bb78fbc04afab509322c36f7dde8831d57c88b8c6fd64736f6c634300081a0033\n}\n",
				"bytecode": {
					"linkReferences": {},
					"object": "60806040526802b5e3af16b1880000600155348015601b575f80fd5b50335f806101000a81548173ffffffffffffffffffffffffffffffffffffffff021916908373ffffffffffffffffffffffffffffffffffffffff160217905550610b93806100685f395ff3fe60806040526004361061007a575f3560e01c80638da5cb5b1161004d5780638da5cb5b1461013657806398d5fdca14610160578063b60d42881461018a578063dc0d3dff146101945761007a565b8063098de8201461007e5780633ccfd60b146100a85780633e47d6f3146100be5780636e5b6b28146100fa575b5f80fd5b348015610089575f80fd5b506100926101d0565b60405161009f91906106a0565b60405180910390f35b3480156100b3575f80fd5b506100bc6101d6565b005b3480156100c9575f80fd5b506100e460048036038101906100df9190610717565b6103a7565b6040516100f191906106a0565b60405180910390f35b348015610105575f80fd5b50610120600480360381019061011b919061076c565b6103bc565b60405161012d91906106a0565b60405180910390f35b348015610141575f80fd5b5061014a6103f4565b60405161015791906107a6565b60405180910390f35b34801561016b575f80fd5b50610174610417565b60405161018191906106a0565b60405180910390f35b6101926104bc565b005b34801561019f575f80fd5b506101ba60048036038101906101b5919061076c565b6105ab565b6040516101c791906107a6565b60405180910390f35b60015481565b5f8054906101000a900473ffffffffffffffffffffffffffffffffffffffff1673ffffffffffffffffffffffffffffffffffffffff163373ffffffffffffffffffffffffffffffffffffffff1614610263576040517f08c379a000000000000000000000000000000000000000000000000000000000815260040161025a90610819565b60405180910390fd5b5f5b6002805490508110156103a4575f6002828154811061028757610286610837565b5b905f5260205f20015f9054906101000a900473ffffffffffffffffffffffffffffffffffffffff1690505f60035f8373ffffffffffffffffffffffffffffffffffffffff1673ffffffffffffffffffffffffffffffffffffffff1681526020019081526020015f20819055505f67ffffffffffffffff81111561030d5761030c610864565b5b60405190808252806020026020018201604052801561033b5781602001602082028036833780820191505090505b50600290805190602001906103519291906105e6565b503373ffffffffffffffffffffffffffffffffffffffff166108fc4790811502906040515f60405180830381858888f19350505050158015610395573d5f803e3d5ffd5b50508080600101915050610265565b50565b6003602052805f5260405f205f915090505481565b5f806103c6610417565b90505f670de0b6b3a764000084836103de91906108be565b6103e8919061092c565b90508092505050919050565b5f8054906101000a900473ffffffffffffffffffffffffffffffffffffffff1681565b5f8073694aa1769357215de4fac081bf1f309adc32530690505f8173ffffffffffffffffffffffffffffffffffffffff1663feaf968c6040518163ffffffff1660e01b815260040160a060405180830381865afa15801561047a573d5f803e3d5ffd5b505050506040513d601f19601f8201168201806040525081019061049e91906109e2565b5050509150506402540be400816104b59190610a59565b9250505090565b670de0b6b3a7640000341015610507576040517f08c379a00000000000000000000000000000000000000000000000000000000081526004016104fe90610b3f565b60405180910390fd5b600233908060018154018082558091505060019003905f5260205f20015f9091909190916101000a81548173ffffffffffffffffffffffffffffffffffffffff021916908373ffffffffffffffffffffffffffffffffffffffff1602179055503460035f3373ffffffffffffffffffffffffffffffffffffffff1673ffffffffffffffffffffffffffffffffffffffff1681526020019081526020015f2081905550565b600281815481106105ba575f80fd5b905f5260205f20015f915054906101000a900473ffffffffffffffffffffffffffffffffffffffff1681565b828054828255905f5260205f2090810192821561065c579160200282015b8281111561065b578251825f6101000a81548173ffffffffffffffffffffffffffffffffffffffff021916908373ffffffffffffffffffffffffffffffffffffffff16021790555091602001919060010190610604565b5b509050610669919061066d565b5090565b5b80821115610684575f815f90555060010161066e565b5090565b5f819050919050565b61069a81610688565b82525050565b5f6020820190506106b35f830184610691565b92915050565b5f80fd5b5f73ffffffffffffffffffffffffffffffffffffffff82169050919050565b5f6106e6826106bd565b9050919050565b6106f6816106dc565b8114610700575f80fd5b50565b5f81359050610711816106ed565b92915050565b5f6020828403121561072c5761072b6106b9565b5b5f61073984828501610703565b91505092915050565b61074b81610688565b8114610755575f80fd5b50565b5f8135905061076681610742565b92915050565b5f60208284031215610781576107806106b9565b5b5f61078e84828501610758565b91505092915050565b6107a0816106dc565b82525050565b5f6020820190506107b95f830184610797565b92915050565b5f82825260208201905092915050565b7f50656e676972696d2062756b616e2073656f72616e67206f776e6572000000005f82015250565b5f610803601c836107bf565b915061080e826107cf565b602082019050919050565b5f6020820190508181035f830152610830816107f7565b9050919050565b7f4e487b71000000000000000000000000000000000000000000000000000000005f52603260045260245ffd5b7f4e487b71000000000000000000000000000000000000000000000000000000005f52604160045260245ffd5b7f4e487b71000000000000000000000000000000000000000000000000000000005f52601160045260245ffd5b5f6108c882610688565b91506108d383610688565b92508282026108e181610688565b915082820484148315176108f8576108f7610891565b5b5092915050565b7f4e487b71000000000000000000000000000000000000000000000000000000005f52601260045260245ffd5b5f61093682610688565b915061094183610688565b925082610951576109506108ff565b5b828204905092915050565b5f69ffffffffffffffffffff82169050919050565b61097a8161095c565b8114610984575f80fd5b50565b5f8151905061099581610971565b92915050565b5f819050919050565b6109ad8161099b565b81146109b7575f80fd5b50565b5f815190506109c8816109a4565b92915050565b5f815190506109dc81610742565b92915050565b5f805f805f60a086880312156109fb576109fa6106b9565b5b5f610a0888828901610987565b9550506020610a19888289016109ba565b9450506040610a2a888289016109ce565b9350506060610a3b888289016109ce565b9250506080610a4c88828901610987565b9150509295509295909350565b5f610a638261099b565b9150610a6e8361099b565b9250828202610a7c8161099b565b91507f800000000000000000000000000000000000000000000000000000000000000084145f84121615610ab357610ab2610891565b5b8282058414831517610ac857610ac7610891565b5b5092915050565b7f4d6161662c206e696c61692079616e6720616e646120696e707574206b7572615f8201527f6e67000000000000000000000000000000000000000000000000000000000000602082015250565b5f610b296022836107bf565b9150610b3482610acf565b604082019050919050565b5f6020820190508181035f830152610b5681610b1d565b905091905056fea264697066735822122071d2f518c755c0e2f8842bb78fbc04afab509322c36f7dde8831d57c88b8c6fd64736f6c634300081a0033",
					"opcodes": "PUSH1 0x80 PUSH1 0x40 MSTORE PUSH9 0x2B5E3AF16B1880000 PUSH1 0x1 SSTORE CALLVALUE DUP1 ISZERO PUSH1 0x1B JUMPI PUSH0 DUP1 REVERT JUMPDEST POP CALLER PUSH0 DUP1 PUSH2 0x100 EXP DUP2 SLOAD DUP2 PUSH20 0xFFFFFFFFFFFFFFFFFFFFFFFFFFFFFFFFFFFFFFFF MUL NOT AND SWAP1 DUP4 PUSH20 0xFFFFFFFFFFFFFFFFFFFFFFFFFFFFFFFFFFFFFFFF AND MUL OR SWAP1 SSTORE POP PUSH2 0xB93 DUP1 PUSH2 0x68 PUSH0 CODECOPY PUSH0 RETURN INVALID PUSH1 0x80 PUSH1 0x40 MSTORE PUSH1 0x4 CALLDATASIZE LT PUSH2 0x7A JUMPI PUSH0 CALLDATALOAD PUSH1 0xE0 SHR DUP1 PUSH4 0x8DA5CB5B GT PUSH2 0x4D JUMPI DUP1 PUSH4 0x8DA5CB5B EQ PUSH2 0x136 JUMPI DUP1 PUSH4 0x98D5FDCA EQ PUSH2 0x160 JUMPI DUP1 PUSH4 0xB60D4288 EQ PUSH2 0x18A JUMPI DUP1 PUSH4 0xDC0D3DFF EQ PUSH2 0x194 JUMPI PUSH2 0x7A JUMP JUMPDEST DUP1 PUSH4 0x98DE820 EQ PUSH2 0x7E JUMPI DUP1 PUSH4 0x3CCFD60B EQ PUSH2 0xA8 JUMPI DUP1 PUSH4 0x3E47D6F3 EQ PUSH2 0xBE JUMPI DUP1 PUSH4 0x6E5B6B28 EQ PUSH2 0xFA JUMPI JUMPDEST PUSH0 DUP1 REVERT JUMPDEST CALLVALUE DUP1 ISZERO PUSH2 0x89 JUMPI PUSH0 DUP1 REVERT JUMPDEST POP PUSH2 0x92 PUSH2 0x1D0 JUMP JUMPDEST PUSH1 0x40 MLOAD PUSH2 0x9F SWAP2 SWAP1 PUSH2 0x6A0 JUMP JUMPDEST PUSH1 0x40 MLOAD DUP1 SWAP2 SUB SWAP1 RETURN JUMPDEST CALLVALUE DUP1 ISZERO PUSH2 0xB3 JUMPI PUSH0 DUP1 REVERT JUMPDEST POP PUSH2 0xBC PUSH2 0x1D6 JUMP JUMPDEST STOP JUMPDEST CALLVALUE DUP1 ISZERO PUSH2 0xC9 JUMPI PUSH0 DUP1 REVERT JUMPDEST POP PUSH2 0xE4 PUSH1 0x4 DUP1 CALLDATASIZE SUB DUP2 ADD SWAP1 PUSH2 0xDF SWAP2 SWAP1 PUSH2 0x717 JUMP JUMPDEST PUSH2 0x3A7 JUMP JUMPDEST PUSH1 0x40 MLOAD PUSH2 0xF1 SWAP2 SWAP1 PUSH2 0x6A0 JUMP JUMPDEST PUSH1 0x40 MLOAD DUP1 SWAP2 SUB SWAP1 RETURN JUMPDEST CALLVALUE DUP1 ISZERO PUSH2 0x105 JUMPI PUSH0 DUP1 REVERT JUMPDEST POP PUSH2 0x120 PUSH1 0x4 DUP1 CALLDATASIZE SUB DUP2 ADD SWAP1 PUSH2 0x11B SWAP2 SWAP1 PUSH2 0x76C JUMP JUMPDEST PUSH2 0x3BC JUMP JUMPDEST PUSH1 0x40 MLOAD PUSH2 0x12D SWAP2 SWAP1 PUSH2 0x6A0 JUMP JUMPDEST PUSH1 0x40 MLOAD DUP1 SWAP2 SUB SWAP1 RETURN JUMPDEST CALLVALUE DUP1 ISZERO PUSH2 0x141 JUMPI PUSH0 DUP1 REVERT JUMPDEST POP PUSH2 0x14A PUSH2 0x3F4 JUMP JUMPDEST PUSH1 0x40 MLOAD PUSH2 0x157 SWAP2 SWAP1 PUSH2 0x7A6 JUMP JUMPDEST PUSH1 0x40 MLOAD DUP1 SWAP2 SUB SWAP1 RETURN JUMPDEST CALLVALUE DUP1 ISZERO PUSH2 0x16B JUMPI PUSH0 DUP1 REVERT JUMPDEST POP PUSH2 0x174 PUSH2 0x417 JUMP JUMPDEST PUSH1 0x40 MLOAD PUSH2 0x181 SWAP2 SWAP1 PUSH2 0x6A0 JUMP JUMPDEST PUSH1 0x40 MLOAD DUP1 SWAP2 SUB SWAP1 RETURN JUMPDEST PUSH2 0x192 PUSH2 0x4BC JUMP JUMPDEST STOP JUMPDEST CALLVALUE DUP1 ISZERO PUSH2 0x19F JUMPI PUSH0 DUP1 REVERT JUMPDEST POP PUSH2 0x1BA PUSH1 0x4 DUP1 CALLDATASIZE SUB DUP2 ADD SWAP1 PUSH2 0x1B5 SWAP2 SWAP1 PUSH2 0x76C JUMP JUMPDEST PUSH2 0x5AB JUMP JUMPDEST PUSH1 0x40 MLOAD PUSH2 0x1C7 SWAP2 SWAP1 PUSH2 0x7A6 JUMP JUMPDEST PUSH1 0x40 MLOAD DUP1 SWAP2 SUB SWAP1 RETURN JUMPDEST PUSH1 0x1 SLOAD DUP2 JUMP JUMPDEST PUSH0 DUP1 SLOAD SWAP1 PUSH2 0x100 EXP SWAP1 DIV PUSH20 0xFFFFFFFFFFFFFFFFFFFFFFFFFFFFFFFFFFFFFFFF AND PUSH20 0xFFFFFFFFFFFFFFFFFFFFFFFFFFFFFFFFFFFFFFFF AND CALLER PUSH20 0xFFFFFFFFFFFFFFFFFFFFFFFFFFFFFFFFFFFFFFFF AND EQ PUSH2 0x263 JUMPI PUSH1 0x40 MLOAD PUSH32 0x8C379A000000000000000000000000000000000000000000000000000000000 DUP2 MSTORE PUSH1 0x4 ADD PUSH2 0x25A SWAP1 PUSH2 0x819 JUMP JUMPDEST PUSH1 0x40 MLOAD DUP1 SWAP2 SUB SWAP1 REVERT JUMPDEST PUSH0 JUMPDEST PUSH1 0x2 DUP1 SLOAD SWAP1 POP DUP2 LT ISZERO PUSH2 0x3A4 JUMPI PUSH0 PUSH1 0x2 DUP3 DUP2 SLOAD DUP2 LT PUSH2 0x287 JUMPI PUSH2 0x286 PUSH2 0x837 JUMP JUMPDEST JUMPDEST SWAP1 PUSH0 MSTORE PUSH1 0x20 PUSH0 KECCAK256 ADD PUSH0 SWAP1 SLOAD SWAP1 PUSH2 0x100 EXP SWAP1 DIV PUSH20 0xFFFFFFFFFFFFFFFFFFFFFFFFFFFFFFFFFFFFFFFF AND SWAP1 POP PUSH0 PUSH1 0x3 PUSH0 DUP4 PUSH20 0xFFFFFFFFFFFFFFFFFFFFFFFFFFFFFFFFFFFFFFFF AND PUSH20 0xFFFFFFFFFFFFFFFFFFFFFFFFFFFFFFFFFFFFFFFF AND DUP2 MSTORE PUSH1 0x20 ADD SWAP1 DUP2 MSTORE PUSH1 0x20 ADD PUSH0 KECCAK256 DUP2 SWAP1 SSTORE POP PUSH0 PUSH8 0xFFFFFFFFFFFFFFFF DUP2 GT ISZERO PUSH2 0x30D JUMPI PUSH2 0x30C PUSH2 0x864 JUMP JUMPDEST JUMPDEST PUSH1 0x40 MLOAD SWAP1 DUP1 DUP3 MSTORE DUP1 PUSH1 0x20 MUL PUSH1 0x20 ADD DUP3 ADD PUSH1 0x40 MSTORE DUP1 ISZERO PUSH2 0x33B JUMPI DUP2 PUSH1 0x20 ADD PUSH1 0x20 DUP3 MUL DUP1 CALLDATASIZE DUP4 CALLDATACOPY DUP1 DUP3 ADD SWAP2 POP POP SWAP1 POP JUMPDEST POP PUSH1 0x2 SWAP1 DUP1 MLOAD SWAP1 PUSH1 0x20 ADD SWAP1 PUSH2 0x351 SWAP3 SWAP2 SWAP1 PUSH2 0x5E6 JUMP JUMPDEST POP CALLER PUSH20 0xFFFFFFFFFFFFFFFFFFFFFFFFFFFFFFFFFFFFFFFF AND PUSH2 0x8FC SELFBALANCE SWAP1 DUP2 ISZERO MUL SWAP1 PUSH1 0x40 MLOAD PUSH0 PUSH1 0x40 MLOAD DUP1 DUP4 SUB DUP2 DUP6 DUP9 DUP9 CALL SWAP4 POP POP POP POP ISZERO DUP1 ISZERO PUSH2 0x395 JUMPI RETURNDATASIZE PUSH0 DUP1 RETURNDATACOPY RETURNDATASIZE PUSH0 REVERT JUMPDEST POP POP DUP1 DUP1 PUSH1 0x1 ADD SWAP2 POP POP PUSH2 0x265 JUMP JUMPDEST POP JUMP JUMPDEST PUSH1 0x3 PUSH1 0x20 MSTORE DUP1 PUSH0 MSTORE PUSH1 0x40 PUSH0 KECCAK256 PUSH0 SWAP2 POP SWAP1 POP SLOAD DUP2 JUMP JUMPDEST PUSH0 DUP1 PUSH2 0x3C6 PUSH2 0x417 JUMP JUMPDEST SWAP1 POP PUSH0 PUSH8 0xDE0B6B3A7640000 DUP5 DUP4 PUSH2 0x3DE SWAP2 SWAP1 PUSH2 0x8BE JUMP JUMPDEST PUSH2 0x3E8 SWAP2 SWAP1 PUSH2 0x92C JUMP JUMPDEST SWAP1 POP DUP1 SWAP3 POP POP POP SWAP2 SWAP1 POP JUMP JUMPDEST PUSH0 DUP1 SLOAD SWAP1 PUSH2 0x100 EXP SWAP1 DIV PUSH20 0xFFFFFFFFFFFFFFFFFFFFFFFFFFFFFFFFFFFFFFFF AND DUP2 JUMP JUMPDEST PUSH0 DUP1 PUSH20 0x694AA1769357215DE4FAC081BF1F309ADC325306 SWAP1 POP PUSH0 DUP2 PUSH20 0xFFFFFFFFFFFFFFFFFFFFFFFFFFFFFFFFFFFFFFFF AND PUSH4 0xFEAF968C PUSH1 0x40 MLOAD DUP2 PUSH4 0xFFFFFFFF AND PUSH1 0xE0 SHL DUP2 MSTORE PUSH1 0x4 ADD PUSH1 0xA0 PUSH1 0x40 MLOAD DUP1 DUP4 SUB DUP2 DUP7 GAS STATICCALL ISZERO DUP1 ISZERO PUSH2 0x47A JUMPI RETURNDATASIZE PUSH0 DUP1 RETURNDATACOPY RETURNDATASIZE PUSH0 REVERT JUMPDEST POP POP POP POP PUSH1 0x40 MLOAD RETURNDATASIZE PUSH1 0x1F NOT PUSH1 0x1F DUP3 ADD AND DUP3 ADD DUP1 PUSH1 0x40 MSTORE POP DUP2 ADD SWAP1 PUSH2 0x49E SWAP2 SWAP1 PUSH2 0x9E2 JUMP JUMPDEST POP POP POP SWAP2 POP POP PUSH5 0x2540BE400 DUP2 PUSH2 0x4B5 SWAP2 SWAP1 PUSH2 0xA59 JUMP JUMPDEST SWAP3 POP POP POP SWAP1 JUMP JUMPDEST PUSH8 0xDE0B6B3A7640000 CALLVALUE LT ISZERO PUSH2 0x507 JUMPI PUSH1 0x40 MLOAD PUSH32 0x8C379A000000000000000000000000000000000000000000000000000000000 DUP2 MSTORE PUSH1 0x4 ADD PUSH2 0x4FE SWAP1 PUSH2 0xB3F JUMP JUMPDEST PUSH1 0x40 MLOAD DUP1 SWAP2 SUB SWAP1 REVERT JUMPDEST PUSH1 0x2 CALLER SWAP1 DUP1 PUSH1 0x1 DUP2 SLOAD ADD DUP1 DUP3 SSTORE DUP1 SWAP2 POP POP PUSH1 0x1 SWAP1 SUB SWAP1 PUSH0 MSTORE PUSH1 0x20 PUSH0 KECCAK256 ADD PUSH0 SWAP1 SWAP2 SWAP1 SWAP2 SWAP1 SWAP2 PUSH2 0x100 EXP DUP2 SLOAD DUP2 PUSH20 0xFFFFFFFFFFFFFFFFFFFFFFFFFFFFFFFFFFFFFFFF MUL NOT AND SWAP1 DUP4 PUSH20 0xFFFFFFFFFFFFFFFFFFFFFFFFFFFFFFFFFFFFFFFF AND MUL OR SWAP1 SSTORE POP CALLVALUE PUSH1 0x3 PUSH0 CALLER PUSH20 0xFFFFFFFFFFFFFFFFFFFFFFFFFFFFFFFFFFFFFFFF AND PUSH20 0xFFFFFFFFFFFFFFFFFFFFFFFFFFFFFFFFFFFFFFFF AND DUP2 MSTORE PUSH1 0x20 ADD SWAP1 DUP2 MSTORE PUSH1 0x20 ADD PUSH0 KECCAK256 DUP2 SWAP1 SSTORE POP JUMP JUMPDEST PUSH1 0x2 DUP2 DUP2 SLOAD DUP2 LT PUSH2 0x5BA JUMPI PUSH0 DUP1 REVERT JUMPDEST SWAP1 PUSH0 MSTORE PUSH1 0x20 PUSH0 KECCAK256 ADD PUSH0 SWAP2 POP SLOAD SWAP1 PUSH2 0x100 EXP SWAP1 DIV PUSH20 0xFFFFFFFFFFFFFFFFFFFFFFFFFFFFFFFFFFFFFFFF AND DUP2 JUMP JUMPDEST DUP3 DUP1 SLOAD DUP3 DUP3 SSTORE SWAP1 PUSH0 MSTORE PUSH1 0x20 PUSH0 KECCAK256 SWAP1 DUP2 ADD SWAP3 DUP3 ISZERO PUSH2 0x65C JUMPI SWAP2 PUSH1 0x20 MUL DUP3 ADD JUMPDEST DUP3 DUP2 GT ISZERO PUSH2 0x65B JUMPI DUP3 MLOAD DUP3 PUSH0 PUSH2 0x100 EXP DUP2 SLOAD DUP2 PUSH20 0xFFFFFFFFFFFFFFFFFFFFFFFFFFFFFFFFFFFFFFFF MUL NOT AND SWAP1 DUP4 PUSH20 0xFFFFFFFFFFFFFFFFFFFFFFFFFFFFFFFFFFFFFFFF AND MUL OR SWAP1 SSTORE POP SWAP2 PUSH1 0x20 ADD SWAP2 SWAP1 PUSH1 0x1 ADD SWAP1 PUSH2 0x604 JUMP JUMPDEST JUMPDEST POP SWAP1 POP PUSH2 0x669 SWAP2 SWAP1 PUSH2 0x66D JUMP JUMPDEST POP SWAP1 JUMP JUMPDEST JUMPDEST DUP1 DUP3 GT ISZERO PUSH2 0x684 JUMPI PUSH0 DUP2 PUSH0 SWAP1 SSTORE POP PUSH1 0x1 ADD PUSH2 0x66E JUMP JUMPDEST POP SWAP1 JUMP JUMPDEST PUSH0 DUP2 SWAP1 POP SWAP2 SWAP1 POP JUMP JUMPDEST PUSH2 0x69A DUP2 PUSH2 0x688 JUMP JUMPDEST DUP3 MSTORE POP POP JUMP JUMPDEST PUSH0 PUSH1 0x20 DUP3 ADD SWAP1 POP PUSH2 0x6B3 PUSH0 DUP4 ADD DUP5 PUSH2 0x691 JUMP JUMPDEST SWAP3 SWAP2 POP POP JUMP JUMPDEST PUSH0 DUP1 REVERT JUMPDEST PUSH0 PUSH20 0xFFFFFFFFFFFFFFFFFFFFFFFFFFFFFFFFFFFFFFFF DUP3 AND SWAP1 POP SWAP2 SWAP1 POP JUMP JUMPDEST PUSH0 PUSH2 0x6E6 DUP3 PUSH2 0x6BD JUMP JUMPDEST SWAP1 POP SWAP2 SWAP1 POP JUMP JUMPDEST PUSH2 0x6F6 DUP2 PUSH2 0x6DC JUMP JUMPDEST DUP2 EQ PUSH2 0x700 JUMPI PUSH0 DUP1 REVERT JUMPDEST POP JUMP JUMPDEST PUSH0 DUP2 CALLDATALOAD SWAP1 POP PUSH2 0x711 DUP2 PUSH2 0x6ED JUMP JUMPDEST SWAP3 SWAP2 POP POP JUMP JUMPDEST PUSH0 PUSH1 0x20 DUP3 DUP5 SUB SLT ISZERO PUSH2 0x72C JUMPI PUSH2 0x72B PUSH2 0x6B9 JUMP JUMPDEST JUMPDEST PUSH0 PUSH2 0x739 DUP5 DUP3 DUP6 ADD PUSH2 0x703 JUMP JUMPDEST SWAP2 POP POP SWAP3 SWAP2 POP POP JUMP JUMPDEST PUSH2 0x74B DUP2 PUSH2 0x688 JUMP JUMPDEST DUP2 EQ PUSH2 0x755 JUMPI PUSH0 DUP1 REVERT JUMPDEST POP JUMP JUMPDEST PUSH0 DUP2 CALLDATALOAD SWAP1 POP PUSH2 0x766 DUP2 PUSH2 0x742 JUMP JUMPDEST SWAP3 SWAP2 POP POP JUMP JUMPDEST PUSH0 PUSH1 0x20 DUP3 DUP5 SUB SLT ISZERO PUSH2 0x781 JUMPI PUSH2 0x780 PUSH2 0x6B9 JUMP JUMPDEST JUMPDEST PUSH0 PUSH2 0x78E DUP5 DUP3 DUP6 ADD PUSH2 0x758 JUMP JUMPDEST SWAP2 POP POP SWAP3 SWAP2 POP POP JUMP JUMPDEST PUSH2 0x7A0 DUP2 PUSH2 0x6DC JUMP JUMPDEST DUP3 MSTORE POP POP JUMP JUMPDEST PUSH0 PUSH1 0x20 DUP3 ADD SWAP1 POP PUSH2 0x7B9 PUSH0 DUP4 ADD DUP5 PUSH2 0x797 JUMP JUMPDEST SWAP3 SWAP2 POP POP JUMP JUMPDEST PUSH0 DUP3 DUP3 MSTORE PUSH1 0x20 DUP3 ADD SWAP1 POP SWAP3 SWAP2 POP POP JUMP JUMPDEST PUSH32 0x50656E676972696D2062756B616E2073656F72616E67206F776E657200000000 PUSH0 DUP3 ADD MSTORE POP JUMP JUMPDEST PUSH0 PUSH2 0x803 PUSH1 0x1C DUP4 PUSH2 0x7BF JUMP JUMPDEST SWAP2 POP PUSH2 0x80E DUP3 PUSH2 0x7CF JUMP JUMPDEST PUSH1 0x20 DUP3 ADD SWAP1 POP SWAP2 SWAP1 POP JUMP JUMPDEST PUSH0 PUSH1 0x20 DUP3 ADD SWAP1 POP DUP2 DUP2 SUB PUSH0 DUP4 ADD MSTORE PUSH2 0x830 DUP2 PUSH2 0x7F7 JUMP JUMPDEST SWAP1 POP SWAP2 SWAP1 POP JUMP JUMPDEST PUSH32 0x4E487B7100000000000000000000000000000000000000000000000000000000 PUSH0 MSTORE PUSH1 0x32 PUSH1 0x4 MSTORE PUSH1 0x24 PUSH0 REVERT JUMPDEST PUSH32 0x4E487B7100000000000000000000000000000000000000000000000000000000 PUSH0 MSTORE PUSH1 0x41 PUSH1 0x4 MSTORE PUSH1 0x24 PUSH0 REVERT JUMPDEST PUSH32 0x4E487B7100000000000000000000000000000000000000000000000000000000 PUSH0 MSTORE PUSH1 0x11 PUSH1 0x4 MSTORE PUSH1 0x24 PUSH0 REVERT JUMPDEST PUSH0 PUSH2 0x8C8 DUP3 PUSH2 0x688 JUMP JUMPDEST SWAP2 POP PUSH2 0x8D3 DUP4 PUSH2 0x688 JUMP JUMPDEST SWAP3 POP DUP3 DUP3 MUL PUSH2 0x8E1 DUP2 PUSH2 0x688 JUMP JUMPDEST SWAP2 POP DUP3 DUP3 DIV DUP5 EQ DUP4 ISZERO OR PUSH2 0x8F8 JUMPI PUSH2 0x8F7 PUSH2 0x891 JUMP JUMPDEST JUMPDEST POP SWAP3 SWAP2 POP POP JUMP JUMPDEST PUSH32 0x4E487B7100000000000000000000000000000000000000000000000000000000 PUSH0 MSTORE PUSH1 0x12 PUSH1 0x4 MSTORE PUSH1 0x24 PUSH0 REVERT JUMPDEST PUSH0 PUSH2 0x936 DUP3 PUSH2 0x688 JUMP JUMPDEST SWAP2 POP PUSH2 0x941 DUP4 PUSH2 0x688 JUMP JUMPDEST SWAP3 POP DUP3 PUSH2 0x951 JUMPI PUSH2 0x950 PUSH2 0x8FF JUMP JUMPDEST JUMPDEST DUP3 DUP3 DIV SWAP1 POP SWAP3 SWAP2 POP POP JUMP JUMPDEST PUSH0 PUSH10 0xFFFFFFFFFFFFFFFFFFFF DUP3 AND SWAP1 POP SWAP2 SWAP1 POP JUMP JUMPDEST PUSH2 0x97A DUP2 PUSH2 0x95C JUMP JUMPDEST DUP2 EQ PUSH2 0x984 JUMPI PUSH0 DUP1 REVERT JUMPDEST POP JUMP JUMPDEST PUSH0 DUP2 MLOAD SWAP1 POP PUSH2 0x995 DUP2 PUSH2 0x971 JUMP JUMPDEST SWAP3 SWAP2 POP POP JUMP JUMPDEST PUSH0 DUP2 SWAP1 POP SWAP2 SWAP1 POP JUMP JUMPDEST PUSH2 0x9AD DUP2 PUSH2 0x99B JUMP JUMPDEST DUP2 EQ PUSH2 0x9B7 JUMPI PUSH0 DUP1 REVERT JUMPDEST POP JUMP JUMPDEST PUSH0 DUP2 MLOAD SWAP1 POP PUSH2 0x9C8 DUP2 PUSH2 0x9A4 JUMP JUMPDEST SWAP3 SWAP2 POP POP JUMP JUMPDEST PUSH0 DUP2 MLOAD SWAP1 POP PUSH2 0x9DC DUP2 PUSH2 0x742 JUMP JUMPDEST SWAP3 SWAP2 POP POP JUMP JUMPDEST PUSH0 DUP1 PUSH0 DUP1 PUSH0 PUSH1 0xA0 DUP7 DUP9 SUB SLT ISZERO PUSH2 0x9FB JUMPI PUSH2 0x9FA PUSH2 0x6B9 JUMP JUMPDEST JUMPDEST PUSH0 PUSH2 0xA08 DUP9 DUP3 DUP10 ADD PUSH2 0x987 JUMP JUMPDEST SWAP6 POP POP PUSH1 0x20 PUSH2 0xA19 DUP9 DUP3 DUP10 ADD PUSH2 0x9BA JUMP JUMPDEST SWAP5 POP POP PUSH1 0x40 PUSH2 0xA2A DUP9 DUP3 DUP10 ADD PUSH2 0x9CE JUMP JUMPDEST SWAP4 POP POP PUSH1 0x60 PUSH2 0xA3B DUP9 DUP3 DUP10 ADD PUSH2 0x9CE JUMP JUMPDEST SWAP3 POP POP PUSH1 0x80 PUSH2 0xA4C DUP9 DUP3 DUP10 ADD PUSH2 0x987 JUMP JUMPDEST SWAP2 POP POP SWAP3 SWAP6 POP SWAP3 SWAP6 SWAP1 SWAP4 POP JUMP JUMPDEST PUSH0 PUSH2 0xA63 DUP3 PUSH2 0x99B JUMP JUMPDEST SWAP2 POP PUSH2 0xA6E DUP4 PUSH2 0x99B JUMP JUMPDEST SWAP3 POP DUP3 DUP3 MUL PUSH2 0xA7C DUP2 PUSH2 0x99B JUMP JUMPDEST SWAP2 POP PUSH32 0x8000000000000000000000000000000000000000000000000000000000000000 DUP5 EQ PUSH0 DUP5 SLT AND ISZERO PUSH2 0xAB3 JUMPI PUSH2 0xAB2 PUSH2 0x891 JUMP JUMPDEST JUMPDEST DUP3 DUP3 SDIV DUP5 EQ DUP4 ISZERO OR PUSH2 0xAC8 JUMPI PUSH2 0xAC7 PUSH2 0x891 JUMP JUMPDEST JUMPDEST POP SWAP3 SWAP2 POP POP JUMP JUMPDEST PUSH32 0x4D6161662C206E696C61692079616E6720616E646120696E707574206B757261 PUSH0 DUP3 ADD MSTORE PUSH32 0x6E67000000000000000000000000000000000000000000000000000000000000 PUSH1 0x20 DUP3 ADD MSTORE POP JUMP JUMPDEST PUSH0 PUSH2 0xB29 PUSH1 0x22 DUP4 PUSH2 0x7BF JUMP JUMPDEST SWAP2 POP PUSH2 0xB34 DUP3 PUSH2 0xACF JUMP JUMPDEST PUSH1 0x40 DUP3 ADD SWAP1 POP SWAP2 SWAP1 POP JUMP JUMPDEST PUSH0 PUSH1 0x20 DUP3 ADD SWAP1 POP DUP2 DUP2 SUB PUSH0 DUP4 ADD MSTORE PUSH2 0xB56 DUP2 PUSH2 0xB1D JUMP JUMPDEST SWAP1 POP SWAP2 SWAP1 POP JUMP INVALID LOG2 PUSH5 0x6970667358 0x22 SLT KECCAK256 PUSH18 0xD2F518C755C0E2F8842BB78FBC04AFAB5093 0x22 0xC3 PUSH16 0x7DDE8831D57C88B8C6FD64736F6C6343 STOP ADDMOD BYTE STOP CALLER "
				},
				"gasEstimates": {
					"creation": {
						"codeDepositCost": "592600",
						"executionCost": "46994",
						"totalCost": "639594"
					},
					"external": {
						"addressToAmountFunded(address)": "2847",
						"fund()": "70963",
						"funders(uint256)": "5010",
						"getConversionRate(uint256)": "infinite",
						"getPrice()": "infinite",
						"minimumUsd()": "2426",
						"owner()": "2505",
						"withdraw()": "infinite"
					}
				},
				"methodIdentifiers": {
					"addressToAmountFunded(address)": "3e47d6f3",
					"fund()": "b60d4288",
					"funders(uint256)": "dc0d3dff",
					"getConversionRate(uint256)": "6e5b6b28",
					"getPrice()": "98d5fdca",
					"minimumUsd()": "098de820",
					"owner()": "8da5cb5b",
					"withdraw()": "3ccfd60b"
				}
			},
			"storageLayout": {
				"storage": [
					{
						"astId": 53,
						"contract": "contracts/Praktikum 4/FundMe.sol:FundMe",
						"label": "owner",
						"offset": 0,
						"slot": "0",
						"type": "t_address"
					},
					{
						"astId": 67,
						"contract": "contracts/Praktikum 4/FundMe.sol:FundMe",
						"label": "minimumUsd",
						"offset": 0,
						"slot": "1",
						"type": "t_uint256"
					},
					{
						"astId": 70,
						"contract": "contracts/Praktikum 4/FundMe.sol:FundMe",
						"label": "funders",
						"offset": 0,
						"slot": "2",
						"type": "t_array(t_address)dyn_storage"
					},
					{
						"astId": 74,
						"contract": "contracts/Praktikum 4/FundMe.sol:FundMe",
						"label": "addressToAmountFunded",
						"offset": 0,
						"slot": "3",
						"type": "t_mapping(t_address,t_uint256)"
					}
				],
				"types": {
					"t_address": {
						"encoding": "inplace",
						"label": "address",
						"numberOfBytes": "20"
					},
					"t_array(t_address)dyn_storage": {
						"base": "t_address",
						"encoding": "dynamic_array",
						"label": "address[]",
						"numberOfBytes": "32"
					},
					"t_mapping(t_address,t_uint256)": {
						"encoding": "mapping",
						"key": "t_address",
						"label": "mapping(address => uint256)",
						"numberOfBytes": "32",
						"value": "t_uint256"
					},
					"t_uint256": {
						"encoding": "inplace",
						"label": "uint256",
						"numberOfBytes": "32"
					}
				}
			},
			"userdoc": {
				"kind": "user",
				"methods": {},
				"version": 1
			}
		}
	}
}